{
  "contractName": "AccControl",
  "abi": [
    {
      "inputs": [
        {
          "internalType": "address",
          "name": "initialOwner",
          "type": "address"
        },
        {
          "internalType": "address",
          "name": "hasherAddress",
          "type": "address"
        }
      ],
      "stateMutability": "nonpayable",
      "type": "constructor"
    },
    {
      "inputs": [
        {
          "internalType": "address",
          "name": "owner",
          "type": "address"
        }
      ],
      "name": "OwnableInvalidOwner",
      "type": "error"
    },
    {
      "inputs": [
        {
          "internalType": "address",
          "name": "account",
          "type": "address"
        }
      ],
      "name": "OwnableUnauthorizedAccount",
      "type": "error"
    },
    {
      "anonymous": false,
      "inputs": [
        {
          "indexed": true,
          "internalType": "address",
          "name": "dao",
          "type": "address"
        }
      ],
      "name": "DAONodeAdded",
      "type": "event"
    },
    {
      "anonymous": false,
      "inputs": [
        {
          "indexed": true,
          "internalType": "address",
          "name": "dao",
          "type": "address"
        }
      ],
      "name": "DAONodeRemoved",
      "type": "event"
    },
    {
      "anonymous": false,
      "inputs": [
        {
          "indexed": true,
          "internalType": "address",
          "name": "member",
          "type": "address"
        },
        {
          "indexed": false,
          "internalType": "enum AccControl.Role",
          "name": "role",
          "type": "uint8"
        }
      ],
      "name": "MemberAdded",
      "type": "event"
    },
    {
      "anonymous": false,
      "inputs": [
        {
          "indexed": true,
          "internalType": "address",
          "name": "member",
          "type": "address"
        }
      ],
      "name": "MemberRemoved",
      "type": "event"
    },
    {
      "anonymous": false,
      "inputs": [
        {
          "indexed": true,
          "internalType": "address",
          "name": "previousOwner",
          "type": "address"
        },
        {
          "indexed": true,
          "internalType": "address",
          "name": "newOwner",
          "type": "address"
        }
      ],
      "name": "OwnershipTransferred",
      "type": "event"
    },
    {
      "anonymous": false,
      "inputs": [
        {
          "indexed": true,
          "internalType": "address",
          "name": "validator",
          "type": "address"
        },
        {
          "indexed": false,
          "internalType": "bytes32",
          "name": "hash",
          "type": "bytes32"
        }
      ],
      "name": "ValidatorAdded",
      "type": "event"
    },
    {
      "anonymous": false,
      "inputs": [
        {
          "indexed": true,
          "internalType": "address",
          "name": "validator",
          "type": "address"
        }
      ],
      "name": "ValidatorRemoved",
      "type": "event"
    },
    {
      "inputs": [
        {
          "internalType": "address",
          "name": "",
          "type": "address"
        }
      ],
      "name": "daoNodes",
      "outputs": [
        {
          "internalType": "bool",
          "name": "",
          "type": "bool"
        }
      ],
      "stateMutability": "view",
      "type": "function",
      "constant": true
    },
    {
      "inputs": [],
      "name": "hasher",
      "outputs": [
        {
          "internalType": "contract CustomHash",
          "name": "",
          "type": "address"
        }
      ],
      "stateMutability": "view",
      "type": "function",
      "constant": true
    },
    {
      "inputs": [
        {
          "internalType": "address",
          "name": "",
          "type": "address"
        }
      ],
      "name": "memberRoles",
      "outputs": [
        {
          "internalType": "enum AccControl.Role",
          "name": "",
          "type": "uint8"
        }
      ],
      "stateMutability": "view",
      "type": "function",
      "constant": true
    },
    {
      "inputs": [],
      "name": "owner",
      "outputs": [
        {
          "internalType": "address",
          "name": "",
          "type": "address"
        }
      ],
      "stateMutability": "view",
      "type": "function",
      "constant": true
    },
    {
      "inputs": [],
      "name": "renounceOwnership",
      "outputs": [],
      "stateMutability": "nonpayable",
      "type": "function"
    },
    {
      "inputs": [
        {
          "internalType": "address",
          "name": "newOwner",
          "type": "address"
        }
      ],
      "name": "transferOwnership",
      "outputs": [],
      "stateMutability": "nonpayable",
      "type": "function"
    },
    {
      "inputs": [
        {
          "internalType": "uint256",
          "name": "",
          "type": "uint256"
        }
      ],
      "name": "validatorAddresses",
      "outputs": [
        {
          "internalType": "address",
          "name": "",
          "type": "address"
        }
      ],
      "stateMutability": "view",
      "type": "function",
      "constant": true
    },
    {
      "inputs": [
        {
          "internalType": "address",
          "name": "",
          "type": "address"
        }
      ],
      "name": "validatorHashes",
      "outputs": [
        {
          "internalType": "bytes32",
          "name": "",
          "type": "bytes32"
        }
      ],
      "stateMutability": "view",
      "type": "function",
      "constant": true
    },
    {
      "inputs": [
        {
          "internalType": "address",
          "name": "",
          "type": "address"
        }
      ],
      "name": "validators",
      "outputs": [
        {
          "internalType": "bool",
          "name": "",
          "type": "bool"
        }
      ],
      "stateMutability": "view",
      "type": "function",
      "constant": true
    },
    {
      "inputs": [
        {
          "internalType": "address",
          "name": "member",
          "type": "address"
        },
        {
          "internalType": "enum AccControl.Role",
          "name": "role",
          "type": "uint8"
        }
      ],
      "name": "addMember",
      "outputs": [],
      "stateMutability": "nonpayable",
      "type": "function"
    },
    {
      "inputs": [
        {
          "internalType": "address",
          "name": "member",
          "type": "address"
        }
      ],
      "name": "removeMember",
      "outputs": [],
      "stateMutability": "nonpayable",
      "type": "function"
    },
    {
      "inputs": [
        {
          "internalType": "address",
          "name": "member",
          "type": "address"
        }
      ],
      "name": "getRole",
      "outputs": [
        {
          "internalType": "enum AccControl.Role",
          "name": "",
          "type": "uint8"
        }
      ],
      "stateMutability": "view",
      "type": "function",
      "constant": true
    },
    {
      "inputs": [
        {
          "internalType": "address",
          "name": "daoNode",
          "type": "address"
        }
      ],
      "name": "addDAONode",
      "outputs": [],
      "stateMutability": "nonpayable",
      "type": "function"
    },
    {
      "inputs": [
        {
          "internalType": "address",
          "name": "daoNode",
          "type": "address"
        }
      ],
      "name": "removeDAONode",
      "outputs": [],
      "stateMutability": "nonpayable",
      "type": "function"
    },
    {
      "inputs": [
        {
          "internalType": "address",
          "name": "validator",
          "type": "address"
        }
      ],
      "name": "addValidator",
      "outputs": [],
      "stateMutability": "nonpayable",
      "type": "function"
    },
    {
      "inputs": [
        {
          "internalType": "address",
          "name": "validator",
          "type": "address"
        }
      ],
      "name": "removeValidator",
      "outputs": [],
      "stateMutability": "nonpayable",
      "type": "function"
    },
    {
      "inputs": [
        {
          "internalType": "address",
          "name": "daoNode",
          "type": "address"
        }
      ],
      "name": "isDAONode",
      "outputs": [
        {
          "internalType": "bool",
          "name": "",
          "type": "bool"
        }
      ],
      "stateMutability": "view",
      "type": "function",
      "constant": true
    },
    {
      "inputs": [
        {
          "internalType": "address",
          "name": "validator",
          "type": "address"
        }
      ],
      "name": "isValidator",
      "outputs": [
        {
          "internalType": "bool",
          "name": "",
          "type": "bool"
        }
      ],
      "stateMutability": "view",
      "type": "function",
      "constant": true
    },
    {
      "inputs": [],
      "name": "validatorCount",
      "outputs": [
        {
          "internalType": "uint256",
          "name": "",
          "type": "uint256"
        }
      ],
      "stateMutability": "view",
      "type": "function",
      "constant": true
    }
  ],
  "bytecode": "0x60806040523480156200001157600080fd5b50604051620022c8380380620022c8833981810160405281019062000037919062000236565b81600073ffffffffffffffffffffffffffffffffffffffff168173ffffffffffffffffffffffffffffffffffffffff1603620000ad5760006040517f1e4fbdf7000000000000000000000000000000000000000000000000000000008152600401620000a491906200028e565b60405180910390fd5b620000be816200010860201b60201c565b5080600160006101000a81548173ffffffffffffffffffffffffffffffffffffffff021916908373ffffffffffffffffffffffffffffffffffffffff1602179055505050620002ab565b60008060009054906101000a900473ffffffffffffffffffffffffffffffffffffffff169050816000806101000a81548173ffffffffffffffffffffffffffffffffffffffff021916908373ffffffffffffffffffffffffffffffffffffffff1602179055508173ffffffffffffffffffffffffffffffffffffffff168173ffffffffffffffffffffffffffffffffffffffff167f8be0079c531659141344cd1fd0a4f28419497f9722a3daafe3b4186f6b6457e060405160405180910390a35050565b600080fd5b600073ffffffffffffffffffffffffffffffffffffffff82169050919050565b6000620001fe82620001d1565b9050919050565b6200021081620001f1565b81146200021c57600080fd5b50565b600081519050620002308162000205565b92915050565b6000806040838503121562000250576200024f620001cc565b5b600062000260858286016200021f565b925050602062000273858286016200021f565b9150509250929050565b6200028881620001f1565b82525050565b6000602082019050620002a560008301846200027d565b92915050565b61200d80620002bb6000396000f3fe608060405234801561001057600080fd5b50600436106101215760003560e01c8063715018a6116100ad578063ed33639f11610071578063ed33639f14610318578063f2fde38b14610336578063f681636014610352578063fa52c7d81461036e578063facd743b1461039e57610121565b8063715018a6146102605780638da5cb5b1461026a5780639974531814610288578063c82b222c146102b8578063cd599281146102e857610121565b806340a141ff116100f457806340a141ff146101c057806344276733146101dc5780634c2512a81461020c5780634d238c8e1461022857806362d0d1c31461024457610121565b80630b1ca49a146101265780630cdca9e6146101425780630f43a677146101725780633442185614610190575b600080fd5b610140600480360381019061013b9190611644565b6103ce565b005b61015c60048036038101906101579190611644565b610530565b60405161016991906116e8565b60405180910390f35b61017a610550565b604051610187919061171c565b60405180910390f35b6101aa60048036038101906101a59190611644565b61055d565b6040516101b79190611752565b60405180910390f35b6101da60048036038101906101d59190611644565b61057d565b005b6101f660048036038101906101f19190611644565b610952565b60405161020391906116e8565b60405180910390f35b61022660048036038101906102219190611644565b6109a8565b005b610242600480360381019061023d9190611644565b610b29565b005b61025e60048036038101906102599190611792565b610ec9565b005b6102686110e7565b005b6102726110fb565b60405161027f91906117e1565b60405180910390f35b6102a2600480360381019061029d9190611828565b611124565b6040516102af91906117e1565b60405180910390f35b6102d260048036038101906102cd9190611644565b611163565b6040516102df919061186e565b60405180910390f35b61030260048036038101906102fd9190611644565b61117b565b60405161030f9190611752565b60405180910390f35b6103206111d1565b60405161032d91906118e8565b60405180910390f35b610350600480360381019061034b9190611644565b6111f7565b005b61036c60048036038101906103679190611644565b61127d565b005b61038860048036038101906103839190611644565b611418565b6040516103959190611752565b60405180910390f35b6103b860048036038101906103b39190611644565b611438565b6040516103c59190611752565b60405180910390f35b6103d661148e565b600060048111156103ea576103e9611671565b5b60048111156103fc576103fb611671565b5b600260008373ffffffffffffffffffffffffffffffffffffffff1673ffffffffffffffffffffffffffffffffffffffff16815260200190815260200160002060009054906101000a900460ff16600481111561045b5761045a611671565b5b0361049b576040517f08c379a000000000000000000000000000000000000000000000000000000000815260040161049290611960565b60405180910390fd5b600260008273ffffffffffffffffffffffffffffffffffffffff1673ffffffffffffffffffffffffffffffffffffffff16815260200190815260200160002060006101000a81549060ff02191690558073ffffffffffffffffffffffffffffffffffffffff167f6e76fb4c77256006d9c38ec7d82b45a8c8f3c27b1d6766fffc42dfb8de68449260405160405180910390a250565b60026020528060005260406000206000915054906101000a900460ff1681565b6000600580549050905090565b60036020528060005260406000206000915054906101000a900460ff1681565b600360003373ffffffffffffffffffffffffffffffffffffffff1673ffffffffffffffffffffffffffffffffffffffff16815260200190815260200160002060009054906101000a900460ff16610609576040517f08c379a0000000000000000000000000000000000000000000000000000000008152600401610600906119f2565b60405180910390fd5b600460008273ffffffffffffffffffffffffffffffffffffffff1673ffffffffffffffffffffffffffffffffffffffff16815260200190815260200160002060009054906101000a900460ff16610695576040517f08c379a000000000000000000000000000000000000000000000000000000000815260040161068c90611a5e565b60405180910390fd5b6000600460008373ffffffffffffffffffffffffffffffffffffffff1673ffffffffffffffffffffffffffffffffffffffff16815260200190815260200160002060006101000a81548160ff021916908315150217905550600260008273ffffffffffffffffffffffffffffffffffffffff1673ffffffffffffffffffffffffffffffffffffffff16815260200190815260200160002060006101000a81549060ff0219169055600660008273ffffffffffffffffffffffffffffffffffffffff1673ffffffffffffffffffffffffffffffffffffffff1681526020019081526020016000206000905560005b60058054905081101561090b578173ffffffffffffffffffffffffffffffffffffffff16600582815481106107ba576107b9611a7e565b5b9060005260206000200160009054906101000a900473ffffffffffffffffffffffffffffffffffffffff1673ffffffffffffffffffffffffffffffffffffffff16036108f857600560016005805490506108149190611adc565b8154811061082557610824611a7e565b5b9060005260206000200160009054906101000a900473ffffffffffffffffffffffffffffffffffffffff166005828154811061086457610863611a7e565b5b9060005260206000200160006101000a81548173ffffffffffffffffffffffffffffffffffffffff021916908373ffffffffffffffffffffffffffffffffffffffff16021790555060058054806108be576108bd611b10565b5b6001900381819060005260206000200160006101000a81549073ffffffffffffffffffffffffffffffffffffffff0219169055905561090b565b808061090390611b3f565b915050610782565b508073ffffffffffffffffffffffffffffffffffffffff167fe1434e25d6611e0db941968fdc97811c982ac1602e951637d206f5fdda9dd8f160405160405180910390a250565b6000600260008373ffffffffffffffffffffffffffffffffffffffff1673ffffffffffffffffffffffffffffffffffffffff16815260200190815260200160002060009054906101000a900460ff169050919050565b6109b061148e565b600360008273ffffffffffffffffffffffffffffffffffffffff1673ffffffffffffffffffffffffffffffffffffffff16815260200190815260200160002060009054906101000a900460ff16610a3c576040517f08c379a0000000000000000000000000000000000000000000000000000000008152600401610a3390611bd3565b60405180910390fd5b6000600360008373ffffffffffffffffffffffffffffffffffffffff1673ffffffffffffffffffffffffffffffffffffffff16815260200190815260200160002060006101000a81548160ff021916908315150217905550600260008273ffffffffffffffffffffffffffffffffffffffff1673ffffffffffffffffffffffffffffffffffffffff16815260200190815260200160002060006101000a81549060ff02191690558073ffffffffffffffffffffffffffffffffffffffff167f5f3eca1845fe3314f569faac65d6dfd71bd2e325c5bcf7c4f2f0a3870ec8473060405160405180910390a250565b600360003373ffffffffffffffffffffffffffffffffffffffff1673ffffffffffffffffffffffffffffffffffffffff16815260200190815260200160002060009054906101000a900460ff16610bb5576040517f08c379a0000000000000000000000000000000000000000000000000000000008152600401610bac90611c65565b60405180910390fd5b600460008273ffffffffffffffffffffffffffffffffffffffff1673ffffffffffffffffffffffffffffffffffffffff16815260200190815260200160002060009054906101000a900460ff1615610c42576040517f08c379a0000000000000000000000000000000000000000000000000000000008152600401610c3990611cd1565b60405180910390fd5b6000600160009054906101000a900473ffffffffffffffffffffffffffffffffffffffff1673ffffffffffffffffffffffffffffffffffffffff1663423a969f83604051602001610c939190611d39565b604051602081830303815290604052600143610caf9190611adc565b406040518363ffffffff1660e01b8152600401610ccd929190611de4565b602060405180830381865afa158015610cea573d6000803e3d6000fd5b505050506040513d601f19601f82011682018060405250810190610d0e9190611e40565b90506001600460008473ffffffffffffffffffffffffffffffffffffffff1673ffffffffffffffffffffffffffffffffffffffff16815260200190815260200160002060006101000a81548160ff02191690831515021790555080600660008473ffffffffffffffffffffffffffffffffffffffff1673ffffffffffffffffffffffffffffffffffffffff168152602001908152602001600020819055506005829080600181540180825580915050600190039060005260206000200160009091909190916101000a81548173ffffffffffffffffffffffffffffffffffffffff021916908373ffffffffffffffffffffffffffffffffffffffff1602179055506004600260008473ffffffffffffffffffffffffffffffffffffffff1673ffffffffffffffffffffffffffffffffffffffff16815260200190815260200160002060006101000a81548160ff02191690836004811115610e7257610e71611671565b5b02179055508173ffffffffffffffffffffffffffffffffffffffff167f86281531d595754ea5ce32dfd3b112fbec670d27052e9966f364a88d99cc338682604051610ebd919061186e565b60405180910390a25050565b610ed161148e565b60036004811115610ee557610ee4611671565b5b816004811115610ef857610ef7611671565b5b14158015610f2a5750600480811115610f1457610f13611671565b5b816004811115610f2757610f26611671565b5b14155b610f69576040517f08c379a0000000000000000000000000000000000000000000000000000000008152600401610f6090611edf565b60405180910390fd5b60006004811115610f7d57610f7c611671565b5b6004811115610f8f57610f8e611671565b5b600260008473ffffffffffffffffffffffffffffffffffffffff1673ffffffffffffffffffffffffffffffffffffffff16815260200190815260200160002060009054906101000a900460ff166004811115610fee57610fed611671565b5b1461102e576040517f08c379a000000000000000000000000000000000000000000000000000000000815260040161102590611f4b565b60405180910390fd5b80600260008473ffffffffffffffffffffffffffffffffffffffff1673ffffffffffffffffffffffffffffffffffffffff16815260200190815260200160002060006101000a81548160ff021916908360048111156110905761108f611671565b5b02179055508173ffffffffffffffffffffffffffffffffffffffff167ff833c29297cb62e4d5e38257097ec5d6575967915f151215dd8fc03f8f548ce8826040516110db91906116e8565b60405180910390a25050565b6110ef61148e565b6110f96000611515565b565b60008060009054906101000a900473ffffffffffffffffffffffffffffffffffffffff16905090565b6005818154811061113457600080fd5b906000526020600020016000915054906101000a900473ffffffffffffffffffffffffffffffffffffffff1681565b60066020528060005260406000206000915090505481565b6000600360008373ffffffffffffffffffffffffffffffffffffffff1673ffffffffffffffffffffffffffffffffffffffff16815260200190815260200160002060009054906101000a900460ff169050919050565b600160009054906101000a900473ffffffffffffffffffffffffffffffffffffffff1681565b6111ff61148e565b600073ffffffffffffffffffffffffffffffffffffffff168173ffffffffffffffffffffffffffffffffffffffff16036112715760006040517f1e4fbdf700000000000000000000000000000000000000000000000000000000815260040161126891906117e1565b60405180910390fd5b61127a81611515565b50565b61128561148e565b600360008273ffffffffffffffffffffffffffffffffffffffff1673ffffffffffffffffffffffffffffffffffffffff16815260200190815260200160002060009054906101000a900460ff1615611312576040517f08c379a000000000000000000000000000000000000000000000000000000000815260040161130990611fb7565b60405180910390fd5b6001600360008373ffffffffffffffffffffffffffffffffffffffff1673ffffffffffffffffffffffffffffffffffffffff16815260200190815260200160002060006101000a81548160ff0219169083151502179055506003600260008373ffffffffffffffffffffffffffffffffffffffff1673ffffffffffffffffffffffffffffffffffffffff16815260200190815260200160002060006101000a81548160ff021916908360048111156113cd576113cc611671565b5b02179055508073ffffffffffffffffffffffffffffffffffffffff167fcaa28c62fbe2ac5a69918a42a088ef502e2db2212505f982b6b15a892dc6782c60405160405180910390a250565b60046020528060005260406000206000915054906101000a900460ff1681565b6000600460008373ffffffffffffffffffffffffffffffffffffffff1673ffffffffffffffffffffffffffffffffffffffff16815260200190815260200160002060009054906101000a900460ff169050919050565b6114966115d9565b73ffffffffffffffffffffffffffffffffffffffff166114b46110fb565b73ffffffffffffffffffffffffffffffffffffffff1614611513576114d76115d9565b6040517f118cdaa700000000000000000000000000000000000000000000000000000000815260040161150a91906117e1565b60405180910390fd5b565b60008060009054906101000a900473ffffffffffffffffffffffffffffffffffffffff169050816000806101000a81548173ffffffffffffffffffffffffffffffffffffffff021916908373ffffffffffffffffffffffffffffffffffffffff1602179055508173ffffffffffffffffffffffffffffffffffffffff168173ffffffffffffffffffffffffffffffffffffffff167f8be0079c531659141344cd1fd0a4f28419497f9722a3daafe3b4186f6b6457e060405160405180910390a35050565b600033905090565b600080fd5b600073ffffffffffffffffffffffffffffffffffffffff82169050919050565b6000611611826115e6565b9050919050565b61162181611606565b811461162c57600080fd5b50565b60008135905061163e81611618565b92915050565b60006020828403121561165a576116596115e1565b5b60006116688482850161162f565b91505092915050565b7f4e487b7100000000000000000000000000000000000000000000000000000000600052602160045260246000fd5b600581106116b1576116b0611671565b5b50565b60008190506116c2826116a0565b919050565b60006116d2826116b4565b9050919050565b6116e2816116c7565b82525050565b60006020820190506116fd60008301846116d9565b92915050565b6000819050919050565b61171681611703565b82525050565b6000602082019050611731600083018461170d565b92915050565b60008115159050919050565b61174c81611737565b82525050565b60006020820190506117676000830184611743565b92915050565b6005811061177a57600080fd5b50565b60008135905061178c8161176d565b92915050565b600080604083850312156117a9576117a86115e1565b5b60006117b78582860161162f565b92505060206117c88582860161177d565b9150509250929050565b6117db81611606565b82525050565b60006020820190506117f660008301846117d2565b92915050565b61180581611703565b811461181057600080fd5b50565b600081359050611822816117fc565b92915050565b60006020828403121561183e5761183d6115e1565b5b600061184c84828501611813565b91505092915050565b6000819050919050565b61186881611855565b82525050565b6000602082019050611883600083018461185f565b92915050565b6000819050919050565b60006118ae6118a96118a4846115e6565b611889565b6115e6565b9050919050565b60006118c082611893565b9050919050565b60006118d2826118b5565b9050919050565b6118e2816118c7565b82525050565b60006020820190506118fd60008301846118d9565b92915050565b600082825260208201905092915050565b7f4d656d62657220646f6573206e6f742065786973740000000000000000000000600082015250565b600061194a601583611903565b915061195582611914565b602082019050919050565b600060208201905081810360008301526119798161193d565b9050919050565b7f4f6e6c792044414f206e6f6465732063616e2072656d6f76652076616c69646160008201527f746f727300000000000000000000000000000000000000000000000000000000602082015250565b60006119dc602483611903565b91506119e782611980565b604082019050919050565b60006020820190508181036000830152611a0b816119cf565b9050919050565b7f56616c696461746f7220646f6573206e6f742065786973740000000000000000600082015250565b6000611a48601883611903565b9150611a5382611a12565b602082019050919050565b60006020820190508181036000830152611a7781611a3b565b9050919050565b7f4e487b7100000000000000000000000000000000000000000000000000000000600052603260045260246000fd5b7f4e487b7100000000000000000000000000000000000000000000000000000000600052601160045260246000fd5b6000611ae782611703565b9150611af283611703565b9250828203905081811115611b0a57611b09611aad565b5b92915050565b7f4e487b7100000000000000000000000000000000000000000000000000000000600052603160045260246000fd5b6000611b4a82611703565b91507fffffffffffffffffffffffffffffffffffffffffffffffffffffffffffffffff8203611b7c57611b7b611aad565b5b600182019050919050565b7f44414f206e6f646520646f6573206e6f74206578697374000000000000000000600082015250565b6000611bbd601783611903565b9150611bc882611b87565b602082019050919050565b60006020820190508181036000830152611bec81611bb0565b9050919050565b7f4f6e6c792044414f206e6f6465732063616e206164642076616c696461746f7260008201527f7300000000000000000000000000000000000000000000000000000000000000602082015250565b6000611c4f602183611903565b9150611c5a82611bf3565b604082019050919050565b60006020820190508181036000830152611c7e81611c42565b9050919050565b7f56616c696461746f7220616c7265616479206578697374730000000000000000600082015250565b6000611cbb601883611903565b9150611cc682611c85565b602082019050919050565b60006020820190508181036000830152611cea81611cae565b9050919050565b60008160601b9050919050565b6000611d0982611cf1565b9050919050565b6000611d1b82611cfe565b9050919050565b611d33611d2e82611606565b611d10565b82525050565b6000611d458284611d22565b60148201915081905092915050565b600081519050919050565b600082825260208201905092915050565b60005b83811015611d8e578082015181840152602081019050611d73565b60008484015250505050565b6000601f19601f8301169050919050565b6000611db682611d54565b611dc08185611d5f565b9350611dd0818560208601611d70565b611dd981611d9a565b840191505092915050565b60006040820190508181036000830152611dfe8185611dab565b9050611e0d602083018461185f565b9392505050565b611e1d81611855565b8114611e2857600080fd5b50565b600081519050611e3a81611e14565b92915050565b600060208284031215611e5657611e556115e1565b5b6000611e6484828501611e2b565b91505092915050565b7f5573652073706563696669632066756e6374696f6e7320666f722044414f2f5660008201527f616c696461746f72000000000000000000000000000000000000000000000000602082015250565b6000611ec9602883611903565b9150611ed482611e6d565b604082019050919050565b60006020820190508181036000830152611ef881611ebc565b9050919050565b7f4d656d62657220616c7265616479206578697374730000000000000000000000600082015250565b6000611f35601583611903565b9150611f4082611eff565b602082019050919050565b60006020820190508181036000830152611f6481611f28565b9050919050565b7f44414f206e6f646520616c726561647920657869737473000000000000000000600082015250565b6000611fa1601783611903565b9150611fac82611f6b565b602082019050919050565b60006020820190508181036000830152611fd081611f94565b905091905056fea264697066735822122055a9df9e8eab41850514990ecf65d2660527314c3111680026523970cafa8ff164736f6c63430008140033",
  "immutableReferences": {},
  "source": "// SPDX-License-Identifier: MIT\npragma solidity ^0.8.20;\n\nimport \"@openzeppelin/contracts/access/Ownable.sol\"; //    Ownable  OpenZeppelin\nimport \"./CustomHash.sol\"; //     \n\n/**\n * @title AccControl\n * @dev    DAO  Validator   DAO-VC\n */\ncontract AccControl is Ownable {\n    CustomHash public hasher; //        \n    \n    //     \n    enum Role { Investor, Developer, Auditor, DAO, Validator }\n    \n    //       \n    mapping(address => Role) public memberRoles;\n    \n    //     DAO\n    mapping(address => bool) public daoNodes;\n    \n    //    Validator\n    mapping(address => bool) public validators;\n    address[] public validatorAddresses; //   Validator\n    \n    //     Validator\n    mapping(address => bytes32) public validatorHashes;\n\n    //      \n    event MemberAdded(address indexed member, Role role);\n    event MemberRemoved(address indexed member);\n    event ValidatorAdded(address indexed validator, bytes32 hash);\n    event ValidatorRemoved(address indexed validator);\n    event DAONodeAdded(address indexed dao);\n    event DAONodeRemoved(address indexed dao);\n\n    /**\n     * @dev  \n     * @param initialOwner   \n     * @param hasherAddress    \n     */\n    constructor(address initialOwner, address hasherAddress) Ownable(initialOwner) {\n        hasher = CustomHash(hasherAddress); //     \n    }\n\n    /**\n     * @dev     \n     * @param member   \n     * @param role   \n     */\n    function addMember(address member, Role role) external onlyOwner {\n        require(role != Role.DAO && role != Role.Validator, \"Use specific functions for DAO/Validator\");\n        require(memberRoles[member] == Role(0), \"Member already exists\");\n        memberRoles[member] = role;\n        emit MemberAdded(member, role);\n    }\n\n    /**\n     * @dev     \n     * @param member  \n     */\n    function removeMember(address member) external onlyOwner {\n        require(memberRoles[member] != Role(0), \"Member does not exist\");\n        delete memberRoles[member];\n        emit MemberRemoved(member);\n    }\n\n    /**\n     * @dev    \n     * @param member  \n     * @return  \n     */\n    function getRole(address member) external view returns (Role) {\n        return memberRoles[member];\n    }\n\n    /**\n     * @dev     DAO\n     * @param daoNode   DAO \n     */\n    function addDAONode(address daoNode) external onlyOwner {\n        require(!daoNodes[daoNode], \"DAO node already exists\");\n        daoNodes[daoNode] = true;\n        memberRoles[daoNode] = Role.DAO;\n        emit DAONodeAdded(daoNode);\n    }\n\n    /**\n     * @dev     DAO\n     * @param daoNode   DAO\n     */\n    function removeDAONode(address daoNode) external onlyOwner {\n        require(daoNodes[daoNode], \"DAO node does not exist\");\n        daoNodes[daoNode] = false;\n        delete memberRoles[daoNode];\n        emit DAONodeRemoved(daoNode);\n    }\n\n    /**\n     * @dev  Validator \n     * @param validator  Validator \n     */\n    function addValidator(address validator) external {\n        require(daoNodes[msg.sender], \"Only DAO nodes can add validators\");\n        require(!validators[validator], \"Validator already exists\");\n        \n        bytes32 hash = hasher.customHash(abi.encodePacked(validator), blockhash(block.number - 1));\n        validators[validator] = true;\n        validatorHashes[validator] = hash;\n        validatorAddresses.push(validator); //     Validator\n        memberRoles[validator] = Role.Validator;\n        emit ValidatorAdded(validator, hash);\n    }\n\n    /**\n     * @dev  Validator \n     * @param validator  Validator\n     */\n    function removeValidator(address validator) external {\n        require(daoNodes[msg.sender], \"Only DAO nodes can remove validators\");\n        require(validators[validator], \"Validator does not exist\");\n        validators[validator] = false;\n        delete memberRoles[validator];\n        delete validatorHashes[validator];\n        //   Validator  \n        for (uint256 i = 0; i < validatorAddresses.length; i++) {\n            if (validatorAddresses[i] == validator) {\n                validatorAddresses[i] = validatorAddresses[validatorAddresses.length - 1];\n                validatorAddresses.pop();\n                break;\n            }\n        }\n        emit ValidatorRemoved(validator);\n    }\n\n    /**\n     * @dev       DAO   \n     * @param daoNode   DAO\n     * @return  \n     */\n    function isDAONode(address daoNode) external view returns (bool) {\n        return daoNodes[daoNode];\n    }\n\n    /**\n     * @dev      Validator   \n     * @param validator  Validator\n     * @return  \n     */\n    function isValidator(address validator) external view returns (bool) {\n        return validators[validator];\n    }\n\n    /**\n     * @dev    \n     * @return  \n     */\n    function validatorCount() external view returns (uint256) {\n        return validatorAddresses.length;\n    }\n}",
  "sourcePath": "/home/errick/master/contracts/AccControl.sol",
  "compiler": {
    "name": "solc",
    "version": "0.8.20+commit.a1b79de6.Emscripten.clang"
  },
  "schemaVersion": "3.4.16",
  "updatedAt": "2025-01-30T09:52:58.633Z",
  "networkType": "ethereum",
  "devdoc": {
    "details": "   DAO  Validator   DAO-VC",
    "errors": {
      "OwnableInvalidOwner(address)": [
        {
          "details": "The owner is not a valid owner account. (eg. `address(0)`)"
        }
      ],
      "OwnableUnauthorizedAccount(address)": [
        {
          "details": "The caller account is not authorized to perform an operation."
        }
      ]
    },
    "kind": "dev",
    "methods": {
      "addDAONode(address)": {
        "details": "    DAO",
        "params": {
          "daoNode": "  DAO "
        }
      },
      "addMember(address,uint8)": {
        "details": "    ",
        "params": {
          "member": "  ",
          "role": "  "
        }
      },
      "addValidator(address)": {
        "details": " Validator ",
        "params": {
          "validator": " Validator "
        }
      },
      "constructor": {
        "details": " ",
        "params": {
          "hasherAddress": "   ",
          "initialOwner": "  "
        }
      },
      "getRole(address)": {
        "details": "   ",
        "params": {
          "member": " "
        },
        "returns": {
          "_0": " "
        }
      },
      "isDAONode(address)": {
        "details": "      DAO   ",
        "params": {
          "daoNode": "  DAO"
        },
        "returns": {
          "_0": " "
        }
      },
      "isValidator(address)": {
        "details": "     Validator   ",
        "params": {
          "validator": " Validator"
        },
        "returns": {
          "_0": " "
        }
      },
      "owner()": {
        "details": "Returns the address of the current owner."
      },
      "removeDAONode(address)": {
        "details": "    DAO",
        "params": {
          "daoNode": "  DAO"
        }
      },
      "removeMember(address)": {
        "details": "    ",
        "params": {
          "member": " "
        }
      },
      "removeValidator(address)": {
        "details": " Validator ",
        "params": {
          "validator": " Validator"
        }
      },
      "renounceOwnership()": {
        "details": "Leaves the contract without owner. It will not be possible to call `onlyOwner` functions. Can only be called by the current owner. NOTE: Renouncing ownership will leave the contract without an owner, thereby disabling any functionality that is only available to the owner."
      },
      "transferOwnership(address)": {
        "details": "Transfers ownership of the contract to a new account (`newOwner`). Can only be called by the current owner."
      },
      "validatorCount()": {
        "details": "   ",
        "returns": {
          "_0": " "
        }
      }
    },
    "title": "AccControl",
    "version": 1
  },
  "userdoc": {
    "kind": "user",
    "methods": {},
    "version": 1
  }
}