{
  "contractName": "Consensus",
  "abi": [
    {
      "inputs": [
        {
          "internalType": "address",
          "name": "_accControl",
          "type": "address"
        },
        {
          "internalType": "address",
          "name": "_hasher",
          "type": "address"
        },
        {
          "internalType": "address",
          "name": "initialOwner",
          "type": "address"
        }
      ],
      "stateMutability": "nonpayable",
      "type": "constructor"
    },
    {
      "inputs": [
        {
          "internalType": "address",
          "name": "owner",
          "type": "address"
        }
      ],
      "name": "OwnableInvalidOwner",
      "type": "error"
    },
    {
      "inputs": [
        {
          "internalType": "address",
          "name": "account",
          "type": "address"
        }
      ],
      "name": "OwnableUnauthorizedAccount",
      "type": "error"
    },
    {
      "anonymous": false,
      "inputs": [
        {
          "indexed": true,
          "internalType": "address",
          "name": "previousOwner",
          "type": "address"
        },
        {
          "indexed": true,
          "internalType": "address",
          "name": "newOwner",
          "type": "address"
        }
      ],
      "name": "OwnershipTransferred",
      "type": "event"
    },
    {
      "anonymous": false,
      "inputs": [
        {
          "indexed": true,
          "internalType": "address",
          "name": "validator",
          "type": "address"
        },
        {
          "indexed": false,
          "internalType": "uint256",
          "name": "newReputation",
          "type": "uint256"
        }
      ],
      "name": "ReputationUpdated",
      "type": "event"
    },
    {
      "anonymous": false,
      "inputs": [
        {
          "indexed": true,
          "internalType": "address",
          "name": "validator",
          "type": "address"
        },
        {
          "indexed": false,
          "internalType": "bytes32",
          "name": "transactionHash",
          "type": "bytes32"
        }
      ],
      "name": "TransactionValidated",
      "type": "event"
    },
    {
      "anonymous": false,
      "inputs": [
        {
          "indexed": true,
          "internalType": "address",
          "name": "validator",
          "type": "address"
        },
        {
          "indexed": false,
          "internalType": "uint256",
          "name": "stake",
          "type": "uint256"
        }
      ],
      "name": "ValidatorAdded",
      "type": "event"
    },
    {
      "anonymous": false,
      "inputs": [
        {
          "indexed": true,
          "internalType": "address",
          "name": "validator",
          "type": "address"
        }
      ],
      "name": "ValidatorRemoved",
      "type": "event"
    },
    {
      "inputs": [],
      "name": "accControl",
      "outputs": [
        {
          "internalType": "contract AccControl",
          "name": "",
          "type": "address"
        }
      ],
      "stateMutability": "view",
      "type": "function",
      "constant": true
    },
    {
      "inputs": [],
      "name": "hasher",
      "outputs": [
        {
          "internalType": "contract CustomHash",
          "name": "",
          "type": "address"
        }
      ],
      "stateMutability": "view",
      "type": "function",
      "constant": true
    },
    {
      "inputs": [],
      "name": "minParticipation",
      "outputs": [
        {
          "internalType": "uint256",
          "name": "",
          "type": "uint256"
        }
      ],
      "stateMutability": "view",
      "type": "function",
      "constant": true
    },
    {
      "inputs": [],
      "name": "owner",
      "outputs": [
        {
          "internalType": "address",
          "name": "",
          "type": "address"
        }
      ],
      "stateMutability": "view",
      "type": "function",
      "constant": true
    },
    {
      "inputs": [],
      "name": "renounceOwnership",
      "outputs": [],
      "stateMutability": "nonpayable",
      "type": "function"
    },
    {
      "inputs": [],
      "name": "requiredReputation",
      "outputs": [
        {
          "internalType": "uint256",
          "name": "",
          "type": "uint256"
        }
      ],
      "stateMutability": "view",
      "type": "function",
      "constant": true
    },
    {
      "inputs": [
        {
          "internalType": "address",
          "name": "newOwner",
          "type": "address"
        }
      ],
      "name": "transferOwnership",
      "outputs": [],
      "stateMutability": "nonpayable",
      "type": "function"
    },
    {
      "inputs": [
        {
          "internalType": "uint256",
          "name": "",
          "type": "uint256"
        }
      ],
      "name": "validatorList",
      "outputs": [
        {
          "internalType": "address",
          "name": "",
          "type": "address"
        }
      ],
      "stateMutability": "view",
      "type": "function",
      "constant": true
    },
    {
      "inputs": [
        {
          "internalType": "address",
          "name": "",
          "type": "address"
        }
      ],
      "name": "validators",
      "outputs": [
        {
          "internalType": "address",
          "name": "validatorAddress",
          "type": "address"
        },
        {
          "internalType": "uint256",
          "name": "stake",
          "type": "uint256"
        },
        {
          "internalType": "uint256",
          "name": "reputation",
          "type": "uint256"
        },
        {
          "internalType": "uint256",
          "name": "participationCount",
          "type": "uint256"
        },
        {
          "internalType": "bool",
          "name": "isActive",
          "type": "bool"
        }
      ],
      "stateMutability": "view",
      "type": "function",
      "constant": true
    },
    {
      "inputs": [
        {
          "internalType": "address",
          "name": "validatorAddress",
          "type": "address"
        },
        {
          "internalType": "uint256",
          "name": "stake",
          "type": "uint256"
        }
      ],
      "name": "addValidator",
      "outputs": [],
      "stateMutability": "nonpayable",
      "type": "function"
    },
    {
      "inputs": [
        {
          "internalType": "address",
          "name": "validatorAddress",
          "type": "address"
        }
      ],
      "name": "removeValidator",
      "outputs": [],
      "stateMutability": "nonpayable",
      "type": "function"
    },
    {
      "inputs": [
        {
          "internalType": "bytes32",
          "name": "transactionHash",
          "type": "bytes32"
        }
      ],
      "name": "validateTransaction",
      "outputs": [],
      "stateMutability": "nonpayable",
      "type": "function"
    }
  ],
  "bytecode": "0x6080604052600a60055560056006553480156200001b57600080fd5b5060405162001b3a38038062001b3a8339818101604052810190620000419190620003d8565b80600073ffffffffffffffffffffffffffffffffffffffff168173ffffffffffffffffffffffffffffffffffffffff1603620000b75760006040517f1e4fbdf7000000000000000000000000000000000000000000000000000000008152600401620000ae919062000445565b60405180910390fd5b620000c881620002aa60201b60201c565b50600073ffffffffffffffffffffffffffffffffffffffff168373ffffffffffffffffffffffffffffffffffffffff16036200013b576040517f08c379a00000000000000000000000000000000000000000000000000000000081526004016200013290620004c3565b60405180910390fd5b600073ffffffffffffffffffffffffffffffffffffffff168273ffffffffffffffffffffffffffffffffffffffff1603620001ad576040517f08c379a0000000000000000000000000000000000000000000000000000000008152600401620001a49062000535565b60405180910390fd5b600073ffffffffffffffffffffffffffffffffffffffff168173ffffffffffffffffffffffffffffffffffffffff16036200021f576040517f08c379a00000000000000000000000000000000000000000000000000000000081526004016200021690620005a7565b60405180910390fd5b82600160006101000a81548173ffffffffffffffffffffffffffffffffffffffff021916908373ffffffffffffffffffffffffffffffffffffffff16021790555081600260006101000a81548173ffffffffffffffffffffffffffffffffffffffff021916908373ffffffffffffffffffffffffffffffffffffffff160217905550505050620005c9565b60008060009054906101000a900473ffffffffffffffffffffffffffffffffffffffff169050816000806101000a81548173ffffffffffffffffffffffffffffffffffffffff021916908373ffffffffffffffffffffffffffffffffffffffff1602179055508173ffffffffffffffffffffffffffffffffffffffff168173ffffffffffffffffffffffffffffffffffffffff167f8be0079c531659141344cd1fd0a4f28419497f9722a3daafe3b4186f6b6457e060405160405180910390a35050565b600080fd5b600073ffffffffffffffffffffffffffffffffffffffff82169050919050565b6000620003a08262000373565b9050919050565b620003b28162000393565b8114620003be57600080fd5b50565b600081519050620003d281620003a7565b92915050565b600080600060608486031215620003f457620003f36200036e565b5b60006200040486828701620003c1565b93505060206200041786828701620003c1565b92505060406200042a86828701620003c1565b9150509250925092565b6200043f8162000393565b82525050565b60006020820190506200045c600083018462000434565b92915050565b600082825260208201905092915050565b7f496e76616c696420416363436f6e74726f6c2061646472657373000000000000600082015250565b6000620004ab601a8362000462565b9150620004b88262000473565b602082019050919050565b60006020820190508181036000830152620004de816200049c565b9050919050565b7f496e76616c696420437573746f6d486173682061646472657373000000000000600082015250565b60006200051d601a8362000462565b91506200052a82620004e5565b602082019050919050565b6000602082019050818103600083015262000550816200050e565b9050919050565b7f496e76616c6964206f776e657220616464726573730000000000000000000000600082015250565b60006200058f60158362000462565b91506200059c8262000557565b602082019050919050565b60006020820190508181036000830152620005c28162000580565b9050919050565b61156180620005d96000396000f3fe608060405234801561001057600080fd5b50600436106100b45760003560e01c8063b048e05611610071578063b048e05614610155578063cc4a37a014610185578063ed33639f146101a3578063f2fde38b146101c1578063fa52c7d8146101dd578063fc6c1f0214610211576100b4565b8063054fd2c2146100b9578063344829c8146100d7578063345c3537146100f357806340a141ff14610111578063715018a61461012d5780638da5cb5b14610137575b600080fd5b6100c161022d565b6040516100ce9190610e6e565b60405180910390f35b6100f160048036038101906100ec9190610ec4565b610233565b005b6100fb610442565b6040516101089190610f70565b60405180910390f35b61012b60048036038101906101269190610fc9565b610468565b005b61013561060f565b005b61013f610623565b60405161014c9190611005565b60405180910390f35b61016f600480360381019061016a919061104c565b61064c565b60405161017c9190611005565b60405180910390f35b61018d61068b565b60405161019a9190610e6e565b60405180910390f35b6101ab610691565b6040516101b8919061109a565b60405180910390f35b6101db60048036038101906101d69190610fc9565b6106b7565b005b6101f760048036038101906101f29190610fc9565b61073d565b6040516102089594939291906110d0565b60405180910390f35b61022b60048036038101906102269190611123565b6107a0565b005b60065481565b600360003373ffffffffffffffffffffffffffffffffffffffff1673ffffffffffffffffffffffffffffffffffffffff16815260200190815260200160002060040160009054906101000a900460ff166102c2576040517f08c379a00000000000000000000000000000000000000000000000000000000081526004016102b9906111e6565b60405180910390fd5b600554600360003373ffffffffffffffffffffffffffffffffffffffff1673ffffffffffffffffffffffffffffffffffffffff168152602001908152602001600020600201541015610349576040517f08c379a000000000000000000000000000000000000000000000000000000000815260040161034090611252565b60405180910390fd5b6000801b810361038e576040517f08c379a0000000000000000000000000000000000000000000000000000000008152600401610385906112be565b60405180910390fd5b600360003373ffffffffffffffffffffffffffffffffffffffff1673ffffffffffffffffffffffffffffffffffffffff16815260200190815260200160002060030160008154809291906103e19061130d565b91905055506103f1336001610a65565b3373ffffffffffffffffffffffffffffffffffffffff167f7ce4b19a535fd2254ba427b40380baec4c6e37343d0d3b4b714cc8748ba18579826040516104379190611364565b60405180910390a250565b600160009054906101000a900473ffffffffffffffffffffffffffffffffffffffff1681565b610470610d02565b600073ffffffffffffffffffffffffffffffffffffffff168173ffffffffffffffffffffffffffffffffffffffff16036104df576040517f08c379a00000000000000000000000000000000000000000000000000000000081526004016104d6906113cb565b60405180910390fd5b600360008273ffffffffffffffffffffffffffffffffffffffff1673ffffffffffffffffffffffffffffffffffffffff16815260200190815260200160002060040160009054906101000a900460ff1661056e576040517f08c379a000000000000000000000000000000000000000000000000000000000815260040161056590611437565b60405180910390fd5b6000600360008373ffffffffffffffffffffffffffffffffffffffff1673ffffffffffffffffffffffffffffffffffffffff16815260200190815260200160002060040160006101000a81548160ff0219169083151502179055508073ffffffffffffffffffffffffffffffffffffffff167fe1434e25d6611e0db941968fdc97811c982ac1602e951637d206f5fdda9dd8f160405160405180910390a250565b610617610d02565b6106216000610d89565b565b60008060009054906101000a900473ffffffffffffffffffffffffffffffffffffffff16905090565b6004818154811061065c57600080fd5b906000526020600020016000915054906101000a900473ffffffffffffffffffffffffffffffffffffffff1681565b60055481565b600260009054906101000a900473ffffffffffffffffffffffffffffffffffffffff1681565b6106bf610d02565b600073ffffffffffffffffffffffffffffffffffffffff168173ffffffffffffffffffffffffffffffffffffffff16036107315760006040517f1e4fbdf70000000000000000000000000000000000000000000000000000000081526004016107289190611005565b60405180910390fd5b61073a81610d89565b50565b60036020528060005260406000206000915090508060000160009054906101000a900473ffffffffffffffffffffffffffffffffffffffff16908060010154908060020154908060030154908060040160009054906101000a900460ff16905085565b6107a8610d02565b600073ffffffffffffffffffffffffffffffffffffffff168273ffffffffffffffffffffffffffffffffffffffff1603610817576040517f08c379a000000000000000000000000000000000000000000000000000000000815260040161080e906113cb565b60405180910390fd5b600360008373ffffffffffffffffffffffffffffffffffffffff1673ffffffffffffffffffffffffffffffffffffffff16815260200190815260200160002060040160009054906101000a900460ff16156108a7576040517f08c379a000000000000000000000000000000000000000000000000000000000815260040161089e906114a3565b60405180910390fd5b6040518060a001604052808373ffffffffffffffffffffffffffffffffffffffff168152602001828152602001600a81526020016000815260200160011515815250600360008473ffffffffffffffffffffffffffffffffffffffff1673ffffffffffffffffffffffffffffffffffffffff16815260200190815260200160002060008201518160000160006101000a81548173ffffffffffffffffffffffffffffffffffffffff021916908373ffffffffffffffffffffffffffffffffffffffff16021790555060208201518160010155604082015181600201556060820151816003015560808201518160040160006101000a81548160ff0219169083151502179055509050506004829080600181540180825580915050600190039060005260206000200160009091909190916101000a81548173ffffffffffffffffffffffffffffffffffffffff021916908373ffffffffffffffffffffffffffffffffffffffff1602179055508173ffffffffffffffffffffffffffffffffffffffff167f9000b209805850a65058f21361a9978cb30f1413ed555553ab52a59b440b5d9982604051610a599190610e6e565b60405180910390a25050565b600073ffffffffffffffffffffffffffffffffffffffff168273ffffffffffffffffffffffffffffffffffffffff1603610ad4576040517f08c379a0000000000000000000000000000000000000000000000000000000008152600401610acb906113cb565b60405180910390fd5b8015610b39576002600360008473ffffffffffffffffffffffffffffffffffffffff1673ffffffffffffffffffffffffffffffffffffffff1681526020019081526020016000206002016000828254610b2d91906114c3565b92505081905550610c6e565b600654600360008473ffffffffffffffffffffffffffffffffffffffff1673ffffffffffffffffffffffffffffffffffffffff168152602001908152602001600020600301541015610c6d576000600360008473ffffffffffffffffffffffffffffffffffffffff1673ffffffffffffffffffffffffffffffffffffffff1681526020019081526020016000206002015411610bd6576000610c26565b6001600360008473ffffffffffffffffffffffffffffffffffffffff1673ffffffffffffffffffffffffffffffffffffffff16815260200190815260200160002060020154610c2591906114f7565b5b600360008473ffffffffffffffffffffffffffffffffffffffff1673ffffffffffffffffffffffffffffffffffffffff168152602001908152602001600020600201819055505b5b8173ffffffffffffffffffffffffffffffffffffffff167ffc577563f1b9a0461e24abef1e1fcc0d33d3d881f20b5df6dda59de4aae2c821600360008573ffffffffffffffffffffffffffffffffffffffff1673ffffffffffffffffffffffffffffffffffffffff16815260200190815260200160002060020154604051610cf69190610e6e565b60405180910390a25050565b610d0a610e4d565b73ffffffffffffffffffffffffffffffffffffffff16610d28610623565b73ffffffffffffffffffffffffffffffffffffffff1614610d8757610d4b610e4d565b6040517f118cdaa7000000000000000000000000000000000000000000000000000000008152600401610d7e9190611005565b60405180910390fd5b565b60008060009054906101000a900473ffffffffffffffffffffffffffffffffffffffff169050816000806101000a81548173ffffffffffffffffffffffffffffffffffffffff021916908373ffffffffffffffffffffffffffffffffffffffff1602179055508173ffffffffffffffffffffffffffffffffffffffff168173ffffffffffffffffffffffffffffffffffffffff167f8be0079c531659141344cd1fd0a4f28419497f9722a3daafe3b4186f6b6457e060405160405180910390a35050565b600033905090565b6000819050919050565b610e6881610e55565b82525050565b6000602082019050610e836000830184610e5f565b92915050565b600080fd5b6000819050919050565b610ea181610e8e565b8114610eac57600080fd5b50565b600081359050610ebe81610e98565b92915050565b600060208284031215610eda57610ed9610e89565b5b6000610ee884828501610eaf565b91505092915050565b600073ffffffffffffffffffffffffffffffffffffffff82169050919050565b6000819050919050565b6000610f36610f31610f2c84610ef1565b610f11565b610ef1565b9050919050565b6000610f4882610f1b565b9050919050565b6000610f5a82610f3d565b9050919050565b610f6a81610f4f565b82525050565b6000602082019050610f856000830184610f61565b92915050565b6000610f9682610ef1565b9050919050565b610fa681610f8b565b8114610fb157600080fd5b50565b600081359050610fc381610f9d565b92915050565b600060208284031215610fdf57610fde610e89565b5b6000610fed84828501610fb4565b91505092915050565b610fff81610f8b565b82525050565b600060208201905061101a6000830184610ff6565b92915050565b61102981610e55565b811461103457600080fd5b50565b60008135905061104681611020565b92915050565b60006020828403121561106257611061610e89565b5b600061107084828501611037565b91505092915050565b600061108482610f3d565b9050919050565b61109481611079565b82525050565b60006020820190506110af600083018461108b565b92915050565b60008115159050919050565b6110ca816110b5565b82525050565b600060a0820190506110e56000830188610ff6565b6110f26020830187610e5f565b6110ff6040830186610e5f565b61110c6060830185610e5f565b61111960808301846110c1565b9695505050505050565b6000806040838503121561113a57611139610e89565b5b600061114885828601610fb4565b925050602061115985828601611037565b9150509250929050565b600082825260208201905092915050565b7f4f6e6c79206163746976652076616c696461746f72732063616e20706572666f60008201527f726d207468697320616374696f6e000000000000000000000000000000000000602082015250565b60006111d0602e83611163565b91506111db82611174565b604082019050919050565b600060208201905081810360008301526111ff816111c3565b9050919050565b7f56616c696461746f722072657075746174696f6e20746f6f206c6f7700000000600082015250565b600061123c601c83611163565b915061124782611206565b602082019050919050565b6000602082019050818103600083015261126b8161122f565b9050919050565b7f496e76616c6964207472616e73616374696f6e20686173680000000000000000600082015250565b60006112a8601883611163565b91506112b382611272565b602082019050919050565b600060208201905081810360008301526112d78161129b565b9050919050565b7f4e487b7100000000000000000000000000000000000000000000000000000000600052601160045260246000fd5b600061131882610e55565b91507fffffffffffffffffffffffffffffffffffffffffffffffffffffffffffffffff820361134a576113496112de565b5b600182019050919050565b61135e81610e8e565b82525050565b60006020820190506113796000830184611355565b92915050565b7f496e76616c69642076616c696461746f72206164647265737300000000000000600082015250565b60006113b5601983611163565b91506113c08261137f565b602082019050919050565b600060208201905081810360008301526113e4816113a8565b9050919050565b7f56616c696461746f72206e6f7420666f756e6400000000000000000000000000600082015250565b6000611421601383611163565b915061142c826113eb565b602082019050919050565b6000602082019050818103600083015261145081611414565b9050919050565b7f56616c696461746f7220616c7265616479206578697374730000000000000000600082015250565b600061148d601883611163565b915061149882611457565b602082019050919050565b600060208201905081810360008301526114bc81611480565b9050919050565b60006114ce82610e55565b91506114d983610e55565b92508282019050808211156114f1576114f06112de565b5b92915050565b600061150282610e55565b915061150d83610e55565b9250828203905081811115611525576115246112de565b5b9291505056fea2646970667358221220d65fe99daf5962016fec8255ca06b9077d91fea81fb2890ba65a6d0837984d2f64736f6c63430008140033",
  "immutableReferences": {},
  "source": "// SPDX-License-Identifier: MIT\npragma solidity ^0.8.20;\n\nimport \"@openzeppelin/contracts/access/Ownable.sol\"; //    Ownable  OpenZeppelin\nimport \"./AccControl.sol\"; //    AccControl   \nimport \"./CustomHash.sol\"; //     \n\n/**\n * @title Consensus\n * @dev      PoA + dPoS + PoP + AI\n */\ncontract Consensus is Ownable {\n    AccControl public accControl; //       AccControl\n    CustomHash public hasher; //        \n\n    //  Validator           \n    struct Validator {\n        address validatorAddress;\n        uint256 stake;\n        uint256 reputation;\n        uint256 participationCount;\n        bool isActive;\n    }\n\n    //    Validator\n    mapping(address => Validator) public validators;\n    address[] public validatorList; //   Validator\n    uint256 public requiredReputation = 10; //     Validator\n    uint256 public minParticipation = 5; //      \n\n    //      \n    event ValidatorAdded(address indexed validator, uint256 stake);\n    event ValidatorRemoved(address indexed validator);\n    event TransactionValidated(address indexed validator, bytes32 transactionHash);\n    event ReputationUpdated(address indexed validator, uint256 newReputation);\n\n    /**\n     * @dev  \n     * @param _accControl   AccControl\n     * @param _hasher    \n     * @param initialOwner   \n     */\n    constructor(address _accControl, address _hasher, address initialOwner) Ownable(initialOwner) {\n        require(_accControl != address(0), \"Invalid AccControl address\");\n        require(_hasher != address(0), \"Invalid CustomHash address\");\n        require(initialOwner != address(0), \"Invalid owner address\");\n        \n        accControl = AccControl(_accControl);\n        hasher = CustomHash(_hasher);\n    }\n\n    /**\n     * @dev Modifier      Validator     \n     */\n    modifier onlyValidator() {\n        require(validators[msg.sender].isActive, \"Only active validators can perform this action\");\n        require(validators[msg.sender].reputation >= requiredReputation, \"Validator reputation too low\");\n        _;\n    }\n\n    /**\n     * @dev  Validator   \n     * @param validatorAddress  Validator \n     * @param stake   Validator\n     */\n    function addValidator(address validatorAddress, uint256 stake) external onlyOwner {\n        require(validatorAddress != address(0), \"Invalid validator address\");\n        require(!validators[validatorAddress].isActive, \"Validator already exists\");\n        validators[validatorAddress] = Validator(validatorAddress, stake, 10, 0, true);\n        validatorList.push(validatorAddress);\n        emit ValidatorAdded(validatorAddress, stake);\n    }\n\n    /**\n     * @dev  Validator   \n     * @param validatorAddress  Validator\n     */\n    function removeValidator(address validatorAddress) external onlyOwner {\n        require(validatorAddress != address(0), \"Invalid validator address\");\n        require(validators[validatorAddress].isActive, \"Validator not found\");\n        validators[validatorAddress].isActive = false;\n        emit ValidatorRemoved(validatorAddress);\n    }\n\n    /**\n     * @dev    Validator\n     * @param transactionHash  \n     */\n    function validateTransaction(bytes32 transactionHash) external onlyValidator {\n        require(transactionHash != bytes32(0), \"Invalid transaction hash\");\n        validators[msg.sender].participationCount++;\n        adjustReputation(msg.sender, true);\n        emit TransactionValidated(msg.sender, transactionHash);\n    }\n\n    /**\n     * @dev   Validator   \n     * @param validator  Validator\n     * @param participated   Validator\n     */\n    function adjustReputation(address validator, bool participated) internal {\n        require(validator != address(0), \"Invalid validator address\");\n        if (participated) {\n            validators[validator].reputation += 2;\n        } else if (validators[validator].participationCount < minParticipation) {\n            validators[validator].reputation = validators[validator].reputation > 0 ? validators[validator].reputation - 1 : 0;\n        }\n        emit ReputationUpdated(validator, validators[validator].reputation);\n    }\n}",
  "sourcePath": "/home/errick/master/contracts/Consensus.sol",
  "compiler": {
    "name": "solc",
    "version": "0.8.20+commit.a1b79de6.Emscripten.clang"
  },
  "schemaVersion": "3.4.16",
  "updatedAt": "2025-01-30T09:52:58.764Z",
  "networkType": "ethereum",
  "devdoc": {
    "details": "     PoA + dPoS + PoP + AI",
    "errors": {
      "OwnableInvalidOwner(address)": [
        {
          "details": "The owner is not a valid owner account. (eg. `address(0)`)"
        }
      ],
      "OwnableUnauthorizedAccount(address)": [
        {
          "details": "The caller account is not authorized to perform an operation."
        }
      ]
    },
    "kind": "dev",
    "methods": {
      "addValidator(address,uint256)": {
        "details": " Validator   ",
        "params": {
          "stake": "  Validator",
          "validatorAddress": " Validator "
        }
      },
      "constructor": {
        "details": " ",
        "params": {
          "_accControl": "  AccControl",
          "_hasher": "   ",
          "initialOwner": "  "
        }
      },
      "owner()": {
        "details": "Returns the address of the current owner."
      },
      "removeValidator(address)": {
        "details": " Validator   ",
        "params": {
          "validatorAddress": " Validator"
        }
      },
      "renounceOwnership()": {
        "details": "Leaves the contract without owner. It will not be possible to call `onlyOwner` functions. Can only be called by the current owner. NOTE: Renouncing ownership will leave the contract without an owner, thereby disabling any functionality that is only available to the owner."
      },
      "transferOwnership(address)": {
        "details": "Transfers ownership of the contract to a new account (`newOwner`). Can only be called by the current owner."
      },
      "validateTransaction(bytes32)": {
        "details": "   Validator",
        "params": {
          "transactionHash": " "
        }
      }
    },
    "title": "Consensus",
    "version": 1
  },
  "userdoc": {
    "kind": "user",
    "methods": {},
    "version": 1
  }
}