{
  "contractName": "CustomHash",
  "abi": [
    {
      "inputs": [
        {
          "internalType": "bytes",
          "name": "data",
          "type": "bytes"
        },
        {
          "internalType": "bytes32",
          "name": "salt",
          "type": "bytes32"
        }
      ],
      "name": "customHash",
      "outputs": [
        {
          "internalType": "bytes32",
          "name": "",
          "type": "bytes32"
        }
      ],
      "stateMutability": "pure",
      "type": "function",
      "constant": true
    }
  ],
  "bytecode": "0x608060405234801561001057600080fd5b50610472806100206000396000f3fe608060405234801561001057600080fd5b506004361061002b5760003560e01c8063423a969f14610030575b600080fd5b61004a6004803603810190610045919061027c565b610060565b60405161005791906102e7565b60405180910390f35b6000808383604051602001610076929190610394565b604051602081830303815290604052905060008180519060200120905060005b60048160ff1610156100de57816040516020016100b391906103bc565b60405160208183030381529060405280519060200120915080806100d690610413565b915050610096565b508381189250505092915050565b6000604051905090565b600080fd5b600080fd5b600080fd5b600080fd5b6000601f19601f8301169050919050565b7f4e487b7100000000000000000000000000000000000000000000000000000000600052604160045260246000fd5b6101538261010a565b810181811067ffffffffffffffff821117156101725761017161011b565b5b80604052505050565b60006101856100ec565b9050610191828261014a565b919050565b600067ffffffffffffffff8211156101b1576101b061011b565b5b6101ba8261010a565b9050602081019050919050565b82818337600083830152505050565b60006101e96101e484610196565b61017b565b90508281526020810184848401111561020557610204610105565b5b6102108482856101c7565b509392505050565b600082601f83011261022d5761022c610100565b5b813561023d8482602086016101d6565b91505092915050565b6000819050919050565b61025981610246565b811461026457600080fd5b50565b60008135905061027681610250565b92915050565b60008060408385031215610293576102926100f6565b5b600083013567ffffffffffffffff8111156102b1576102b06100fb565b5b6102bd85828601610218565b92505060206102ce85828601610267565b9150509250929050565b6102e181610246565b82525050565b60006020820190506102fc60008301846102d8565b92915050565b600081519050919050565b600081905092915050565b60005b8381101561033657808201518184015260208101905061031b565b60008484015250505050565b600061034d82610302565b610357818561030d565b9350610367818560208601610318565b80840191505092915050565b6000819050919050565b61038e61038982610246565b610373565b82525050565b60006103a08285610342565b91506103ac828461037d565b6020820191508190509392505050565b60006103c8828461037d565b60208201915081905092915050565b7f4e487b7100000000000000000000000000000000000000000000000000000000600052601160045260246000fd5b600060ff82169050919050565b600061041e82610406565b915060ff8203610431576104306103d7565b5b60018201905091905056fea2646970667358221220accf1c260abc9cb74e10cd5e29916e303ec32d05681dfa48979e194eed891f8c64736f6c63430008140033",
  "immutableReferences": {},
  "source": "// SPDX-License-Identifier: MIT\npragma solidity ^0.8.20;\n\n/**\n * @title CustomHash\n * @dev      \n */\ncontract CustomHash {\n\n    /**\n     * @dev   \n     * @param data     \n     * @param salt  Salt    \n     * @return     bytes32\n     */\n    function customHash(bytes memory data, bytes32 salt) public pure returns (bytes32) {\n        //     salt\n        bytes memory saltedData = abi.encodePacked(data, salt);\n\n        //    Keccak256\n        bytes32 hashed = keccak256(saltedData);\n        for (uint8 i = 0; i < 4; i++) {\n            hashed = keccak256(abi.encodePacked(hashed));\n        }\n\n        //     salt   XOR\n        return hashed ^ salt;\n    }\n}\n",
  "sourcePath": "/home/errick/master/contracts/CustomHash.sol",
  "compiler": {
    "name": "solc",
    "version": "0.8.20+commit.a1b79de6.Emscripten.clang"
  },
  "schemaVersion": "3.4.16",
  "updatedAt": "2025-01-30T09:52:58.961Z",
  "networkType": "ethereum",
  "devdoc": {
    "details": "     ",
    "kind": "dev",
    "methods": {
      "customHash(bytes,bytes32)": {
        "details": "  ",
        "params": {
          "data": "    ",
          "salt": " Salt    "
        },
        "returns": {
          "_0": "    bytes32"
        }
      }
    },
    "title": "CustomHash",
    "version": 1
  },
  "userdoc": {
    "kind": "user",
    "methods": {},
    "version": 1
  }
}