{
  "contractName": "DAO",
  "abi": [
    {
      "inputs": [
        {
          "internalType": "address",
          "name": "initialOwner",
          "type": "address"
        },
        {
          "internalType": "address",
          "name": "_tokenAddress",
          "type": "address"
        },
        {
          "internalType": "uint256",
          "name": "_votingThreshold",
          "type": "uint256"
        }
      ],
      "stateMutability": "nonpayable",
      "type": "constructor"
    },
    {
      "inputs": [
        {
          "internalType": "address",
          "name": "owner",
          "type": "address"
        }
      ],
      "name": "OwnableInvalidOwner",
      "type": "error"
    },
    {
      "inputs": [
        {
          "internalType": "address",
          "name": "account",
          "type": "address"
        }
      ],
      "name": "OwnableUnauthorizedAccount",
      "type": "error"
    },
    {
      "anonymous": false,
      "inputs": [
        {
          "indexed": true,
          "internalType": "address",
          "name": "previousOwner",
          "type": "address"
        },
        {
          "indexed": true,
          "internalType": "address",
          "name": "newOwner",
          "type": "address"
        }
      ],
      "name": "OwnershipTransferred",
      "type": "event"
    },
    {
      "anonymous": false,
      "inputs": [
        {
          "indexed": false,
          "internalType": "uint256",
          "name": "proposalId",
          "type": "uint256"
        },
        {
          "indexed": false,
          "internalType": "string",
          "name": "description",
          "type": "string"
        },
        {
          "indexed": false,
          "internalType": "uint256",
          "name": "deadline",
          "type": "uint256"
        }
      ],
      "name": "ProposalCreated",
      "type": "event"
    },
    {
      "anonymous": false,
      "inputs": [
        {
          "indexed": false,
          "internalType": "uint256",
          "name": "proposalId",
          "type": "uint256"
        },
        {
          "indexed": false,
          "internalType": "bool",
          "name": "success",
          "type": "bool"
        }
      ],
      "name": "ProposalExecuted",
      "type": "event"
    },
    {
      "anonymous": false,
      "inputs": [
        {
          "indexed": true,
          "internalType": "address",
          "name": "voter",
          "type": "address"
        },
        {
          "indexed": false,
          "internalType": "uint256",
          "name": "proposalId",
          "type": "uint256"
        },
        {
          "indexed": false,
          "internalType": "bool",
          "name": "support",
          "type": "bool"
        }
      ],
      "name": "VoteCast",
      "type": "event"
    },
    {
      "inputs": [],
      "name": "owner",
      "outputs": [
        {
          "internalType": "address",
          "name": "",
          "type": "address"
        }
      ],
      "stateMutability": "view",
      "type": "function",
      "constant": true
    },
    {
      "inputs": [],
      "name": "proposalCount",
      "outputs": [
        {
          "internalType": "uint256",
          "name": "",
          "type": "uint256"
        }
      ],
      "stateMutability": "view",
      "type": "function",
      "constant": true
    },
    {
      "inputs": [],
      "name": "renounceOwnership",
      "outputs": [],
      "stateMutability": "nonpayable",
      "type": "function"
    },
    {
      "inputs": [],
      "name": "tokenAddress",
      "outputs": [
        {
          "internalType": "address",
          "name": "",
          "type": "address"
        }
      ],
      "stateMutability": "view",
      "type": "function",
      "constant": true
    },
    {
      "inputs": [
        {
          "internalType": "address",
          "name": "newOwner",
          "type": "address"
        }
      ],
      "name": "transferOwnership",
      "outputs": [],
      "stateMutability": "nonpayable",
      "type": "function"
    },
    {
      "inputs": [],
      "name": "votingThreshold",
      "outputs": [
        {
          "internalType": "uint256",
          "name": "",
          "type": "uint256"
        }
      ],
      "stateMutability": "view",
      "type": "function",
      "constant": true
    },
    {
      "inputs": [
        {
          "internalType": "string",
          "name": "description",
          "type": "string"
        },
        {
          "internalType": "uint256",
          "name": "duration",
          "type": "uint256"
        }
      ],
      "name": "createProposal",
      "outputs": [],
      "stateMutability": "nonpayable",
      "type": "function"
    },
    {
      "inputs": [
        {
          "internalType": "uint256",
          "name": "proposalId",
          "type": "uint256"
        },
        {
          "internalType": "bool",
          "name": "support",
          "type": "bool"
        }
      ],
      "name": "vote",
      "outputs": [],
      "stateMutability": "nonpayable",
      "type": "function"
    },
    {
      "inputs": [
        {
          "internalType": "uint256",
          "name": "proposalId",
          "type": "uint256"
        }
      ],
      "name": "executeProposal",
      "outputs": [],
      "stateMutability": "nonpayable",
      "type": "function"
    },
    {
      "inputs": [
        {
          "internalType": "uint256",
          "name": "newThreshold",
          "type": "uint256"
        }
      ],
      "name": "updateVotingThreshold",
      "outputs": [],
      "stateMutability": "nonpayable",
      "type": "function"
    },
    {
      "inputs": [
        {
          "internalType": "uint256",
          "name": "proposalId",
          "type": "uint256"
        }
      ],
      "name": "getProposal",
      "outputs": [
        {
          "internalType": "string",
          "name": "description",
          "type": "string"
        },
        {
          "internalType": "uint256",
          "name": "deadline",
          "type": "uint256"
        },
        {
          "internalType": "uint256",
          "name": "votesFor",
          "type": "uint256"
        },
        {
          "internalType": "uint256",
          "name": "votesAgainst",
          "type": "uint256"
        },
        {
          "internalType": "bool",
          "name": "executed",
          "type": "bool"
        }
      ],
      "stateMutability": "view",
      "type": "function",
      "constant": true
    }
  ],
  "bytecode": "0x60806040523480156200001157600080fd5b5060405162001b7338038062001b73833981810160405281019062000037919062000331565b82600073ffffffffffffffffffffffffffffffffffffffff168173ffffffffffffffffffffffffffffffffffffffff1603620000ad5760006040517f1e4fbdf7000000000000000000000000000000000000000000000000000000008152600401620000a491906200039e565b60405180910390fd5b620000be81620001c860201b60201c565b50600073ffffffffffffffffffffffffffffffffffffffff168273ffffffffffffffffffffffffffffffffffffffff160362000131576040517f08c379a000000000000000000000000000000000000000000000000000000000815260040162000128906200041c565b60405180910390fd5b6000811162000177576040517f08c379a00000000000000000000000000000000000000000000000000000000081526004016200016e90620004b4565b60405180910390fd5b81600360006101000a81548173ffffffffffffffffffffffffffffffffffffffff021916908373ffffffffffffffffffffffffffffffffffffffff16021790555080600481905550505050620004d6565b60008060009054906101000a900473ffffffffffffffffffffffffffffffffffffffff169050816000806101000a81548173ffffffffffffffffffffffffffffffffffffffff021916908373ffffffffffffffffffffffffffffffffffffffff1602179055508173ffffffffffffffffffffffffffffffffffffffff168173ffffffffffffffffffffffffffffffffffffffff167f8be0079c531659141344cd1fd0a4f28419497f9722a3daafe3b4186f6b6457e060405160405180910390a35050565b600080fd5b600073ffffffffffffffffffffffffffffffffffffffff82169050919050565b6000620002be8262000291565b9050919050565b620002d081620002b1565b8114620002dc57600080fd5b50565b600081519050620002f081620002c5565b92915050565b6000819050919050565b6200030b81620002f6565b81146200031757600080fd5b50565b6000815190506200032b8162000300565b92915050565b6000806000606084860312156200034d576200034c6200028c565b5b60006200035d86828701620002df565b93505060206200037086828701620002df565b925050604062000383868287016200031a565b9150509250925092565b6200039881620002b1565b82525050565b6000602082019050620003b560008301846200038d565b92915050565b600082825260208201905092915050565b7f496e76616c696420746f6b656e20616464726573730000000000000000000000600082015250565b600062000404601583620003bb565b91506200041182620003cc565b602082019050919050565b600060208201905081810360008301526200043781620003f5565b9050919050565b7f566f74696e67207468726573686f6c64206d757374206265206772656174657260008201527f207468616e207a65726f00000000000000000000000000000000000000000000602082015250565b60006200049c602a83620003bb565b9150620004a9826200043e565b604082019050919050565b60006020820190508181036000830152620004cf816200048d565b9050919050565b61168d80620004e66000396000f3fe608060405234801561001057600080fd5b50600436106100a95760003560e01c80638da5cb5b116100715780638da5cb5b1461012a5780639d76ea5814610148578063c7f758a814610166578063c9d27afe1461019a578063da35c664146101b6578063f2fde38b146101d4576100a9565b80630d61b519146100ae57806335facf78146100ca57806362827733146100e65780636e3cfd4214610104578063715018a614610120575b600080fd5b6100c860048036038101906100c39190610ad7565b6101f0565b005b6100e460048036038101906100df9190610c4a565b610311565b005b6100ee61043e565b6040516100fb9190610cb5565b60405180910390f35b61011e60048036038101906101199190610ad7565b610444565b005b610128610499565b005b6101326104ad565b60405161013f9190610d11565b60405180910390f35b6101506104d6565b60405161015d9190610d11565b60405180910390f35b610180600480360381019061017b9190610ad7565b6104fc565b604051610191959493929190610dc6565b60405180910390f35b6101b460048036038101906101af9190610e4c565b6105e0565b005b6101be610809565b6040516101cb9190610cb5565b60405180910390f35b6101ee60048036038101906101e99190610eb8565b61080f565b005b6101f8610895565b600060016000838152602001908152602001600020905080600101544211610255576040517f08c379a000000000000000000000000000000000000000000000000000000000815260040161024c90610f31565b60405180910390fd5b8060040160009054906101000a900460ff16156102a7576040517f08c379a000000000000000000000000000000000000000000000000000000000815260040161029e90610f9d565b60405180910390fd5b60018160040160006101000a81548160ff0219169083151502179055506000816003015482600201541190507f948f4a9cd986f1118c3fbd459f7a22b23c0693e1ca3ef06a6a8be5aa7d39cc038382604051610304929190610fbd565b60405180910390a1505050565b60045461031d3361091c565b101561035e576040517f08c379a000000000000000000000000000000000000000000000000000000000815260040161035590611032565b60405180910390fd5b600081116103a1576040517f08c379a0000000000000000000000000000000000000000000000000000000008152600401610398906110c4565b60405180910390fd5b60006001600060025481526020019081526020016000209050828160000190816103cb91906112f0565b5081426103d891906113f1565b81600101819055507ff5dc0da9afa6d080780a49fd8c680f03d2ddf3c067cd6d0c85360c096644d2d360025484836001015460405161041993929190611425565b60405180910390a16002600081548092919061043490611463565b9190505550505050565b60045481565b61044c610895565b6000811161048f576040517f08c379a00000000000000000000000000000000000000000000000000000000081526004016104869061151d565b60405180910390fd5b8060048190555050565b6104a1610895565b6104ab60006109c1565b565b60008060009054906101000a900473ffffffffffffffffffffffffffffffffffffffff16905090565b600360009054906101000a900473ffffffffffffffffffffffffffffffffffffffff1681565b60606000806000806000600160008881526020019081526020016000209050806000018160010154826002015483600301548460040160009054906101000a900460ff1684805461054c90611113565b80601f016020809104026020016040519081016040528092919081815260200182805461057890611113565b80156105c55780601f1061059a576101008083540402835291602001916105c5565b820191906000526020600020905b8154815290600101906020018083116105a857829003601f168201915b50505050509450955095509550955095505091939590929450565b6004546105ec3361091c565b101561062d576040517f08c379a000000000000000000000000000000000000000000000000000000000815260040161062490611032565b60405180910390fd5b6000600160008481526020019081526020016000209050806001015442111561068b576040517f08c379a000000000000000000000000000000000000000000000000000000000815260040161068290611589565b60405180910390fd5b8060050160003373ffffffffffffffffffffffffffffffffffffffff1673ffffffffffffffffffffffffffffffffffffffff16815260200190815260200160002060009054906101000a900460ff161561071a576040517f08c379a0000000000000000000000000000000000000000000000000000000008152600401610711906115f5565b60405180910390fd5b811561073f5780600201600081548092919061073590611463565b919050555061075a565b80600301600081548092919061075490611463565b91905055505b60018160050160003373ffffffffffffffffffffffffffffffffffffffff1673ffffffffffffffffffffffffffffffffffffffff16815260200190815260200160002060006101000a81548160ff0219169083151502179055503373ffffffffffffffffffffffffffffffffffffffff167fd356173ae8eeea8691aee4c1be712c314a975a3d43ebc48b08ca54d0dac9122884846040516107fc929190610fbd565b60405180910390a2505050565b60025481565b610817610895565b600073ffffffffffffffffffffffffffffffffffffffff168173ffffffffffffffffffffffffffffffffffffffff16036108895760006040517f1e4fbdf70000000000000000000000000000000000000000000000000000000081526004016108809190610d11565b60405180910390fd5b610892816109c1565b50565b61089d610a85565b73ffffffffffffffffffffffffffffffffffffffff166108bb6104ad565b73ffffffffffffffffffffffffffffffffffffffff161461091a576108de610a85565b6040517f118cdaa70000000000000000000000000000000000000000000000000000000081526004016109119190610d11565b60405180910390fd5b565b6000600360009054906101000a900473ffffffffffffffffffffffffffffffffffffffff1673ffffffffffffffffffffffffffffffffffffffff166370a08231836040518263ffffffff1660e01b81526004016109799190610d11565b602060405180830381865afa158015610996573d6000803e3d6000fd5b505050506040513d601f19601f820116820180604052508101906109ba919061162a565b9050919050565b60008060009054906101000a900473ffffffffffffffffffffffffffffffffffffffff169050816000806101000a81548173ffffffffffffffffffffffffffffffffffffffff021916908373ffffffffffffffffffffffffffffffffffffffff1602179055508173ffffffffffffffffffffffffffffffffffffffff168173ffffffffffffffffffffffffffffffffffffffff167f8be0079c531659141344cd1fd0a4f28419497f9722a3daafe3b4186f6b6457e060405160405180910390a35050565b600033905090565b6000604051905090565b600080fd5b600080fd5b6000819050919050565b610ab481610aa1565b8114610abf57600080fd5b50565b600081359050610ad181610aab565b92915050565b600060208284031215610aed57610aec610a97565b5b6000610afb84828501610ac2565b91505092915050565b600080fd5b600080fd5b6000601f19601f8301169050919050565b7f4e487b7100000000000000000000000000000000000000000000000000000000600052604160045260246000fd5b610b5782610b0e565b810181811067ffffffffffffffff82111715610b7657610b75610b1f565b5b80604052505050565b6000610b89610a8d565b9050610b958282610b4e565b919050565b600067ffffffffffffffff821115610bb557610bb4610b1f565b5b610bbe82610b0e565b9050602081019050919050565b82818337600083830152505050565b6000610bed610be884610b9a565b610b7f565b905082815260208101848484011115610c0957610c08610b09565b5b610c14848285610bcb565b509392505050565b600082601f830112610c3157610c30610b04565b5b8135610c41848260208601610bda565b91505092915050565b60008060408385031215610c6157610c60610a97565b5b600083013567ffffffffffffffff811115610c7f57610c7e610a9c565b5b610c8b85828601610c1c565b9250506020610c9c85828601610ac2565b9150509250929050565b610caf81610aa1565b82525050565b6000602082019050610cca6000830184610ca6565b92915050565b600073ffffffffffffffffffffffffffffffffffffffff82169050919050565b6000610cfb82610cd0565b9050919050565b610d0b81610cf0565b82525050565b6000602082019050610d266000830184610d02565b92915050565b600081519050919050565b600082825260208201905092915050565b60005b83811015610d66578082015181840152602081019050610d4b565b60008484015250505050565b6000610d7d82610d2c565b610d878185610d37565b9350610d97818560208601610d48565b610da081610b0e565b840191505092915050565b60008115159050919050565b610dc081610dab565b82525050565b600060a0820190508181036000830152610de08188610d72565b9050610def6020830187610ca6565b610dfc6040830186610ca6565b610e096060830185610ca6565b610e166080830184610db7565b9695505050505050565b610e2981610dab565b8114610e3457600080fd5b50565b600081359050610e4681610e20565b92915050565b60008060408385031215610e6357610e62610a97565b5b6000610e7185828601610ac2565b9250506020610e8285828601610e37565b9150509250929050565b610e9581610cf0565b8114610ea057600080fd5b50565b600081359050610eb281610e8c565b92915050565b600060208284031215610ece57610ecd610a97565b5b6000610edc84828501610ea3565b91505092915050565b7f566f74696e6720706572696f6420686173206e6f7420656e6465640000000000600082015250565b6000610f1b601b83610d37565b9150610f2682610ee5565b602082019050919050565b60006020820190508181036000830152610f4a81610f0e565b9050919050565b7f50726f706f73616c20616c726561647920657865637574656400000000000000600082015250565b6000610f87601983610d37565b9150610f9282610f51565b602082019050919050565b60006020820190508181036000830152610fb681610f7a565b9050919050565b6000604082019050610fd26000830185610ca6565b610fdf6020830184610db7565b9392505050565b7f4e6f7420656e6f75676820746f6b656e7320746f207061727469636970617465600082015250565b600061101c602083610d37565b915061102782610fe6565b602082019050919050565b6000602082019050818103600083015261104b8161100f565b9050919050565b7f4475726174696f6e206d7573742062652067726561746572207468616e207a6560008201527f726f000000000000000000000000000000000000000000000000000000000000602082015250565b60006110ae602283610d37565b91506110b982611052565b604082019050919050565b600060208201905081810360008301526110dd816110a1565b9050919050565b7f4e487b7100000000000000000000000000000000000000000000000000000000600052602260045260246000fd5b6000600282049050600182168061112b57607f821691505b60208210810361113e5761113d6110e4565b5b50919050565b60008190508160005260206000209050919050565b60006020601f8301049050919050565b600082821b905092915050565b6000600883026111a67fffffffffffffffffffffffffffffffffffffffffffffffffffffffffffffffff82611169565b6111b08683611169565b95508019841693508086168417925050509392505050565b6000819050919050565b60006111ed6111e86111e384610aa1565b6111c8565b610aa1565b9050919050565b6000819050919050565b611207836111d2565b61121b611213826111f4565b848454611176565b825550505050565b600090565b611230611223565b61123b8184846111fe565b505050565b5b8181101561125f57611254600082611228565b600181019050611241565b5050565b601f8211156112a45761127581611144565b61127e84611159565b8101602085101561128d578190505b6112a161129985611159565b830182611240565b50505b505050565b600082821c905092915050565b60006112c7600019846008026112a9565b1980831691505092915050565b60006112e083836112b6565b9150826002028217905092915050565b6112f982610d2c565b67ffffffffffffffff81111561131257611311610b1f565b5b61131c8254611113565b611327828285611263565b600060209050601f83116001811461135a5760008415611348578287015190505b61135285826112d4565b8655506113ba565b601f19841661136886611144565b60005b828110156113905784890151825560018201915060208501945060208101905061136b565b868310156113ad57848901516113a9601f8916826112b6565b8355505b6001600288020188555050505b505050505050565b7f4e487b7100000000000000000000000000000000000000000000000000000000600052601160045260246000fd5b60006113fc82610aa1565b915061140783610aa1565b925082820190508082111561141f5761141e6113c2565b5b92915050565b600060608201905061143a6000830186610ca6565b818103602083015261144c8185610d72565b905061145b6040830184610ca6565b949350505050565b600061146e82610aa1565b91507fffffffffffffffffffffffffffffffffffffffffffffffffffffffffffffffff82036114a05761149f6113c2565b5b600182019050919050565b7f5468726573686f6c64206d7573742062652067726561746572207468616e207a60008201527f65726f0000000000000000000000000000000000000000000000000000000000602082015250565b6000611507602383610d37565b9150611512826114ab565b604082019050919050565b60006020820190508181036000830152611536816114fa565b9050919050565b7f566f74696e6720706572696f642068617320656e646564000000000000000000600082015250565b6000611573601783610d37565b915061157e8261153d565b602082019050919050565b600060208201905081810360008301526115a281611566565b9050919050565b7f596f75206861766520616c726561647920766f74656400000000000000000000600082015250565b60006115df601683610d37565b91506115ea826115a9565b602082019050919050565b6000602082019050818103600083015261160e816115d2565b9050919050565b60008151905061162481610aab565b92915050565b6000602082840312156116405761163f610a97565b5b600061164e84828501611615565b9150509291505056fea26469706673582212204c1c0746069b17d3f3e393031cd7f5497921465991967d1bd4cb9a18ff08f1fc64736f6c63430008140033",
  "immutableReferences": {},
  "source": "// SPDX-License-Identifier: MIT\npragma solidity ^0.8.20;\n\nimport \"@openzeppelin/contracts/access/Ownable.sol\"; //    Ownable  OpenZeppelin\nimport \"@openzeppelin/contracts/token/ERC20/IERC20.sol\"; //    IERC20     ERC20\n\n/**\n * @title DAO\n * @dev       (DAO)\n */\ncontract DAO is Ownable {\n    struct Proposal {\n        string description; //  \n        uint256 deadline; //  \n        uint256 votesFor; //   \n        uint256 votesAgainst; //   \n        bool executed; //   \n        mapping(address => bool) hasVoted; //        \n    }\n\n    mapping(uint256 => Proposal) private proposals; //    \n    uint256 public proposalCount; //    \n    address public tokenAddress; //   \n    uint256 public votingThreshold; //       \n\n    //      \n    event ProposalCreated(uint256 proposalId, string description, uint256 deadline);\n    event VoteCast(address indexed voter, uint256 proposalId, bool support);\n    event ProposalExecuted(uint256 proposalId, bool success);\n\n    /**\n     * @dev  \n     * @param initialOwner   \n     * @param _tokenAddress   \n     * @param _votingThreshold       \n     */\n    constructor(address initialOwner, address _tokenAddress, uint256 _votingThreshold) Ownable(initialOwner) {\n        require(_tokenAddress != address(0), \"Invalid token address\");\n        require(_votingThreshold > 0, \"Voting threshold must be greater than zero\");\n\n        tokenAddress = _tokenAddress;\n        votingThreshold = _votingThreshold;\n    }\n\n    /**\n     * @dev Modifier           \n     */\n    modifier onlyTokenHolders() {\n        require(balanceOf(msg.sender) >= votingThreshold, \"Not enough tokens to participate\");\n        _;\n    }\n\n    /**\n     * @dev     \n     * @param account  \n     * @return   \n     */\n    function balanceOf(address account) internal view returns (uint256) {\n        return IERC20(tokenAddress).balanceOf(account);\n    }\n\n    /**\n     * @dev   \n     * @param description  \n     * @param duration     \n     */\n    function createProposal(string memory description, uint256 duration) external onlyTokenHolders {\n        require(duration > 0, \"Duration must be greater than zero\");\n\n        Proposal storage newProposal = proposals[proposalCount];\n        newProposal.description = description;\n        newProposal.deadline = block.timestamp + duration;\n\n        emit ProposalCreated(proposalCount, description, newProposal.deadline);\n        proposalCount++;\n    }\n\n    /**\n     * @dev     \n     * @param proposalId  \n     * @param support    \n     */\n    function vote(uint256 proposalId, bool support) external onlyTokenHolders {\n        Proposal storage proposal = proposals[proposalId];\n        require(block.timestamp <= proposal.deadline, \"Voting period has ended\");\n        require(!proposal.hasVoted[msg.sender], \"You have already voted\");\n\n        if (support) {\n            proposal.votesFor++;\n        } else {\n            proposal.votesAgainst++;\n        }\n\n        proposal.hasVoted[msg.sender] = true;\n\n        emit VoteCast(msg.sender, proposalId, support);\n    }\n\n    /**\n     * @dev       \n     * @param proposalId  \n     */\n    function executeProposal(uint256 proposalId) external onlyOwner {\n        Proposal storage proposal = proposals[proposalId];\n        require(block.timestamp > proposal.deadline, \"Voting period has not ended\");\n        require(!proposal.executed, \"Proposal already executed\");\n\n        proposal.executed = true;\n        bool success = proposal.votesFor > proposal.votesAgainst;\n\n        emit ProposalExecuted(proposalId, success);\n    }\n\n    /**\n     * @dev    \n     * @param newThreshold   \n     */\n    function updateVotingThreshold(uint256 newThreshold) external onlyOwner {\n        require(newThreshold > 0, \"Threshold must be greater than zero\");\n        votingThreshold = newThreshold;\n    }\n\n    /**\n     * @dev    \n     * @param proposalId  \n     * @return description  \n     * @return deadline  \n     * @return votesFor   \n     * @return votesAgainst   \n     * @return executed   \n     */\n    function getProposal(uint256 proposalId)\n        external\n        view\n        returns (\n            string memory description,\n            uint256 deadline,\n            uint256 votesFor,\n            uint256 votesAgainst,\n            bool executed\n        )\n    {\n        Proposal storage proposal = proposals[proposalId];\n        return (\n            proposal.description,\n            proposal.deadline,\n            proposal.votesFor,\n            proposal.votesAgainst,\n            proposal.executed\n        );\n    }\n}",
  "sourcePath": "/home/errick/master/contracts/DAO.sol",
  "compiler": {
    "name": "solc",
    "version": "0.8.20+commit.a1b79de6.Emscripten.clang"
  },
  "schemaVersion": "3.4.16",
  "updatedAt": "2025-01-30T09:52:58.787Z",
  "networkType": "ethereum",
  "devdoc": {
    "details": "      (DAO)",
    "errors": {
      "OwnableInvalidOwner(address)": [
        {
          "details": "The owner is not a valid owner account. (eg. `address(0)`)"
        }
      ],
      "OwnableUnauthorizedAccount(address)": [
        {
          "details": "The caller account is not authorized to perform an operation."
        }
      ]
    },
    "kind": "dev",
    "methods": {
      "constructor": {
        "details": " ",
        "params": {
          "_tokenAddress": "  ",
          "_votingThreshold": "      ",
          "initialOwner": "  "
        }
      },
      "createProposal(string,uint256)": {
        "details": "  ",
        "params": {
          "description": " ",
          "duration": "    "
        }
      },
      "executeProposal(uint256)": {
        "details": "      ",
        "params": {
          "proposalId": " "
        }
      },
      "getProposal(uint256)": {
        "details": "   ",
        "params": {
          "proposalId": " "
        },
        "returns": {
          "deadline": " ",
          "description": " ",
          "executed": "  ",
          "votesAgainst": "  ",
          "votesFor": "  "
        }
      },
      "owner()": {
        "details": "Returns the address of the current owner."
      },
      "renounceOwnership()": {
        "details": "Leaves the contract without owner. It will not be possible to call `onlyOwner` functions. Can only be called by the current owner. NOTE: Renouncing ownership will leave the contract without an owner, thereby disabling any functionality that is only available to the owner."
      },
      "transferOwnership(address)": {
        "details": "Transfers ownership of the contract to a new account (`newOwner`). Can only be called by the current owner."
      },
      "updateVotingThreshold(uint256)": {
        "details": "   ",
        "params": {
          "newThreshold": "  "
        }
      },
      "vote(uint256,bool)": {
        "details": "    ",
        "params": {
          "proposalId": " ",
          "support": "   "
        }
      }
    },
    "title": "DAO",
    "version": 1
  },
  "userdoc": {
    "kind": "user",
    "methods": {},
    "version": 1
  }
}