{
  "contractName": "Investment",
  "abi": [
    {
      "inputs": [
        {
          "internalType": "address",
          "name": "initialOwner",
          "type": "address"
        },
        {
          "internalType": "address",
          "name": "_token",
          "type": "address"
        },
        {
          "internalType": "address",
          "name": "_accControl",
          "type": "address"
        },
        {
          "internalType": "address",
          "name": "_hasher",
          "type": "address"
        }
      ],
      "stateMutability": "nonpayable",
      "type": "constructor"
    },
    {
      "inputs": [
        {
          "internalType": "address",
          "name": "owner",
          "type": "address"
        }
      ],
      "name": "OwnableInvalidOwner",
      "type": "error"
    },
    {
      "inputs": [
        {
          "internalType": "address",
          "name": "account",
          "type": "address"
        }
      ],
      "name": "OwnableUnauthorizedAccount",
      "type": "error"
    },
    {
      "anonymous": false,
      "inputs": [
        {
          "indexed": true,
          "internalType": "address",
          "name": "investor",
          "type": "address"
        },
        {
          "indexed": false,
          "internalType": "uint256",
          "name": "amount",
          "type": "uint256"
        },
        {
          "indexed": false,
          "internalType": "bytes32",
          "name": "hash",
          "type": "bytes32"
        }
      ],
      "name": "InvestmentMade",
      "type": "event"
    },
    {
      "anonymous": false,
      "inputs": [
        {
          "indexed": true,
          "internalType": "address",
          "name": "investor",
          "type": "address"
        },
        {
          "indexed": false,
          "internalType": "uint256",
          "name": "amount",
          "type": "uint256"
        },
        {
          "indexed": false,
          "internalType": "bytes32",
          "name": "hash",
          "type": "bytes32"
        }
      ],
      "name": "InvestmentWithdrawn",
      "type": "event"
    },
    {
      "anonymous": false,
      "inputs": [
        {
          "indexed": true,
          "internalType": "address",
          "name": "previousOwner",
          "type": "address"
        },
        {
          "indexed": true,
          "internalType": "address",
          "name": "newOwner",
          "type": "address"
        }
      ],
      "name": "OwnershipTransferred",
      "type": "event"
    },
    {
      "inputs": [],
      "name": "accControl",
      "outputs": [
        {
          "internalType": "contract AccControl",
          "name": "",
          "type": "address"
        }
      ],
      "stateMutability": "view",
      "type": "function",
      "constant": true
    },
    {
      "inputs": [],
      "name": "hasher",
      "outputs": [
        {
          "internalType": "contract CustomHash",
          "name": "",
          "type": "address"
        }
      ],
      "stateMutability": "view",
      "type": "function",
      "constant": true
    },
    {
      "inputs": [
        {
          "internalType": "address",
          "name": "",
          "type": "address"
        }
      ],
      "name": "investments",
      "outputs": [
        {
          "internalType": "uint256",
          "name": "amount",
          "type": "uint256"
        },
        {
          "internalType": "uint256",
          "name": "timestamp",
          "type": "uint256"
        },
        {
          "internalType": "bytes32",
          "name": "hash",
          "type": "bytes32"
        }
      ],
      "stateMutability": "view",
      "type": "function",
      "constant": true
    },
    {
      "inputs": [],
      "name": "owner",
      "outputs": [
        {
          "internalType": "address",
          "name": "",
          "type": "address"
        }
      ],
      "stateMutability": "view",
      "type": "function",
      "constant": true
    },
    {
      "inputs": [],
      "name": "renounceOwnership",
      "outputs": [],
      "stateMutability": "nonpayable",
      "type": "function"
    },
    {
      "inputs": [],
      "name": "token",
      "outputs": [
        {
          "internalType": "contract Token",
          "name": "",
          "type": "address"
        }
      ],
      "stateMutability": "view",
      "type": "function",
      "constant": true
    },
    {
      "inputs": [
        {
          "internalType": "bytes32",
          "name": "",
          "type": "bytes32"
        }
      ],
      "name": "transactionHashes",
      "outputs": [
        {
          "internalType": "bool",
          "name": "",
          "type": "bool"
        }
      ],
      "stateMutability": "view",
      "type": "function",
      "constant": true
    },
    {
      "inputs": [
        {
          "internalType": "address",
          "name": "newOwner",
          "type": "address"
        }
      ],
      "name": "transferOwnership",
      "outputs": [],
      "stateMutability": "nonpayable",
      "type": "function"
    },
    {
      "inputs": [
        {
          "internalType": "uint256",
          "name": "amount",
          "type": "uint256"
        }
      ],
      "name": "stakeTokens",
      "outputs": [],
      "stateMutability": "nonpayable",
      "type": "function"
    },
    {
      "inputs": [],
      "name": "withdrawInvestment",
      "outputs": [],
      "stateMutability": "nonpayable",
      "type": "function"
    }
  ],
  "bytecode": "0x60806040523480156200001157600080fd5b5060405162001aca38038062001aca8339818101604052810190620000379190620002ba565b83600073ffffffffffffffffffffffffffffffffffffffff168173ffffffffffffffffffffffffffffffffffffffff1603620000ad5760006040517f1e4fbdf7000000000000000000000000000000000000000000000000000000008152600401620000a491906200033d565b60405180910390fd5b620000be816200018c60201b60201c565b5082600160006101000a81548173ffffffffffffffffffffffffffffffffffffffff021916908373ffffffffffffffffffffffffffffffffffffffff16021790555081600260006101000a81548173ffffffffffffffffffffffffffffffffffffffff021916908373ffffffffffffffffffffffffffffffffffffffff16021790555080600360006101000a81548173ffffffffffffffffffffffffffffffffffffffff021916908373ffffffffffffffffffffffffffffffffffffffff160217905550505050506200035a565b60008060009054906101000a900473ffffffffffffffffffffffffffffffffffffffff169050816000806101000a81548173ffffffffffffffffffffffffffffffffffffffff021916908373ffffffffffffffffffffffffffffffffffffffff1602179055508173ffffffffffffffffffffffffffffffffffffffff168173ffffffffffffffffffffffffffffffffffffffff167f8be0079c531659141344cd1fd0a4f28419497f9722a3daafe3b4186f6b6457e060405160405180910390a35050565b600080fd5b600073ffffffffffffffffffffffffffffffffffffffff82169050919050565b6000620002828262000255565b9050919050565b620002948162000275565b8114620002a057600080fd5b50565b600081519050620002b48162000289565b92915050565b60008060008060808587031215620002d757620002d662000250565b5b6000620002e787828801620002a3565b9450506020620002fa87828801620002a3565b93505060406200030d87828801620002a3565b92505060606200032087828801620002a3565b91505092959194509250565b620003378162000275565b82525050565b60006020820190506200035460008301846200032c565b92915050565b611760806200036a6000396000f3fe608060405234801561001057600080fd5b506004361061009e5760003560e01c806396b988621161006657806396b9886214610135578063bf3e394e14610167578063ed33639f14610171578063f2fde38b1461018f578063fc0c546a146101ab5761009e565b806309fb61f5146100a3578063345c3537146100d3578063715018a6146100f15780637547c7a3146100fb5780638da5cb5b14610117575b600080fd5b6100bd60048036038101906100b89190610dfb565b6101c9565b6040516100ca9190610e43565b60405180910390f35b6100db6101e9565b6040516100e89190610edd565b60405180910390f35b6100f961020f565b005b61011560048036038101906101109190610f2e565b610223565b005b61011f6106eb565b60405161012c9190610f7c565b60405180910390f35b61014f600480360381019061014a9190610fc3565b610714565b60405161015e9392919061100e565b60405180910390f35b61016f61073e565b005b610179610b9b565b6040516101869190611066565b60405180910390f35b6101a960048036038101906101a49190610fc3565b610bc1565b005b6101b3610c47565b6040516101c091906110a2565b60405180910390f35b60056020528060005260406000206000915054906101000a900460ff1681565b600260009054906101000a900473ffffffffffffffffffffffffffffffffffffffff1681565b610217610c6d565b6102216000610cf4565b565b60006004811115610237576102366110bd565b5b600260009054906101000a900473ffffffffffffffffffffffffffffffffffffffff1673ffffffffffffffffffffffffffffffffffffffff166344276733336040518263ffffffff1660e01b81526004016102929190610f7c565b602060405180830381865afa1580156102af573d6000803e3d6000fd5b505050506040513d601f19601f820116820180604052508101906102d39190611111565b60048111156102e5576102e46110bd565b5b14610325576040517f08c379a000000000000000000000000000000000000000000000000000000000815260040161031c906111c1565b60405180910390fd5b80600160009054906101000a900473ffffffffffffffffffffffffffffffffffffffff1673ffffffffffffffffffffffffffffffffffffffff166370a08231336040518263ffffffff1660e01b81526004016103819190610f7c565b602060405180830381865afa15801561039e573d6000803e3d6000fd5b505050506040513d601f19601f820116820180604052508101906103c291906111f6565b1015610403576040517f08c379a00000000000000000000000000000000000000000000000000000000081526004016103fa9061126f565b60405180910390fd5b6000600360009054906101000a900473ffffffffffffffffffffffffffffffffffffffff1673ffffffffffffffffffffffffffffffffffffffff1663423a969f338442604051602001610458939291906112f8565b6040516020818303038152906040526040516020016104769061138c565b604051602081830303815290604052805190602001206040518363ffffffff1660e01b81526004016104a9929190611431565b602060405180830381865afa1580156104c6573d6000803e3d6000fd5b505050506040513d601f19601f820116820180604052508101906104ea9190611476565b90506005600082815260200190815260200160002060009054906101000a900460ff161561054d576040517f08c379a0000000000000000000000000000000000000000000000000000000008152600401610544906114ef565b60405180910390fd5b600160009054906101000a900473ffffffffffffffffffffffffffffffffffffffff1673ffffffffffffffffffffffffffffffffffffffff166323b872dd3330856040518463ffffffff1660e01b81526004016105ac9392919061150f565b6020604051808303816000875af11580156105cb573d6000803e3d6000fd5b505050506040513d601f19601f820116820180604052508101906105ef9190611572565b50604051806060016040528083815260200142815260200182815250600460003373ffffffffffffffffffffffffffffffffffffffff1673ffffffffffffffffffffffffffffffffffffffff16815260200190815260200160002060008201518160000155602082015181600101556040820151816002015590505060016005600083815260200190815260200160002060006101000a81548160ff0219169083151502179055503373ffffffffffffffffffffffffffffffffffffffff167feda276542555871883466d4b9578723322593da2d8af5b0833e49841ebf9b3c883836040516106df92919061159f565b60405180910390a25050565b60008060009054906101000a900473ffffffffffffffffffffffffffffffffffffffff16905090565b60046020528060005260406000206000915090508060000154908060010154908060020154905083565b60006004811115610752576107516110bd565b5b600260009054906101000a900473ffffffffffffffffffffffffffffffffffffffff1673ffffffffffffffffffffffffffffffffffffffff166344276733336040518263ffffffff1660e01b81526004016107ad9190610f7c565b602060405180830381865afa1580156107ca573d6000803e3d6000fd5b505050506040513d601f19601f820116820180604052508101906107ee9190611111565b6004811115610800576107ff6110bd565b5b14610840576040517f08c379a0000000000000000000000000000000000000000000000000000000008152600401610837906111c1565b60405180910390fd5b6000600460003373ffffffffffffffffffffffffffffffffffffffff1673ffffffffffffffffffffffffffffffffffffffff168152602001908152602001600020905060008160000154116108ca576040517f08c379a00000000000000000000000000000000000000000000000000000000081526004016108c190611614565b60405180910390fd5b6000600360009054906101000a900473ffffffffffffffffffffffffffffffffffffffff1673ffffffffffffffffffffffffffffffffffffffff1663423a969f33846000015442604051602001610923939291906112f8565b60405160208183030381529060405260405160200161094190611680565b604051602081830303815290604052805190602001206040518363ffffffff1660e01b8152600401610974929190611431565b602060405180830381865afa158015610991573d6000803e3d6000fd5b505050506040513d601f19601f820116820180604052508101906109b59190611476565b90506005600082815260200190815260200160002060009054906101000a900460ff1615610a18576040517f08c379a0000000000000000000000000000000000000000000000000000000008152600401610a0f906116e1565b60405180910390fd5b600160009054906101000a900473ffffffffffffffffffffffffffffffffffffffff1673ffffffffffffffffffffffffffffffffffffffff1663a9059cbb3384600001546040518363ffffffff1660e01b8152600401610a79929190611701565b6020604051808303816000875af1158015610a98573d6000803e3d6000fd5b505050506040513d601f19601f82011682018060405250810190610abc9190611572565b50600460003373ffffffffffffffffffffffffffffffffffffffff1673ffffffffffffffffffffffffffffffffffffffff16815260200190815260200160002060008082016000905560018201600090556002820160009055505060016005600083815260200190815260200160002060006101000a81548160ff0219169083151502179055503373ffffffffffffffffffffffffffffffffffffffff167f8813df3b53888c93457f89f5dcd0e84bad4ee46209e1e770b1a8e0d46c15181c836000015483604051610b8f92919061159f565b60405180910390a25050565b600360009054906101000a900473ffffffffffffffffffffffffffffffffffffffff1681565b610bc9610c6d565b600073ffffffffffffffffffffffffffffffffffffffff168173ffffffffffffffffffffffffffffffffffffffff1603610c3b5760006040517f1e4fbdf7000000000000000000000000000000000000000000000000000000008152600401610c329190610f7c565b60405180910390fd5b610c4481610cf4565b50565b600160009054906101000a900473ffffffffffffffffffffffffffffffffffffffff1681565b610c75610db8565b73ffffffffffffffffffffffffffffffffffffffff16610c936106eb565b73ffffffffffffffffffffffffffffffffffffffff1614610cf257610cb6610db8565b6040517f118cdaa7000000000000000000000000000000000000000000000000000000008152600401610ce99190610f7c565b60405180910390fd5b565b60008060009054906101000a900473ffffffffffffffffffffffffffffffffffffffff169050816000806101000a81548173ffffffffffffffffffffffffffffffffffffffff021916908373ffffffffffffffffffffffffffffffffffffffff1602179055508173ffffffffffffffffffffffffffffffffffffffff168173ffffffffffffffffffffffffffffffffffffffff167f8be0079c531659141344cd1fd0a4f28419497f9722a3daafe3b4186f6b6457e060405160405180910390a35050565b600033905090565b600080fd5b6000819050919050565b610dd881610dc5565b8114610de357600080fd5b50565b600081359050610df581610dcf565b92915050565b600060208284031215610e1157610e10610dc0565b5b6000610e1f84828501610de6565b91505092915050565b60008115159050919050565b610e3d81610e28565b82525050565b6000602082019050610e586000830184610e34565b92915050565b600073ffffffffffffffffffffffffffffffffffffffff82169050919050565b6000819050919050565b6000610ea3610e9e610e9984610e5e565b610e7e565b610e5e565b9050919050565b6000610eb582610e88565b9050919050565b6000610ec782610eaa565b9050919050565b610ed781610ebc565b82525050565b6000602082019050610ef26000830184610ece565b92915050565b6000819050919050565b610f0b81610ef8565b8114610f1657600080fd5b50565b600081359050610f2881610f02565b92915050565b600060208284031215610f4457610f43610dc0565b5b6000610f5284828501610f19565b91505092915050565b6000610f6682610e5e565b9050919050565b610f7681610f5b565b82525050565b6000602082019050610f916000830184610f6d565b92915050565b610fa081610f5b565b8114610fab57600080fd5b50565b600081359050610fbd81610f97565b92915050565b600060208284031215610fd957610fd8610dc0565b5b6000610fe784828501610fae565b91505092915050565b610ff981610ef8565b82525050565b61100881610dc5565b82525050565b60006060820190506110236000830186610ff0565b6110306020830185610ff0565b61103d6040830184610fff565b949350505050565b600061105082610eaa565b9050919050565b61106081611045565b82525050565b600060208201905061107b6000830184611057565b92915050565b600061108c82610eaa565b9050919050565b61109c81611081565b82525050565b60006020820190506110b76000830184611093565b92915050565b7f4e487b7100000000000000000000000000000000000000000000000000000000600052602160045260246000fd5b600581106110f957600080fd5b50565b60008151905061110b816110ec565b92915050565b60006020828403121561112757611126610dc0565b5b6000611135848285016110fc565b91505092915050565b600082825260208201905092915050565b7f4f6e6c7920696e766573746f72732063616e20706572666f726d20746869732060008201527f616374696f6e0000000000000000000000000000000000000000000000000000602082015250565b60006111ab60268361113e565b91506111b68261114f565b604082019050919050565b600060208201905081810360008301526111da8161119e565b9050919050565b6000815190506111f081610f02565b92915050565b60006020828403121561120c5761120b610dc0565b5b600061121a848285016111e1565b91505092915050565b7f496e73756666696369656e742062616c616e6365000000000000000000000000600082015250565b600061125960148361113e565b915061126482611223565b602082019050919050565b600060208201905081810360008301526112888161124c565b9050919050565b60008160601b9050919050565b60006112a78261128f565b9050919050565b60006112b98261129c565b9050919050565b6112d16112cc82610f5b565b6112ae565b82525050565b6000819050919050565b6112f26112ed82610ef8565b6112d7565b82525050565b600061130482866112c0565b60148201915061131482856112e1565b60208201915061132482846112e1565b602082019150819050949350505050565b600081905092915050565b7f7374616b65000000000000000000000000000000000000000000000000000000600082015250565b6000611376600583611335565b915061138182611340565b600582019050919050565b600061139782611369565b9150819050919050565b600081519050919050565b600082825260208201905092915050565b60005b838110156113db5780820151818401526020810190506113c0565b60008484015250505050565b6000601f19601f8301169050919050565b6000611403826113a1565b61140d81856113ac565b935061141d8185602086016113bd565b611426816113e7565b840191505092915050565b6000604082019050818103600083015261144b81856113f8565b905061145a6020830184610fff565b9392505050565b60008151905061147081610dcf565b92915050565b60006020828403121561148c5761148b610dc0565b5b600061149a84828501611461565b91505092915050565b7f4475706c6963617465207472616e73616374696f6e2064657465637465640000600082015250565b60006114d9601e8361113e565b91506114e4826114a3565b602082019050919050565b60006020820190508181036000830152611508816114cc565b9050919050565b60006060820190506115246000830186610f6d565b6115316020830185610f6d565b61153e6040830184610ff0565b949350505050565b61154f81610e28565b811461155a57600080fd5b50565b60008151905061156c81611546565b92915050565b60006020828403121561158857611587610dc0565b5b60006115968482850161155d565b91505092915050565b60006040820190506115b46000830185610ff0565b6115c16020830184610fff565b9392505050565b7f4e6f20696e766573746d656e7420666f756e6400000000000000000000000000600082015250565b60006115fe60138361113e565b9150611609826115c8565b602082019050919050565b6000602082019050818103600083015261162d816115f1565b9050919050565b7f7769746864726177000000000000000000000000000000000000000000000000600082015250565b600061166a600883611335565b915061167582611634565b600882019050919050565b600061168b8261165d565b9150819050919050565b7f4475706c6963617465207769746864726177616c206465746563746564000000600082015250565b60006116cb601d8361113e565b91506116d682611695565b602082019050919050565b600060208201905081810360008301526116fa816116be565b9050919050565b60006040820190506117166000830185610f6d565b6117236020830184610ff0565b939250505056fea2646970667358221220c5518998f63babfb787f3b2a6b4cb4850ff6c6f3022264241b574461aaeb84e964736f6c63430008140033",
  "immutableReferences": {},
  "source": "// SPDX-License-Identifier: MIT\npragma solidity ^0.8.20;\n\nimport \"@openzeppelin/contracts/access/Ownable.sol\"; //    Ownable  OpenZeppelin\nimport \"./Token.sol\"; //    Token   \nimport \"./AccControl.sol\"; //    AccControl   \nimport \"./CustomHash.sol\"; //    CustomHash    \n\n/**\n * @title Investment\n * @dev     DAO-VC\n */\ncontract Investment is Ownable {\n    Token public token; //       \n    AccControl public accControl; //       AccControl\n    CustomHash public hasher; //        \n\n    //  InvestmentInfo      \n    struct InvestmentInfo {\n        uint256 amount;\n        uint256 timestamp;\n        bytes32 hash;\n    }\n\n    //     \n    mapping(address => InvestmentInfo) public investments;\n    //           \n    mapping(bytes32 => bool) public transactionHashes;\n\n    //      \n    event InvestmentMade(address indexed investor, uint256 amount, bytes32 hash);\n    event InvestmentWithdrawn(address indexed investor, uint256 amount, bytes32 hash);\n\n    /**\n     * @dev  \n     * @param initialOwner   \n     * @param _token   \n     * @param _accControl   AccControl\n     * @param _hasher    \n     */\n    constructor(address initialOwner, address _token, address _accControl, address _hasher) Ownable(initialOwner) {\n        token = Token(_token);\n        accControl = AccControl(_accControl);\n        hasher = CustomHash(_hasher);\n    }\n\n    /**\n     * @dev Modifier          \n     */\n    modifier onlyInvestor() {\n        require(accControl.getRole(msg.sender) == AccControl.Role.Investor, \"Only investors can perform this action\");\n        _;\n    }\n\n    /**\n     * @dev  \n     * @param amount    \n     */\n    function stakeTokens(uint256 amount) external onlyInvestor {\n        require(token.balanceOf(msg.sender) >= amount, \"Insufficient balance\");\n        bytes32 stakeHash = hasher.customHash(abi.encodePacked(msg.sender, amount, block.timestamp), keccak256(abi.encodePacked(\"stake\")));\n        require(!transactionHashes[stakeHash], \"Duplicate transaction detected\");\n\n        token.transferFrom(msg.sender, address(this), amount);\n        investments[msg.sender] = InvestmentInfo(amount, block.timestamp, stakeHash);\n        transactionHashes[stakeHash] = true;\n\n        emit InvestmentMade(msg.sender, amount, stakeHash);\n    }\n\n    /**\n     * @dev  \n     */\n    function withdrawInvestment() external onlyInvestor {\n        InvestmentInfo storage userInvestment = investments[msg.sender];\n        require(userInvestment.amount > 0, \"No investment found\");\n        bytes32 withdrawHash = hasher.customHash(abi.encodePacked(msg.sender, userInvestment.amount, block.timestamp), keccak256(abi.encodePacked(\"withdraw\")));\n        require(!transactionHashes[withdrawHash], \"Duplicate withdrawal detected\");\n\n        token.transfer(msg.sender, userInvestment.amount);\n        delete investments[msg.sender];\n        transactionHashes[withdrawHash] = true;\n\n        emit InvestmentWithdrawn(msg.sender, userInvestment.amount, withdrawHash);\n    }\n}",
  "sourcePath": "/home/errick/master/contracts/Investment.sol",
  "compiler": {
    "name": "solc",
    "version": "0.8.20+commit.a1b79de6.Emscripten.clang"
  },
  "schemaVersion": "3.4.16",
  "updatedAt": "2025-01-30T09:52:58.807Z",
  "networkType": "ethereum",
  "devdoc": {
    "details": "    DAO-VC",
    "errors": {
      "OwnableInvalidOwner(address)": [
        {
          "details": "The owner is not a valid owner account. (eg. `address(0)`)"
        }
      ],
      "OwnableUnauthorizedAccount(address)": [
        {
          "details": "The caller account is not authorized to perform an operation."
        }
      ]
    },
    "kind": "dev",
    "methods": {
      "constructor": {
        "details": " ",
        "params": {
          "_accControl": "  AccControl",
          "_hasher": "   ",
          "_token": "  ",
          "initialOwner": "  "
        }
      },
      "owner()": {
        "details": "Returns the address of the current owner."
      },
      "renounceOwnership()": {
        "details": "Leaves the contract without owner. It will not be possible to call `onlyOwner` functions. Can only be called by the current owner. NOTE: Renouncing ownership will leave the contract without an owner, thereby disabling any functionality that is only available to the owner."
      },
      "stakeTokens(uint256)": {
        "details": " ",
        "params": {
          "amount": "   "
        }
      },
      "transferOwnership(address)": {
        "details": "Transfers ownership of the contract to a new account (`newOwner`). Can only be called by the current owner."
      },
      "withdrawInvestment()": {
        "details": " "
      }
    },
    "title": "Investment",
    "version": 1
  },
  "userdoc": {
    "kind": "user",
    "methods": {},
    "version": 1
  }
}