{
  "contractName": "Payments",
  "abi": [
    {
      "inputs": [
        {
          "internalType": "address",
          "name": "initialOwner",
          "type": "address"
        },
        {
          "internalType": "address",
          "name": "_token",
          "type": "address"
        },
        {
          "internalType": "address",
          "name": "_accControl",
          "type": "address"
        },
        {
          "internalType": "address",
          "name": "_hasher",
          "type": "address"
        }
      ],
      "stateMutability": "nonpayable",
      "type": "constructor"
    },
    {
      "inputs": [
        {
          "internalType": "address",
          "name": "owner",
          "type": "address"
        }
      ],
      "name": "OwnableInvalidOwner",
      "type": "error"
    },
    {
      "inputs": [
        {
          "internalType": "address",
          "name": "account",
          "type": "address"
        }
      ],
      "name": "OwnableUnauthorizedAccount",
      "type": "error"
    },
    {
      "anonymous": false,
      "inputs": [
        {
          "indexed": true,
          "internalType": "address",
          "name": "user",
          "type": "address"
        },
        {
          "indexed": false,
          "internalType": "uint256",
          "name": "amount",
          "type": "uint256"
        },
        {
          "indexed": false,
          "internalType": "bytes32",
          "name": "hash",
          "type": "bytes32"
        }
      ],
      "name": "FundsWithdrawn",
      "type": "event"
    },
    {
      "anonymous": false,
      "inputs": [
        {
          "indexed": true,
          "internalType": "address",
          "name": "previousOwner",
          "type": "address"
        },
        {
          "indexed": true,
          "internalType": "address",
          "name": "newOwner",
          "type": "address"
        }
      ],
      "name": "OwnershipTransferred",
      "type": "event"
    },
    {
      "anonymous": false,
      "inputs": [
        {
          "indexed": true,
          "internalType": "address",
          "name": "from",
          "type": "address"
        },
        {
          "indexed": true,
          "internalType": "address",
          "name": "to",
          "type": "address"
        },
        {
          "indexed": false,
          "internalType": "uint256",
          "name": "amount",
          "type": "uint256"
        },
        {
          "indexed": false,
          "internalType": "bytes32",
          "name": "hash",
          "type": "bytes32"
        }
      ],
      "name": "PaymentTransferred",
      "type": "event"
    },
    {
      "inputs": [],
      "name": "accControl",
      "outputs": [
        {
          "internalType": "contract AccControl",
          "name": "",
          "type": "address"
        }
      ],
      "stateMutability": "view",
      "type": "function",
      "constant": true
    },
    {
      "inputs": [],
      "name": "hasher",
      "outputs": [
        {
          "internalType": "contract CustomHash",
          "name": "",
          "type": "address"
        }
      ],
      "stateMutability": "view",
      "type": "function",
      "constant": true
    },
    {
      "inputs": [],
      "name": "owner",
      "outputs": [
        {
          "internalType": "address",
          "name": "",
          "type": "address"
        }
      ],
      "stateMutability": "view",
      "type": "function",
      "constant": true
    },
    {
      "inputs": [],
      "name": "renounceOwnership",
      "outputs": [],
      "stateMutability": "nonpayable",
      "type": "function"
    },
    {
      "inputs": [],
      "name": "token",
      "outputs": [
        {
          "internalType": "contract Token",
          "name": "",
          "type": "address"
        }
      ],
      "stateMutability": "view",
      "type": "function",
      "constant": true
    },
    {
      "inputs": [
        {
          "internalType": "bytes32",
          "name": "",
          "type": "bytes32"
        }
      ],
      "name": "transactionHashes",
      "outputs": [
        {
          "internalType": "bool",
          "name": "",
          "type": "bool"
        }
      ],
      "stateMutability": "view",
      "type": "function",
      "constant": true
    },
    {
      "inputs": [
        {
          "internalType": "address",
          "name": "newOwner",
          "type": "address"
        }
      ],
      "name": "transferOwnership",
      "outputs": [],
      "stateMutability": "nonpayable",
      "type": "function"
    },
    {
      "inputs": [
        {
          "internalType": "address",
          "name": "to",
          "type": "address"
        },
        {
          "internalType": "uint256",
          "name": "amount",
          "type": "uint256"
        }
      ],
      "name": "transferPayment",
      "outputs": [],
      "stateMutability": "nonpayable",
      "type": "function"
    },
    {
      "inputs": [
        {
          "internalType": "uint256",
          "name": "amount",
          "type": "uint256"
        }
      ],
      "name": "withdrawFunds",
      "outputs": [],
      "stateMutability": "nonpayable",
      "type": "function"
    }
  ],
  "bytecode": "0x60806040523480156200001157600080fd5b5060405162001aaa38038062001aaa8339818101604052810190620000379190620002ba565b83600073ffffffffffffffffffffffffffffffffffffffff168173ffffffffffffffffffffffffffffffffffffffff1603620000ad5760006040517f1e4fbdf7000000000000000000000000000000000000000000000000000000008152600401620000a491906200033d565b60405180910390fd5b620000be816200018c60201b60201c565b5082600160006101000a81548173ffffffffffffffffffffffffffffffffffffffff021916908373ffffffffffffffffffffffffffffffffffffffff16021790555081600260006101000a81548173ffffffffffffffffffffffffffffffffffffffff021916908373ffffffffffffffffffffffffffffffffffffffff16021790555080600360006101000a81548173ffffffffffffffffffffffffffffffffffffffff021916908373ffffffffffffffffffffffffffffffffffffffff160217905550505050506200035a565b60008060009054906101000a900473ffffffffffffffffffffffffffffffffffffffff169050816000806101000a81548173ffffffffffffffffffffffffffffffffffffffff021916908373ffffffffffffffffffffffffffffffffffffffff1602179055508173ffffffffffffffffffffffffffffffffffffffff168173ffffffffffffffffffffffffffffffffffffffff167f8be0079c531659141344cd1fd0a4f28419497f9722a3daafe3b4186f6b6457e060405160405180910390a35050565b600080fd5b600073ffffffffffffffffffffffffffffffffffffffff82169050919050565b6000620002828262000255565b9050919050565b620002948162000275565b8114620002a057600080fd5b50565b600081519050620002b48162000289565b92915050565b60008060008060808587031215620002d757620002d662000250565b5b6000620002e787828801620002a3565b9450506020620002fa87828801620002a3565b93505060406200030d87828801620002a3565b92505060606200032087828801620002a3565b91505092959194509250565b620003378162000275565b82525050565b60006020820190506200035460008301846200032c565b92915050565b611740806200036a6000396000f3fe608060405234801561001057600080fd5b50600436106100935760003560e01c80638da5cb5b116100665780638da5cb5b1461010c578063bca048591461012a578063ed33639f14610146578063f2fde38b14610164578063fc0c546a1461018057610093565b806309fb61f514610098578063155dd5ee146100c8578063345c3537146100e4578063715018a614610102575b600080fd5b6100b260048036038101906100ad9190610e2b565b61019e565b6040516100bf9190610e73565b60405180910390f35b6100e260048036038101906100dd9190610ec4565b6101be565b005b6100ec610685565b6040516100f99190610f70565b60405180910390f35b61010a6106ab565b005b6101146106bf565b6040516101219190610fac565b60405180910390f35b610144600480360381019061013f9190610ff3565b6106e8565b005b61014e610bcb565b60405161015b9190611054565b60405180910390f35b61017e6004803603810190610179919061106f565b610bf1565b005b610188610c77565b60405161019591906110bd565b60405180910390f35b60046020528060005260406000206000915054906101000a900460ff1681565b600260009054906101000a900473ffffffffffffffffffffffffffffffffffffffff1673ffffffffffffffffffffffffffffffffffffffff1663cd599281336040518263ffffffff1660e01b81526004016102199190610fac565b602060405180830381865afa158015610236573d6000803e3d6000fd5b505050506040513d601f19601f8201168201806040525081019061025a9190611104565b806102fd5750600260009054906101000a900473ffffffffffffffffffffffffffffffffffffffff1673ffffffffffffffffffffffffffffffffffffffff1663facd743b336040518263ffffffff1660e01b81526004016102bb9190610fac565b602060405180830381865afa1580156102d8573d6000803e3d6000fd5b505050506040513d601f19601f820116820180604052508101906102fc9190611104565b5b61033c576040517f08c379a00000000000000000000000000000000000000000000000000000000081526004016103339061118e565b60405180910390fd5b80600160009054906101000a900473ffffffffffffffffffffffffffffffffffffffff1673ffffffffffffffffffffffffffffffffffffffff166370a08231306040518263ffffffff1660e01b81526004016103989190610fac565b602060405180830381865afa1580156103b5573d6000803e3d6000fd5b505050506040513d601f19601f820116820180604052508101906103d991906111c3565b101561041a576040517f08c379a00000000000000000000000000000000000000000000000000000000081526004016104119061123c565b60405180910390fd5b6000600360009054906101000a900473ffffffffffffffffffffffffffffffffffffffff1673ffffffffffffffffffffffffffffffffffffffff1663423a969f33844260405160200161046f939291906112c5565b60405160208183030381529060405260405160200161048d90611359565b604051602081830303815290604052805190602001206040518363ffffffff1660e01b81526004016104c092919061140d565b602060405180830381865afa1580156104dd573d6000803e3d6000fd5b505050506040513d601f19601f820116820180604052508101906105019190611452565b90506004600082815260200190815260200160002060009054906101000a900460ff1615610564576040517f08c379a000000000000000000000000000000000000000000000000000000000815260040161055b906114cb565b60405180910390fd5b600160009054906101000a900473ffffffffffffffffffffffffffffffffffffffff1673ffffffffffffffffffffffffffffffffffffffff1663a9059cbb33846040518363ffffffff1660e01b81526004016105c19291906114fa565b6020604051808303816000875af11580156105e0573d6000803e3d6000fd5b505050506040513d601f19601f820116820180604052508101906106049190611104565b5060016004600083815260200190815260200160002060006101000a81548160ff0219169083151502179055503373ffffffffffffffffffffffffffffffffffffffff167fccc1ddfc57f37ae53b1d241604d497e0fb8df26ba4e24005feeecc2ca93a9eb18383604051610679929190611523565b60405180910390a25050565b600260009054906101000a900473ffffffffffffffffffffffffffffffffffffffff1681565b6106b3610c9d565b6106bd6000610d24565b565b60008060009054906101000a900473ffffffffffffffffffffffffffffffffffffffff16905090565b600260009054906101000a900473ffffffffffffffffffffffffffffffffffffffff1673ffffffffffffffffffffffffffffffffffffffff1663cd599281336040518263ffffffff1660e01b81526004016107439190610fac565b602060405180830381865afa158015610760573d6000803e3d6000fd5b505050506040513d601f19601f820116820180604052508101906107849190611104565b806108275750600260009054906101000a900473ffffffffffffffffffffffffffffffffffffffff1673ffffffffffffffffffffffffffffffffffffffff1663facd743b336040518263ffffffff1660e01b81526004016107e59190610fac565b602060405180830381865afa158015610802573d6000803e3d6000fd5b505050506040513d601f19601f820116820180604052508101906108269190611104565b5b610866576040517f08c379a000000000000000000000000000000000000000000000000000000000815260040161085d9061118e565b60405180910390fd5b80600160009054906101000a900473ffffffffffffffffffffffffffffffffffffffff1673ffffffffffffffffffffffffffffffffffffffff166370a08231336040518263ffffffff1660e01b81526004016108c29190610fac565b602060405180830381865afa1580156108df573d6000803e3d6000fd5b505050506040513d601f19601f8201168201806040525081019061090391906111c3565b1015610944576040517f08c379a000000000000000000000000000000000000000000000000000000000815260040161093b90611598565b60405180910390fd5b6000600360009054906101000a900473ffffffffffffffffffffffffffffffffffffffff1673ffffffffffffffffffffffffffffffffffffffff1663423a969f3385854260405160200161099b94939291906115b8565b6040516020818303038152906040526040516020016109b990611652565b604051602081830303815290604052805190602001206040518363ffffffff1660e01b81526004016109ec92919061140d565b602060405180830381865afa158015610a09573d6000803e3d6000fd5b505050506040513d601f19601f82011682018060405250810190610a2d9190611452565b90506004600082815260200190815260200160002060009054906101000a900460ff1615610a90576040517f08c379a0000000000000000000000000000000000000000000000000000000008152600401610a87906116b3565b60405180910390fd5b600160009054906101000a900473ffffffffffffffffffffffffffffffffffffffff1673ffffffffffffffffffffffffffffffffffffffff166323b872dd3385856040518463ffffffff1660e01b8152600401610aef939291906116d3565b6020604051808303816000875af1158015610b0e573d6000803e3d6000fd5b505050506040513d601f19601f82011682018060405250810190610b329190611104565b5060016004600083815260200190815260200160002060006101000a81548160ff0219169083151502179055508273ffffffffffffffffffffffffffffffffffffffff163373ffffffffffffffffffffffffffffffffffffffff167fcd2453979f199243782a4279ef801cfec10eabf6c6b42914f8cf0604e99ae62d8484604051610bbe929190611523565b60405180910390a3505050565b600360009054906101000a900473ffffffffffffffffffffffffffffffffffffffff1681565b610bf9610c9d565b600073ffffffffffffffffffffffffffffffffffffffff168173ffffffffffffffffffffffffffffffffffffffff1603610c6b5760006040517f1e4fbdf7000000000000000000000000000000000000000000000000000000008152600401610c629190610fac565b60405180910390fd5b610c7481610d24565b50565b600160009054906101000a900473ffffffffffffffffffffffffffffffffffffffff1681565b610ca5610de8565b73ffffffffffffffffffffffffffffffffffffffff16610cc36106bf565b73ffffffffffffffffffffffffffffffffffffffff1614610d2257610ce6610de8565b6040517f118cdaa7000000000000000000000000000000000000000000000000000000008152600401610d199190610fac565b60405180910390fd5b565b60008060009054906101000a900473ffffffffffffffffffffffffffffffffffffffff169050816000806101000a81548173ffffffffffffffffffffffffffffffffffffffff021916908373ffffffffffffffffffffffffffffffffffffffff1602179055508173ffffffffffffffffffffffffffffffffffffffff168173ffffffffffffffffffffffffffffffffffffffff167f8be0079c531659141344cd1fd0a4f28419497f9722a3daafe3b4186f6b6457e060405160405180910390a35050565b600033905090565b600080fd5b6000819050919050565b610e0881610df5565b8114610e1357600080fd5b50565b600081359050610e2581610dff565b92915050565b600060208284031215610e4157610e40610df0565b5b6000610e4f84828501610e16565b91505092915050565b60008115159050919050565b610e6d81610e58565b82525050565b6000602082019050610e886000830184610e64565b92915050565b6000819050919050565b610ea181610e8e565b8114610eac57600080fd5b50565b600081359050610ebe81610e98565b92915050565b600060208284031215610eda57610ed9610df0565b5b6000610ee884828501610eaf565b91505092915050565b600073ffffffffffffffffffffffffffffffffffffffff82169050919050565b6000819050919050565b6000610f36610f31610f2c84610ef1565b610f11565b610ef1565b9050919050565b6000610f4882610f1b565b9050919050565b6000610f5a82610f3d565b9050919050565b610f6a81610f4f565b82525050565b6000602082019050610f856000830184610f61565b92915050565b6000610f9682610ef1565b9050919050565b610fa681610f8b565b82525050565b6000602082019050610fc16000830184610f9d565b92915050565b610fd081610f8b565b8114610fdb57600080fd5b50565b600081359050610fed81610fc7565b92915050565b6000806040838503121561100a57611009610df0565b5b600061101885828601610fde565b925050602061102985828601610eaf565b9150509250929050565b600061103e82610f3d565b9050919050565b61104e81611033565b82525050565b60006020820190506110696000830184611045565b92915050565b60006020828403121561108557611084610df0565b5b600061109384828501610fde565b91505092915050565b60006110a782610f3d565b9050919050565b6110b78161109c565b82525050565b60006020820190506110d260008301846110ae565b92915050565b6110e181610e58565b81146110ec57600080fd5b50565b6000815190506110fe816110d8565b92915050565b60006020828403121561111a57611119610df0565b5b6000611128848285016110ef565b91505092915050565b600082825260208201905092915050565b7f556e617574686f72697a656420616374696f6e00000000000000000000000000600082015250565b6000611178601383611131565b915061118382611142565b602082019050919050565b600060208201905081810360008301526111a78161116b565b9050919050565b6000815190506111bd81610e98565b92915050565b6000602082840312156111d9576111d8610df0565b5b60006111e7848285016111ae565b91505092915050565b7f496e73756666696369656e7420636f6e74726163742062616c616e6365000000600082015250565b6000611226601d83611131565b9150611231826111f0565b602082019050919050565b6000602082019050818103600083015261125581611219565b9050919050565b60008160601b9050919050565b60006112748261125c565b9050919050565b600061128682611269565b9050919050565b61129e61129982610f8b565b61127b565b82525050565b6000819050919050565b6112bf6112ba82610e8e565b6112a4565b82525050565b60006112d1828661128d565b6014820191506112e182856112ae565b6020820191506112f182846112ae565b602082019150819050949350505050565b600081905092915050565b7f7769746864726177000000000000000000000000000000000000000000000000600082015250565b6000611343600883611302565b915061134e8261130d565b600882019050919050565b600061136482611336565b9150819050919050565b600081519050919050565b600082825260208201905092915050565b60005b838110156113a857808201518184015260208101905061138d565b60008484015250505050565b6000601f19601f8301169050919050565b60006113d08261136e565b6113da8185611379565b93506113ea81856020860161138a565b6113f3816113b4565b840191505092915050565b61140781610df5565b82525050565b6000604082019050818103600083015261142781856113c5565b905061143660208301846113fe565b9392505050565b60008151905061144c81610dff565b92915050565b60006020828403121561146857611467610df0565b5b60006114768482850161143d565b91505092915050565b7f4475706c6963617465207769746864726177616c206465746563746564000000600082015250565b60006114b5601d83611131565b91506114c08261147f565b602082019050919050565b600060208201905081810360008301526114e4816114a8565b9050919050565b6114f481610e8e565b82525050565b600060408201905061150f6000830185610f9d565b61151c60208301846114eb565b9392505050565b600060408201905061153860008301856114eb565b61154560208301846113fe565b9392505050565b7f496e73756666696369656e742062616c616e6365000000000000000000000000600082015250565b6000611582601483611131565b915061158d8261154c565b602082019050919050565b600060208201905081810360008301526115b181611575565b9050919050565b60006115c4828761128d565b6014820191506115d4828661128d565b6014820191506115e482856112ae565b6020820191506115f482846112ae565b60208201915081905095945050505050565b7f7061796d656e7400000000000000000000000000000000000000000000000000600082015250565b600061163c600783611302565b915061164782611606565b600782019050919050565b600061165d8261162f565b9150819050919050565b7f4475706c6963617465207472616e73616374696f6e2064657465637465640000600082015250565b600061169d601e83611131565b91506116a882611667565b602082019050919050565b600060208201905081810360008301526116cc81611690565b9050919050565b60006060820190506116e86000830186610f9d565b6116f56020830185610f9d565b61170260408301846114eb565b94935050505056fea26469706673582212200c3e4344234b4ae73451e0a0ea6f0580ce229fb588107b22f8e466a127147d8964736f6c63430008140033",
  "immutableReferences": {},
  "source": "// SPDX-License-Identifier: MIT\npragma solidity ^0.8.20;\n\nimport \"@openzeppelin/contracts/access/Ownable.sol\"; //    Ownable  OpenZeppelin\nimport \"./Token.sol\"; //    Token   \nimport \"./AccControl.sol\"; //    AccControl   \nimport \"./CustomHash.sol\"; //    CustomHash    \n\n/**\n * @title Payments\n * @dev        DAO-VC\n */\ncontract Payments is Ownable {\n    Token public token; //       \n    AccControl public accControl; //       AccControl\n    CustomHash public hasher; //        \n\n    //           \n    mapping(bytes32 => bool) public transactionHashes;\n\n    //      \n    event PaymentTransferred(address indexed from, address indexed to, uint256 amount, bytes32 hash);\n    event FundsWithdrawn(address indexed user, uint256 amount, bytes32 hash);\n\n    /**\n     * @dev  \n     * @param initialOwner   \n     * @param _token   \n     * @param _accControl   AccControl\n     * @param _hasher    \n     */\n    constructor(address initialOwner, address _token, address _accControl, address _hasher) Ownable(initialOwner) {\n        token = Token(_token);\n        accControl = AccControl(_accControl);\n        hasher = CustomHash(_hasher);\n    }\n\n    /**\n     * @dev Modifier           \n     */\n    modifier onlyAuthorized() {\n        require(accControl.isDAONode(msg.sender) || accControl.isValidator(msg.sender), \"Unauthorized action\");\n        _;\n    }\n\n    /**\n     * @dev        \n     * @param to  \n     * @param amount   \n     */\n    function transferPayment(address to, uint256 amount) external onlyAuthorized {\n        require(token.balanceOf(msg.sender) >= amount, \"Insufficient balance\");\n        bytes32 paymentHash = hasher.customHash(abi.encodePacked(msg.sender, to, amount, block.timestamp), keccak256(abi.encodePacked(\"payment\")));\n        require(!transactionHashes[paymentHash], \"Duplicate transaction detected\");\n\n        token.transferFrom(msg.sender, to, amount);\n        transactionHashes[paymentHash] = true;\n\n        emit PaymentTransferred(msg.sender, to, amount, paymentHash);\n    }\n\n    /**\n     * @dev    \n     * @param amount   \n     */\n    function withdrawFunds(uint256 amount) external onlyAuthorized {\n        require(token.balanceOf(address(this)) >= amount, \"Insufficient contract balance\");\n        bytes32 withdrawHash = hasher.customHash(abi.encodePacked(msg.sender, amount, block.timestamp), keccak256(abi.encodePacked(\"withdraw\")));\n        require(!transactionHashes[withdrawHash], \"Duplicate withdrawal detected\");\n\n        token.transfer(msg.sender, amount);\n        transactionHashes[withdrawHash] = true;\n\n        emit FundsWithdrawn(msg.sender, amount, withdrawHash);\n    }\n}",
  "sourcePath": "/home/errick/master/contracts/Payments.sol",
  "compiler": {
    "name": "solc",
    "version": "0.8.20+commit.a1b79de6.Emscripten.clang"
  },
  "schemaVersion": "3.4.16",
  "updatedAt": "2025-01-30T09:52:58.835Z",
  "networkType": "ethereum",
  "devdoc": {
    "details": "       DAO-VC",
    "errors": {
      "OwnableInvalidOwner(address)": [
        {
          "details": "The owner is not a valid owner account. (eg. `address(0)`)"
        }
      ],
      "OwnableUnauthorizedAccount(address)": [
        {
          "details": "The caller account is not authorized to perform an operation."
        }
      ]
    },
    "kind": "dev",
    "methods": {
      "constructor": {
        "details": " ",
        "params": {
          "_accControl": "  AccControl",
          "_hasher": "   ",
          "_token": "  ",
          "initialOwner": "  "
        }
      },
      "owner()": {
        "details": "Returns the address of the current owner."
      },
      "renounceOwnership()": {
        "details": "Leaves the contract without owner. It will not be possible to call `onlyOwner` functions. Can only be called by the current owner. NOTE: Renouncing ownership will leave the contract without an owner, thereby disabling any functionality that is only available to the owner."
      },
      "transferOwnership(address)": {
        "details": "Transfers ownership of the contract to a new account (`newOwner`). Can only be called by the current owner."
      },
      "transferPayment(address,uint256)": {
        "details": "       ",
        "params": {
          "amount": "  ",
          "to": " "
        }
      },
      "withdrawFunds(uint256)": {
        "details": "   ",
        "params": {
          "amount": "  "
        }
      }
    },
    "title": "Payments",
    "version": 1
  },
  "userdoc": {
    "kind": "user",
    "methods": {},
    "version": 1
  }
}