{
  "contractName": "ProjectMon",
  "abi": [
    {
      "inputs": [
        {
          "internalType": "address",
          "name": "initialOwner",
          "type": "address"
        },
        {
          "internalType": "address",
          "name": "_accControl",
          "type": "address"
        },
        {
          "internalType": "address",
          "name": "_hasher",
          "type": "address"
        }
      ],
      "stateMutability": "nonpayable",
      "type": "constructor"
    },
    {
      "inputs": [
        {
          "internalType": "address",
          "name": "owner",
          "type": "address"
        }
      ],
      "name": "OwnableInvalidOwner",
      "type": "error"
    },
    {
      "inputs": [
        {
          "internalType": "address",
          "name": "account",
          "type": "address"
        }
      ],
      "name": "OwnableUnauthorizedAccount",
      "type": "error"
    },
    {
      "anonymous": false,
      "inputs": [
        {
          "indexed": true,
          "internalType": "address",
          "name": "previousOwner",
          "type": "address"
        },
        {
          "indexed": true,
          "internalType": "address",
          "name": "newOwner",
          "type": "address"
        }
      ],
      "name": "OwnershipTransferred",
      "type": "event"
    },
    {
      "anonymous": false,
      "inputs": [
        {
          "indexed": true,
          "internalType": "uint256",
          "name": "projectId",
          "type": "uint256"
        },
        {
          "indexed": false,
          "internalType": "string",
          "name": "name",
          "type": "string"
        },
        {
          "indexed": true,
          "internalType": "address",
          "name": "owner",
          "type": "address"
        },
        {
          "indexed": false,
          "internalType": "bytes32",
          "name": "hash",
          "type": "bytes32"
        }
      ],
      "name": "ProjectRegistered",
      "type": "event"
    },
    {
      "anonymous": false,
      "inputs": [
        {
          "indexed": true,
          "internalType": "uint256",
          "name": "projectId",
          "type": "uint256"
        },
        {
          "indexed": false,
          "internalType": "bool",
          "name": "isCompleted",
          "type": "bool"
        },
        {
          "indexed": false,
          "internalType": "bytes32",
          "name": "hash",
          "type": "bytes32"
        }
      ],
      "name": "ProjectUpdated",
      "type": "event"
    },
    {
      "inputs": [],
      "name": "accControl",
      "outputs": [
        {
          "internalType": "contract AccControl",
          "name": "",
          "type": "address"
        }
      ],
      "stateMutability": "view",
      "type": "function",
      "constant": true
    },
    {
      "inputs": [],
      "name": "hasher",
      "outputs": [
        {
          "internalType": "contract CustomHash",
          "name": "",
          "type": "address"
        }
      ],
      "stateMutability": "view",
      "type": "function",
      "constant": true
    },
    {
      "inputs": [],
      "name": "owner",
      "outputs": [
        {
          "internalType": "address",
          "name": "",
          "type": "address"
        }
      ],
      "stateMutability": "view",
      "type": "function",
      "constant": true
    },
    {
      "inputs": [],
      "name": "projectCount",
      "outputs": [
        {
          "internalType": "uint256",
          "name": "",
          "type": "uint256"
        }
      ],
      "stateMutability": "view",
      "type": "function",
      "constant": true
    },
    {
      "inputs": [
        {
          "internalType": "bytes32",
          "name": "",
          "type": "bytes32"
        }
      ],
      "name": "projectHashes",
      "outputs": [
        {
          "internalType": "bool",
          "name": "",
          "type": "bool"
        }
      ],
      "stateMutability": "view",
      "type": "function",
      "constant": true
    },
    {
      "inputs": [
        {
          "internalType": "uint256",
          "name": "",
          "type": "uint256"
        }
      ],
      "name": "projects",
      "outputs": [
        {
          "internalType": "uint256",
          "name": "id",
          "type": "uint256"
        },
        {
          "internalType": "string",
          "name": "name",
          "type": "string"
        },
        {
          "internalType": "string",
          "name": "description",
          "type": "string"
        },
        {
          "internalType": "address",
          "name": "owner",
          "type": "address"
        },
        {
          "internalType": "bytes32",
          "name": "hash",
          "type": "bytes32"
        },
        {
          "internalType": "bool",
          "name": "isCompleted",
          "type": "bool"
        }
      ],
      "stateMutability": "view",
      "type": "function",
      "constant": true
    },
    {
      "inputs": [],
      "name": "renounceOwnership",
      "outputs": [],
      "stateMutability": "nonpayable",
      "type": "function"
    },
    {
      "inputs": [
        {
          "internalType": "address",
          "name": "newOwner",
          "type": "address"
        }
      ],
      "name": "transferOwnership",
      "outputs": [],
      "stateMutability": "nonpayable",
      "type": "function"
    },
    {
      "inputs": [
        {
          "internalType": "string",
          "name": "name",
          "type": "string"
        },
        {
          "internalType": "string",
          "name": "description",
          "type": "string"
        }
      ],
      "name": "registerProject",
      "outputs": [],
      "stateMutability": "nonpayable",
      "type": "function"
    },
    {
      "inputs": [
        {
          "internalType": "uint256",
          "name": "projectId",
          "type": "uint256"
        },
        {
          "internalType": "bool",
          "name": "isCompleted",
          "type": "bool"
        }
      ],
      "name": "updateProjectStatus",
      "outputs": [],
      "stateMutability": "nonpayable",
      "type": "function"
    }
  ],
  "bytecode": "0x60806040523480156200001157600080fd5b5060405162001c4c38038062001c4c833981810160405281019062000037919062000278565b82600073ffffffffffffffffffffffffffffffffffffffff168173ffffffffffffffffffffffffffffffffffffffff1603620000ad5760006040517f1e4fbdf7000000000000000000000000000000000000000000000000000000008152600401620000a49190620002e5565b60405180910390fd5b620000be816200014a60201b60201c565b5081600160006101000a81548173ffffffffffffffffffffffffffffffffffffffff021916908373ffffffffffffffffffffffffffffffffffffffff16021790555080600260006101000a81548173ffffffffffffffffffffffffffffffffffffffff021916908373ffffffffffffffffffffffffffffffffffffffff16021790555050505062000302565b60008060009054906101000a900473ffffffffffffffffffffffffffffffffffffffff169050816000806101000a81548173ffffffffffffffffffffffffffffffffffffffff021916908373ffffffffffffffffffffffffffffffffffffffff1602179055508173ffffffffffffffffffffffffffffffffffffffff168173ffffffffffffffffffffffffffffffffffffffff167f8be0079c531659141344cd1fd0a4f28419497f9722a3daafe3b4186f6b6457e060405160405180910390a35050565b600080fd5b600073ffffffffffffffffffffffffffffffffffffffff82169050919050565b6000620002408262000213565b9050919050565b620002528162000233565b81146200025e57600080fd5b50565b600081519050620002728162000247565b92915050565b6000806000606084860312156200029457620002936200020e565b5b6000620002a48682870162000261565b9350506020620002b78682870162000261565b9250506040620002ca8682870162000261565b9150509250925092565b620002df8162000233565b82525050565b6000602082019050620002fc6000830184620002d4565b92915050565b61193a80620003126000396000f3fe608060405234801561001057600080fd5b506004361061009e5760003560e01c8063715018a611610066578063715018a6146101605780638da5cb5b1461016a578063ed33639f14610188578063f2fde38b146101a6578063fa09cdfe146101c25761009e565b80630e8f7054146100a3578063107046bd146100d3578063177b301014610108578063345c35371461012457806336fbad2614610142575b600080fd5b6100bd60048036038101906100b89190610ba1565b6101de565b6040516100ca9190610be9565b60405180910390f35b6100ed60048036038101906100e89190610c3a565b6101fe565b6040516100ff96959493929190610d56565b60405180910390f35b610122600480360381019061011d9190610efa565b610377565b005b61012c610666565b6040516101399190610fd1565b60405180910390f35b61014a61068c565b6040516101579190610fec565b60405180910390f35b610168610692565b005b6101726106a6565b60405161017f9190611007565b60405180910390f35b6101906106cf565b60405161019d9190611043565b60405180910390f35b6101c060048036038101906101bb919061108a565b6106f5565b005b6101dc60048036038101906101d791906110e3565b61077b565b005b60056020528060005260406000206000915054906101000a900460ff1681565b600460205280600052604060002060009150905080600001549080600101805461022790611152565b80601f016020809104026020016040519081016040528092919081815260200182805461025390611152565b80156102a05780601f10610275576101008083540402835291602001916102a0565b820191906000526020600020905b81548152906001019060200180831161028357829003601f168201915b5050505050908060020180546102b590611152565b80601f01602080910402602001604051908101604052809291908181526020018280546102e190611152565b801561032e5780601f106103035761010080835404028352916020019161032e565b820191906000526020600020905b81548152906001019060200180831161031157829003601f168201915b5050505050908060030160009054906101000a900473ffffffffffffffffffffffffffffffffffffffff16908060040154908060050160009054906101000a900460ff16905086565b6003600081548092919061038a906111b2565b91905055506000600260009054906101000a900473ffffffffffffffffffffffffffffffffffffffff1673ffffffffffffffffffffffffffffffffffffffff1663423a969f848433426040516020016103e6949392919061129f565b60405160208183030381529060405260405160200161040490611331565b604051602081830303815290604052805190602001206040518363ffffffff1660e01b815260040161043792919061139b565b602060405180830381865afa158015610454573d6000803e3d6000fd5b505050506040513d601f19601f8201168201806040525081019061047891906113e0565b90506005600082815260200190815260200160002060009054906101000a900460ff16156104db576040517f08c379a00000000000000000000000000000000000000000000000000000000081526004016104d290611459565b60405180910390fd5b6040518060c0016040528060035481526020018481526020018381526020013373ffffffffffffffffffffffffffffffffffffffff16815260200182815260200160001515815250600460006003548152602001908152602001600020600082015181600001556020820151816001019081610557919061161b565b50604082015181600201908161056d919061161b565b5060608201518160030160006101000a81548173ffffffffffffffffffffffffffffffffffffffff021916908373ffffffffffffffffffffffffffffffffffffffff1602179055506080820151816004015560a08201518160050160006101000a81548160ff02191690831515021790555090505060016005600083815260200190815260200160002060006101000a81548160ff0219169083151502179055503373ffffffffffffffffffffffffffffffffffffffff166003547faa321c87263d65650d266df901ca7eda3d4ee28f7e9e1965354c660c923dd85285846040516106599291906116ed565b60405180910390a3505050565b600160009054906101000a900473ffffffffffffffffffffffffffffffffffffffff1681565b60035481565b61069a610a04565b6106a46000610a8b565b565b60008060009054906101000a900473ffffffffffffffffffffffffffffffffffffffff16905090565b600260009054906101000a900473ffffffffffffffffffffffffffffffffffffffff1681565b6106fd610a04565b600073ffffffffffffffffffffffffffffffffffffffff168173ffffffffffffffffffffffffffffffffffffffff160361076f5760006040517f1e4fbdf70000000000000000000000000000000000000000000000000000000081526004016107669190611007565b60405180910390fd5b61077881610a8b565b50565b813373ffffffffffffffffffffffffffffffffffffffff166004600083815260200190815260200160002060030160009054906101000a900473ffffffffffffffffffffffffffffffffffffffff1673ffffffffffffffffffffffffffffffffffffffff1614610820576040517f08c379a000000000000000000000000000000000000000000000000000000000815260040161081790611769565b60405180910390fd5b6000600260009054906101000a900473ffffffffffffffffffffffffffffffffffffffff1673ffffffffffffffffffffffffffffffffffffffff1663423a969f858542604051602001610875939291906117d1565b6040516020818303038152906040526040516020016108939061185a565b604051602081830303815290604052805190602001206040518363ffffffff1660e01b81526004016108c692919061139b565b602060405180830381865afa1580156108e3573d6000803e3d6000fd5b505050506040513d601f19601f8201168201806040525081019061090791906113e0565b90506005600082815260200190815260200160002060009054906101000a900460ff161561096a576040517f08c379a0000000000000000000000000000000000000000000000000000000008152600401610961906118bb565b60405180910390fd5b826004600086815260200190815260200160002060050160006101000a81548160ff02191690831515021790555060016005600083815260200190815260200160002060006101000a81548160ff021916908315150217905550837f091d5bebe680a924da457e9dea80e53f792997d8bff76939bd072243cf0010d984836040516109f69291906118db565b60405180910390a250505050565b610a0c610b4f565b73ffffffffffffffffffffffffffffffffffffffff16610a2a6106a6565b73ffffffffffffffffffffffffffffffffffffffff1614610a8957610a4d610b4f565b6040517f118cdaa7000000000000000000000000000000000000000000000000000000008152600401610a809190611007565b60405180910390fd5b565b60008060009054906101000a900473ffffffffffffffffffffffffffffffffffffffff169050816000806101000a81548173ffffffffffffffffffffffffffffffffffffffff021916908373ffffffffffffffffffffffffffffffffffffffff1602179055508173ffffffffffffffffffffffffffffffffffffffff168173ffffffffffffffffffffffffffffffffffffffff167f8be0079c531659141344cd1fd0a4f28419497f9722a3daafe3b4186f6b6457e060405160405180910390a35050565b600033905090565b6000604051905090565b600080fd5b600080fd5b6000819050919050565b610b7e81610b6b565b8114610b8957600080fd5b50565b600081359050610b9b81610b75565b92915050565b600060208284031215610bb757610bb6610b61565b5b6000610bc584828501610b8c565b91505092915050565b60008115159050919050565b610be381610bce565b82525050565b6000602082019050610bfe6000830184610bda565b92915050565b6000819050919050565b610c1781610c04565b8114610c2257600080fd5b50565b600081359050610c3481610c0e565b92915050565b600060208284031215610c5057610c4f610b61565b5b6000610c5e84828501610c25565b91505092915050565b610c7081610c04565b82525050565b600081519050919050565b600082825260208201905092915050565b60005b83811015610cb0578082015181840152602081019050610c95565b60008484015250505050565b6000601f19601f8301169050919050565b6000610cd882610c76565b610ce28185610c81565b9350610cf2818560208601610c92565b610cfb81610cbc565b840191505092915050565b600073ffffffffffffffffffffffffffffffffffffffff82169050919050565b6000610d3182610d06565b9050919050565b610d4181610d26565b82525050565b610d5081610b6b565b82525050565b600060c082019050610d6b6000830189610c67565b8181036020830152610d7d8188610ccd565b90508181036040830152610d918187610ccd565b9050610da06060830186610d38565b610dad6080830185610d47565b610dba60a0830184610bda565b979650505050505050565b600080fd5b600080fd5b7f4e487b7100000000000000000000000000000000000000000000000000000000600052604160045260246000fd5b610e0782610cbc565b810181811067ffffffffffffffff82111715610e2657610e25610dcf565b5b80604052505050565b6000610e39610b57565b9050610e458282610dfe565b919050565b600067ffffffffffffffff821115610e6557610e64610dcf565b5b610e6e82610cbc565b9050602081019050919050565b82818337600083830152505050565b6000610e9d610e9884610e4a565b610e2f565b905082815260208101848484011115610eb957610eb8610dca565b5b610ec4848285610e7b565b509392505050565b600082601f830112610ee157610ee0610dc5565b5b8135610ef1848260208601610e8a565b91505092915050565b60008060408385031215610f1157610f10610b61565b5b600083013567ffffffffffffffff811115610f2f57610f2e610b66565b5b610f3b85828601610ecc565b925050602083013567ffffffffffffffff811115610f5c57610f5b610b66565b5b610f6885828601610ecc565b9150509250929050565b6000819050919050565b6000610f97610f92610f8d84610d06565b610f72565b610d06565b9050919050565b6000610fa982610f7c565b9050919050565b6000610fbb82610f9e565b9050919050565b610fcb81610fb0565b82525050565b6000602082019050610fe66000830184610fc2565b92915050565b60006020820190506110016000830184610c67565b92915050565b600060208201905061101c6000830184610d38565b92915050565b600061102d82610f9e565b9050919050565b61103d81611022565b82525050565b60006020820190506110586000830184611034565b92915050565b61106781610d26565b811461107257600080fd5b50565b6000813590506110848161105e565b92915050565b6000602082840312156110a05761109f610b61565b5b60006110ae84828501611075565b91505092915050565b6110c081610bce565b81146110cb57600080fd5b50565b6000813590506110dd816110b7565b92915050565b600080604083850312156110fa576110f9610b61565b5b600061110885828601610c25565b9250506020611119858286016110ce565b9150509250929050565b7f4e487b7100000000000000000000000000000000000000000000000000000000600052602260045260246000fd5b6000600282049050600182168061116a57607f821691505b60208210810361117d5761117c611123565b5b50919050565b7f4e487b7100000000000000000000000000000000000000000000000000000000600052601160045260246000fd5b60006111bd82610c04565b91507fffffffffffffffffffffffffffffffffffffffffffffffffffffffffffffffff82036111ef576111ee611183565b5b600182019050919050565b600081905092915050565b600061121082610c76565b61121a81856111fa565b935061122a818560208601610c92565b80840191505092915050565b60008160601b9050919050565b600061124e82611236565b9050919050565b600061126082611243565b9050919050565b61127861127382610d26565b611255565b82525050565b6000819050919050565b61129961129482610c04565b61127e565b82525050565b60006112ab8287611205565b91506112b78286611205565b91506112c38285611267565b6014820191506112d38284611288565b60208201915081905095945050505050565b7f7265676973746572000000000000000000000000000000000000000000000000600082015250565b600061131b6008836111fa565b9150611326826112e5565b600882019050919050565b600061133c8261130e565b9150819050919050565b600081519050919050565b600082825260208201905092915050565b600061136d82611346565b6113778185611351565b9350611387818560208601610c92565b61139081610cbc565b840191505092915050565b600060408201905081810360008301526113b58185611362565b90506113c46020830184610d47565b9392505050565b6000815190506113da81610b75565b92915050565b6000602082840312156113f6576113f5610b61565b5b6000611404848285016113cb565b91505092915050565b7f4475706c69636174652070726f6a656374206465746563746564000000000000600082015250565b6000611443601a83610c81565b915061144e8261140d565b602082019050919050565b6000602082019050818103600083015261147281611436565b9050919050565b60008190508160005260206000209050919050565b60006020601f8301049050919050565b600082821b905092915050565b6000600883026114db7fffffffffffffffffffffffffffffffffffffffffffffffffffffffffffffffff8261149e565b6114e5868361149e565b95508019841693508086168417925050509392505050565b600061151861151361150e84610c04565b610f72565b610c04565b9050919050565b6000819050919050565b611532836114fd565b61154661153e8261151f565b8484546114ab565b825550505050565b600090565b61155b61154e565b611566818484611529565b505050565b5b8181101561158a5761157f600082611553565b60018101905061156c565b5050565b601f8211156115cf576115a081611479565b6115a98461148e565b810160208510156115b8578190505b6115cc6115c48561148e565b83018261156b565b50505b505050565b600082821c905092915050565b60006115f2600019846008026115d4565b1980831691505092915050565b600061160b83836115e1565b9150826002028217905092915050565b61162482610c76565b67ffffffffffffffff81111561163d5761163c610dcf565b5b6116478254611152565b61165282828561158e565b600060209050601f8311600181146116855760008415611673578287015190505b61167d85826115ff565b8655506116e5565b601f19841661169386611479565b60005b828110156116bb57848901518255600182019150602085019450602081019050611696565b868310156116d857848901516116d4601f8916826115e1565b8355505b6001600288020188555050505b505050505050565b600060408201905081810360008301526117078185610ccd565b90506117166020830184610d47565b9392505050565b7f4f6e6c792070726f6a656374206f776e65722063616e20757064617465000000600082015250565b6000611753601d83610c81565b915061175e8261171d565b602082019050919050565b6000602082019050818103600083015261178281611746565b9050919050565b60008160f81b9050919050565b60006117a182611789565b9050919050565b60006117b382611796565b9050919050565b6117cb6117c682610bce565b6117a8565b82525050565b60006117dd8286611288565b6020820191506117ed82856117ba565b6001820191506117fd8284611288565b602082019150819050949350505050565b7f7570646174650000000000000000000000000000000000000000000000000000600082015250565b60006118446006836111fa565b915061184f8261180e565b600682019050919050565b600061186582611837565b9150819050919050565b7f4475706c69636174652075706461746520646574656374656400000000000000600082015250565b60006118a5601983610c81565b91506118b08261186f565b602082019050919050565b600060208201905081810360008301526118d481611898565b9050919050565b60006040820190506118f06000830185610bda565b6118fd6020830184610d47565b939250505056fea26469706673582212205a48c10fd332a1ad571c1957cc145162535e2671e032f0daaa275c1e2630321264736f6c63430008140033",
  "immutableReferences": {},
  "source": "// SPDX-License-Identifier: MIT\npragma solidity ^0.8.20;\n\nimport \"@openzeppelin/contracts/access/Ownable.sol\"; //    Ownable  OpenZeppelin\nimport \"./AccControl.sol\"; //    AccControl   \nimport \"./CustomHash.sol\"; //    CustomHash    \n\n/**\n * @title ProjectMon\n * @dev      DAO-VC\n */\ncontract ProjectMon is Ownable {\n    AccControl public accControl; //       AccControl\n    CustomHash public hasher; //        \n\n    //  Project          \n    struct Project {\n        uint256 id;\n        string name;\n        string description;\n        address owner;\n        bytes32 hash;\n        bool isCompleted;\n    }\n\n    uint256 public projectCount; //  \n    mapping(uint256 => Project) public projects; //    \n    mapping(bytes32 => bool) public projectHashes; //           \n\n    //      \n    event ProjectRegistered(uint256 indexed projectId, string name, address indexed owner, bytes32 hash);\n    event ProjectUpdated(uint256 indexed projectId, bool isCompleted, bytes32 hash);\n\n    /**\n     * @dev  \n     * @param initialOwner   \n     * @param _accControl   AccControl\n     * @param _hasher    \n     */\n    constructor(address initialOwner, address _accControl, address _hasher) Ownable(initialOwner) {\n        accControl = AccControl(_accControl);\n        hasher = CustomHash(_hasher);\n    }\n\n    /**\n     * @dev Modifier           \n     * @param projectId  \n     */\n    modifier onlyProjectOwner(uint256 projectId) {\n        require(projects[projectId].owner == msg.sender, \"Only project owner can update\");\n        _;\n    }\n\n    /**\n     * @dev   \n     * @param name  \n     * @param description  \n     */\n    function registerProject(string memory name, string memory description) external {\n        projectCount++;\n        bytes32 projectHash = hasher.customHash(abi.encodePacked(name, description, msg.sender, block.timestamp), keccak256(abi.encodePacked(\"register\")));\n        require(!projectHashes[projectHash], \"Duplicate project detected\");\n\n        projects[projectCount] = Project({\n            id: projectCount,\n            name: name,\n            description: description,\n            owner: msg.sender,\n            hash: projectHash,\n            isCompleted: false\n        });\n        projectHashes[projectHash] = true;\n\n        emit ProjectRegistered(projectCount, name, msg.sender, projectHash);\n    }\n\n    /**\n     * @dev   \n     * @param projectId  \n     * @param isCompleted    \n     */\n    function updateProjectStatus(uint256 projectId, bool isCompleted) external onlyProjectOwner(projectId) {\n        bytes32 updateHash = hasher.customHash(abi.encodePacked(projectId, isCompleted, block.timestamp), keccak256(abi.encodePacked(\"update\")));\n        require(!projectHashes[updateHash], \"Duplicate update detected\");\n\n        projects[projectId].isCompleted = isCompleted;\n        projectHashes[updateHash] = true;\n\n        emit ProjectUpdated(projectId, isCompleted, updateHash);\n    }\n}",
  "sourcePath": "/home/errick/master/contracts/ProjectMon.sol",
  "compiler": {
    "name": "solc",
    "version": "0.8.20+commit.a1b79de6.Emscripten.clang"
  },
  "schemaVersion": "3.4.16",
  "updatedAt": "2025-01-30T09:52:58.869Z",
  "networkType": "ethereum",
  "devdoc": {
    "details": "     DAO-VC",
    "errors": {
      "OwnableInvalidOwner(address)": [
        {
          "details": "The owner is not a valid owner account. (eg. `address(0)`)"
        }
      ],
      "OwnableUnauthorizedAccount(address)": [
        {
          "details": "The caller account is not authorized to perform an operation."
        }
      ]
    },
    "kind": "dev",
    "methods": {
      "constructor": {
        "details": " ",
        "params": {
          "_accControl": "  AccControl",
          "_hasher": "   ",
          "initialOwner": "  "
        }
      },
      "owner()": {
        "details": "Returns the address of the current owner."
      },
      "registerProject(string,string)": {
        "details": "  ",
        "params": {
          "description": " ",
          "name": " "
        }
      },
      "renounceOwnership()": {
        "details": "Leaves the contract without owner. It will not be possible to call `onlyOwner` functions. Can only be called by the current owner. NOTE: Renouncing ownership will leave the contract without an owner, thereby disabling any functionality that is only available to the owner."
      },
      "transferOwnership(address)": {
        "details": "Transfers ownership of the contract to a new account (`newOwner`). Can only be called by the current owner."
      },
      "updateProjectStatus(uint256,bool)": {
        "details": "  ",
        "params": {
          "isCompleted": "   ",
          "projectId": " "
        }
      }
    },
    "title": "ProjectMon",
    "version": 1
  },
  "userdoc": {
    "kind": "user",
    "methods": {},
    "version": 1
  }
}