{
  "contractName": "Token",
  "abi": [
    {
      "inputs": [
        {
          "internalType": "uint256",
          "name": "initialSupply",
          "type": "uint256"
        },
        {
          "internalType": "address",
          "name": "initialOwner",
          "type": "address"
        },
        {
          "internalType": "address",
          "name": "_accControl",
          "type": "address"
        },
        {
          "internalType": "address",
          "name": "_hasher",
          "type": "address"
        }
      ],
      "stateMutability": "nonpayable",
      "type": "constructor"
    },
    {
      "inputs": [
        {
          "internalType": "address",
          "name": "spender",
          "type": "address"
        },
        {
          "internalType": "uint256",
          "name": "allowance",
          "type": "uint256"
        },
        {
          "internalType": "uint256",
          "name": "needed",
          "type": "uint256"
        }
      ],
      "name": "ERC20InsufficientAllowance",
      "type": "error"
    },
    {
      "inputs": [
        {
          "internalType": "address",
          "name": "sender",
          "type": "address"
        },
        {
          "internalType": "uint256",
          "name": "balance",
          "type": "uint256"
        },
        {
          "internalType": "uint256",
          "name": "needed",
          "type": "uint256"
        }
      ],
      "name": "ERC20InsufficientBalance",
      "type": "error"
    },
    {
      "inputs": [
        {
          "internalType": "address",
          "name": "approver",
          "type": "address"
        }
      ],
      "name": "ERC20InvalidApprover",
      "type": "error"
    },
    {
      "inputs": [
        {
          "internalType": "address",
          "name": "receiver",
          "type": "address"
        }
      ],
      "name": "ERC20InvalidReceiver",
      "type": "error"
    },
    {
      "inputs": [
        {
          "internalType": "address",
          "name": "sender",
          "type": "address"
        }
      ],
      "name": "ERC20InvalidSender",
      "type": "error"
    },
    {
      "inputs": [
        {
          "internalType": "address",
          "name": "spender",
          "type": "address"
        }
      ],
      "name": "ERC20InvalidSpender",
      "type": "error"
    },
    {
      "inputs": [
        {
          "internalType": "address",
          "name": "owner",
          "type": "address"
        }
      ],
      "name": "OwnableInvalidOwner",
      "type": "error"
    },
    {
      "inputs": [
        {
          "internalType": "address",
          "name": "account",
          "type": "address"
        }
      ],
      "name": "OwnableUnauthorizedAccount",
      "type": "error"
    },
    {
      "anonymous": false,
      "inputs": [
        {
          "indexed": true,
          "internalType": "address",
          "name": "owner",
          "type": "address"
        },
        {
          "indexed": true,
          "internalType": "address",
          "name": "spender",
          "type": "address"
        },
        {
          "indexed": false,
          "internalType": "uint256",
          "name": "value",
          "type": "uint256"
        }
      ],
      "name": "Approval",
      "type": "event"
    },
    {
      "anonymous": false,
      "inputs": [
        {
          "indexed": true,
          "internalType": "uint256",
          "name": "assetId",
          "type": "uint256"
        },
        {
          "indexed": false,
          "internalType": "string",
          "name": "assetType",
          "type": "string"
        },
        {
          "indexed": false,
          "internalType": "uint256",
          "name": "valueInTokens",
          "type": "uint256"
        },
        {
          "indexed": true,
          "internalType": "address",
          "name": "owner",
          "type": "address"
        },
        {
          "indexed": false,
          "internalType": "bytes32",
          "name": "hash",
          "type": "bytes32"
        }
      ],
      "name": "AssetRegistered",
      "type": "event"
    },
    {
      "anonymous": false,
      "inputs": [
        {
          "indexed": true,
          "internalType": "uint256",
          "name": "assetId",
          "type": "uint256"
        },
        {
          "indexed": true,
          "internalType": "address",
          "name": "from",
          "type": "address"
        },
        {
          "indexed": true,
          "internalType": "address",
          "name": "to",
          "type": "address"
        },
        {
          "indexed": false,
          "internalType": "uint256",
          "name": "valueInTokens",
          "type": "uint256"
        },
        {
          "indexed": false,
          "internalType": "bytes32",
          "name": "hash",
          "type": "bytes32"
        }
      ],
      "name": "AssetTransferred",
      "type": "event"
    },
    {
      "anonymous": false,
      "inputs": [
        {
          "indexed": true,
          "internalType": "address",
          "name": "previousOwner",
          "type": "address"
        },
        {
          "indexed": true,
          "internalType": "address",
          "name": "newOwner",
          "type": "address"
        }
      ],
      "name": "OwnershipTransferred",
      "type": "event"
    },
    {
      "anonymous": false,
      "inputs": [
        {
          "indexed": true,
          "internalType": "uint256",
          "name": "assetId",
          "type": "uint256"
        },
        {
          "indexed": true,
          "internalType": "address",
          "name": "owner",
          "type": "address"
        },
        {
          "indexed": false,
          "internalType": "uint256",
          "name": "valueInTokens",
          "type": "uint256"
        },
        {
          "indexed": false,
          "internalType": "bytes32",
          "name": "hash",
          "type": "bytes32"
        }
      ],
      "name": "Tokenized",
      "type": "event"
    },
    {
      "anonymous": false,
      "inputs": [
        {
          "indexed": true,
          "internalType": "address",
          "name": "from",
          "type": "address"
        },
        {
          "indexed": true,
          "internalType": "address",
          "name": "to",
          "type": "address"
        },
        {
          "indexed": false,
          "internalType": "uint256",
          "name": "value",
          "type": "uint256"
        }
      ],
      "name": "Transfer",
      "type": "event"
    },
    {
      "inputs": [],
      "name": "accControl",
      "outputs": [
        {
          "internalType": "contract AccControl",
          "name": "",
          "type": "address"
        }
      ],
      "stateMutability": "view",
      "type": "function",
      "constant": true
    },
    {
      "inputs": [
        {
          "internalType": "address",
          "name": "owner",
          "type": "address"
        },
        {
          "internalType": "address",
          "name": "spender",
          "type": "address"
        }
      ],
      "name": "allowance",
      "outputs": [
        {
          "internalType": "uint256",
          "name": "",
          "type": "uint256"
        }
      ],
      "stateMutability": "view",
      "type": "function",
      "constant": true
    },
    {
      "inputs": [
        {
          "internalType": "address",
          "name": "spender",
          "type": "address"
        },
        {
          "internalType": "uint256",
          "name": "value",
          "type": "uint256"
        }
      ],
      "name": "approve",
      "outputs": [
        {
          "internalType": "bool",
          "name": "",
          "type": "bool"
        }
      ],
      "stateMutability": "nonpayable",
      "type": "function"
    },
    {
      "inputs": [
        {
          "internalType": "uint256",
          "name": "",
          "type": "uint256"
        }
      ],
      "name": "assets",
      "outputs": [
        {
          "internalType": "uint256",
          "name": "id",
          "type": "uint256"
        },
        {
          "internalType": "string",
          "name": "assetType",
          "type": "string"
        },
        {
          "internalType": "string",
          "name": "metadata",
          "type": "string"
        },
        {
          "internalType": "uint256",
          "name": "valueInTokens",
          "type": "uint256"
        },
        {
          "internalType": "address",
          "name": "owner",
          "type": "address"
        },
        {
          "internalType": "bytes32",
          "name": "hash",
          "type": "bytes32"
        }
      ],
      "stateMutability": "view",
      "type": "function",
      "constant": true
    },
    {
      "inputs": [
        {
          "internalType": "address",
          "name": "account",
          "type": "address"
        }
      ],
      "name": "balanceOf",
      "outputs": [
        {
          "internalType": "uint256",
          "name": "",
          "type": "uint256"
        }
      ],
      "stateMutability": "view",
      "type": "function",
      "constant": true
    },
    {
      "inputs": [],
      "name": "decimals",
      "outputs": [
        {
          "internalType": "uint8",
          "name": "",
          "type": "uint8"
        }
      ],
      "stateMutability": "view",
      "type": "function",
      "constant": true
    },
    {
      "inputs": [],
      "name": "hasher",
      "outputs": [
        {
          "internalType": "contract CustomHash",
          "name": "",
          "type": "address"
        }
      ],
      "stateMutability": "view",
      "type": "function",
      "constant": true
    },
    {
      "inputs": [],
      "name": "name",
      "outputs": [
        {
          "internalType": "string",
          "name": "",
          "type": "string"
        }
      ],
      "stateMutability": "view",
      "type": "function",
      "constant": true
    },
    {
      "inputs": [
        {
          "internalType": "address",
          "name": "",
          "type": "address"
        },
        {
          "internalType": "uint256",
          "name": "",
          "type": "uint256"
        }
      ],
      "name": "ownedAssets",
      "outputs": [
        {
          "internalType": "uint256",
          "name": "",
          "type": "uint256"
        }
      ],
      "stateMutability": "view",
      "type": "function",
      "constant": true
    },
    {
      "inputs": [],
      "name": "owner",
      "outputs": [
        {
          "internalType": "address",
          "name": "",
          "type": "address"
        }
      ],
      "stateMutability": "view",
      "type": "function",
      "constant": true
    },
    {
      "inputs": [],
      "name": "renounceOwnership",
      "outputs": [],
      "stateMutability": "nonpayable",
      "type": "function"
    },
    {
      "inputs": [],
      "name": "symbol",
      "outputs": [
        {
          "internalType": "string",
          "name": "",
          "type": "string"
        }
      ],
      "stateMutability": "view",
      "type": "function",
      "constant": true
    },
    {
      "inputs": [],
      "name": "totalSupply",
      "outputs": [
        {
          "internalType": "uint256",
          "name": "",
          "type": "uint256"
        }
      ],
      "stateMutability": "view",
      "type": "function",
      "constant": true
    },
    {
      "inputs": [
        {
          "internalType": "bytes32",
          "name": "",
          "type": "bytes32"
        }
      ],
      "name": "transactionHashes",
      "outputs": [
        {
          "internalType": "bool",
          "name": "",
          "type": "bool"
        }
      ],
      "stateMutability": "view",
      "type": "function",
      "constant": true
    },
    {
      "inputs": [
        {
          "internalType": "address",
          "name": "to",
          "type": "address"
        },
        {
          "internalType": "uint256",
          "name": "value",
          "type": "uint256"
        }
      ],
      "name": "transfer",
      "outputs": [
        {
          "internalType": "bool",
          "name": "",
          "type": "bool"
        }
      ],
      "stateMutability": "nonpayable",
      "type": "function"
    },
    {
      "inputs": [
        {
          "internalType": "address",
          "name": "from",
          "type": "address"
        },
        {
          "internalType": "address",
          "name": "to",
          "type": "address"
        },
        {
          "internalType": "uint256",
          "name": "value",
          "type": "uint256"
        }
      ],
      "name": "transferFrom",
      "outputs": [
        {
          "internalType": "bool",
          "name": "",
          "type": "bool"
        }
      ],
      "stateMutability": "nonpayable",
      "type": "function"
    },
    {
      "inputs": [
        {
          "internalType": "address",
          "name": "newOwner",
          "type": "address"
        }
      ],
      "name": "transferOwnership",
      "outputs": [],
      "stateMutability": "nonpayable",
      "type": "function"
    },
    {
      "inputs": [
        {
          "internalType": "string",
          "name": "assetType",
          "type": "string"
        },
        {
          "internalType": "string",
          "name": "metadata",
          "type": "string"
        },
        {
          "internalType": "uint256",
          "name": "valueInTokens",
          "type": "uint256"
        }
      ],
      "name": "registerAsset",
      "outputs": [],
      "stateMutability": "nonpayable",
      "type": "function"
    },
    {
      "inputs": [
        {
          "internalType": "uint256",
          "name": "assetId",
          "type": "uint256"
        },
        {
          "internalType": "address",
          "name": "to",
          "type": "address"
        }
      ],
      "name": "transferAsset",
      "outputs": [],
      "stateMutability": "nonpayable",
      "type": "function"
    },
    {
      "inputs": [
        {
          "internalType": "uint256",
          "name": "assetId",
          "type": "uint256"
        }
      ],
      "name": "tokenizeAsset",
      "outputs": [],
      "stateMutability": "nonpayable",
      "type": "function"
    }
  ],
  "bytecode": "0x60806040523480156200001157600080fd5b506040516200340a3803806200340a833981810160405281019062000037919062000617565b826040518060400160405280600b81526020017f526179616e20546f6b656e0000000000000000000000000000000000000000008152506040518060400160405280600381526020017f52594300000000000000000000000000000000000000000000000000000000008152508160039081620000b59190620008f9565b508060049081620000c79190620008f9565b505050600073ffffffffffffffffffffffffffffffffffffffff168173ffffffffffffffffffffffffffffffffffffffff16036200013f5760006040517f1e4fbdf7000000000000000000000000000000000000000000000000000000008152600401620001369190620009f1565b60405180910390fd5b6200015081620001ef60201b60201c565b50620001633385620002b560201b60201c565b81600660006101000a81548173ffffffffffffffffffffffffffffffffffffffff021916908373ffffffffffffffffffffffffffffffffffffffff16021790555080600760006101000a81548173ffffffffffffffffffffffffffffffffffffffff021916908373ffffffffffffffffffffffffffffffffffffffff1602179055505050505062000ae3565b6000600560009054906101000a900473ffffffffffffffffffffffffffffffffffffffff16905081600560006101000a81548173ffffffffffffffffffffffffffffffffffffffff021916908373ffffffffffffffffffffffffffffffffffffffff1602179055508173ffffffffffffffffffffffffffffffffffffffff168173ffffffffffffffffffffffffffffffffffffffff167f8be0079c531659141344cd1fd0a4f28419497f9722a3daafe3b4186f6b6457e060405160405180910390a35050565b600073ffffffffffffffffffffffffffffffffffffffff168273ffffffffffffffffffffffffffffffffffffffff16036200032a5760006040517fec442f05000000000000000000000000000000000000000000000000000000008152600401620003219190620009f1565b60405180910390fd5b6200033e600083836200034260201b60201c565b5050565b600073ffffffffffffffffffffffffffffffffffffffff168373ffffffffffffffffffffffffffffffffffffffff1603620003985780600260008282546200038b919062000a3d565b925050819055506200046e565b60008060008573ffffffffffffffffffffffffffffffffffffffff1673ffffffffffffffffffffffffffffffffffffffff1681526020019081526020016000205490508181101562000427578381836040517fe450d38c0000000000000000000000000000000000000000000000000000000081526004016200041e9392919062000a89565b60405180910390fd5b8181036000808673ffffffffffffffffffffffffffffffffffffffff1673ffffffffffffffffffffffffffffffffffffffff16815260200190815260200160002081905550505b600073ffffffffffffffffffffffffffffffffffffffff168273ffffffffffffffffffffffffffffffffffffffff1603620004b9578060026000828254039250508190555062000506565b806000808473ffffffffffffffffffffffffffffffffffffffff1673ffffffffffffffffffffffffffffffffffffffff168152602001908152602001600020600082825401925050819055505b8173ffffffffffffffffffffffffffffffffffffffff168373ffffffffffffffffffffffffffffffffffffffff167fddf252ad1be2c89b69c2b068fc378daa952ba7f163c4a11628f55a4df523b3ef8360405162000565919062000ac6565b60405180910390a3505050565b600080fd5b6000819050919050565b6200058c8162000577565b81146200059857600080fd5b50565b600081519050620005ac8162000581565b92915050565b600073ffffffffffffffffffffffffffffffffffffffff82169050919050565b6000620005df82620005b2565b9050919050565b620005f181620005d2565b8114620005fd57600080fd5b50565b6000815190506200061181620005e6565b92915050565b6000806000806080858703121562000634576200063362000572565b5b600062000644878288016200059b565b9450506020620006578782880162000600565b93505060406200066a8782880162000600565b92505060606200067d8782880162000600565b91505092959194509250565b600081519050919050565b7f4e487b7100000000000000000000000000000000000000000000000000000000600052604160045260246000fd5b7f4e487b7100000000000000000000000000000000000000000000000000000000600052602260045260246000fd5b600060028204905060018216806200070b57607f821691505b602082108103620007215762000720620006c3565b5b50919050565b60008190508160005260206000209050919050565b60006020601f8301049050919050565b600082821b905092915050565b6000600883026200078b7fffffffffffffffffffffffffffffffffffffffffffffffffffffffffffffffff826200074c565b6200079786836200074c565b95508019841693508086168417925050509392505050565b6000819050919050565b6000620007da620007d4620007ce8462000577565b620007af565b62000577565b9050919050565b6000819050919050565b620007f683620007b9565b6200080e6200080582620007e1565b84845462000759565b825550505050565b600090565b6200082562000816565b62000832818484620007eb565b505050565b5b818110156200085a576200084e6000826200081b565b60018101905062000838565b5050565b601f821115620008a957620008738162000727565b6200087e846200073c565b810160208510156200088e578190505b620008a66200089d856200073c565b83018262000837565b50505b505050565b600082821c905092915050565b6000620008ce60001984600802620008ae565b1980831691505092915050565b6000620008e98383620008bb565b9150826002028217905092915050565b620009048262000689565b67ffffffffffffffff81111562000920576200091f62000694565b5b6200092c8254620006f2565b620009398282856200085e565b600060209050601f8311600181146200097157600084156200095c578287015190505b620009688582620008db565b865550620009d8565b601f198416620009818662000727565b60005b82811015620009ab5784890151825560018201915060208501945060208101905062000984565b86831015620009cb5784890151620009c7601f891682620008bb565b8355505b6001600288020188555050505b505050505050565b620009eb81620005d2565b82525050565b600060208201905062000a086000830184620009e0565b92915050565b7f4e487b7100000000000000000000000000000000000000000000000000000000600052601160045260246000fd5b600062000a4a8262000577565b915062000a578362000577565b925082820190508082111562000a725762000a7162000a0e565b5b92915050565b62000a838162000577565b82525050565b600060608201905062000aa06000830186620009e0565b62000aaf602083018562000a78565b62000abe604083018462000a78565b949350505050565b600060208201905062000add600083018462000a78565b92915050565b6129178062000af36000396000f3fe608060405234801561001057600080fd5b506004361061012c5760003560e01c8063715018a6116100ad578063dd62ed3e11610071578063dd62ed3e1461034c578063e048bce31461037c578063ed33639f146103ac578063f2fde38b146103ca578063fa62ee8d146103e65761012c565b8063715018a6146102a15780638da5cb5b146102ab57806395d89b41146102c9578063a9059cbb146102e7578063cf35bdd0146103175761012c565b8063313ce567116100f4578063313ce567146101fd578063345c35371461021b578063463c7d6f146102395780636e7bd1891461025557806370a08231146102715761012c565b806306fdde0314610131578063095ea7b31461014f57806309fb61f51461017f57806318160ddd146101af57806323b872dd146101cd575b600080fd5b610139610402565b6040516101469190611a57565b60405180910390f35b61016960048036038101906101649190611b21565b610494565b6040516101769190611b7c565b60405180910390f35b61019960048036038101906101949190611bcd565b6104b7565b6040516101a69190611b7c565b60405180910390f35b6101b76104d7565b6040516101c49190611c09565b60405180910390f35b6101e760048036038101906101e29190611c24565b6104e1565b6040516101f49190611b7c565b60405180910390f35b610205610510565b6040516102129190611c93565b60405180910390f35b610223610519565b6040516102309190611d0d565b60405180910390f35b610253600480360381019061024e9190611e5d565b61053f565b005b61026f600480360381019061026a9190611ee8565b610857565b005b61028b60048036038101906102869190611f15565b610af2565b6040516102989190611c09565b60405180910390f35b6102a9610b3a565b005b6102b3610b4e565b6040516102c09190611f51565b60405180910390f35b6102d1610b78565b6040516102de9190611a57565b60405180910390f35b61030160048036038101906102fc9190611b21565b610c0a565b60405161030e9190611b7c565b60405180910390f35b610331600480360381019061032c9190611ee8565b610c2d565b60405161034396959493929190611f7b565b60405180910390f35b61036660048036038101906103619190611fea565b610d99565b6040516103739190611c09565b60405180910390f35b61039660048036038101906103919190611b21565b610e20565b6040516103a39190611c09565b60405180910390f35b6103b4610e51565b6040516103c1919061204b565b60405180910390f35b6103e460048036038101906103df9190611f15565b610e77565b005b61040060048036038101906103fb9190612066565b610efd565b005b606060038054610411906120d5565b80601f016020809104026020016040519081016040528092919081815260200182805461043d906120d5565b801561048a5780601f1061045f5761010080835404028352916020019161048a565b820191906000526020600020905b81548152906001019060200180831161046d57829003601f168201915b5050505050905090565b60008061049f6111d8565b90506104ac8185856111e0565b600191505092915050565b600b6020528060005260406000206000915054906101000a900460ff1681565b6000600254905090565b6000806104ec6111d8565b90506104f98582856111f2565b610504858585611287565b60019150509392505050565b60006012905090565b600660009054906101000a900473ffffffffffffffffffffffffffffffffffffffff1681565b60008111610582576040517f08c379a000000000000000000000000000000000000000000000000000000000815260040161057990612178565b60405180910390fd5b61058c600861137b565b60006105986008611391565b90506000600760009054906101000a900473ffffffffffffffffffffffffffffffffffffffff1673ffffffffffffffffffffffffffffffffffffffff1663423a969f85426040516020016105ed9291906121f5565b60405160208183030381529060405260405160200161060b90612269565b604051602081830303815290604052805190602001206040518363ffffffff1660e01b815260040161063e9291906122d3565b602060405180830381865afa15801561065b573d6000803e3d6000fd5b505050506040513d601f19601f8201168201806040525081019061067f9190612318565b90506040518060c001604052808381526020018681526020018581526020018481526020013373ffffffffffffffffffffffffffffffffffffffff16815260200182815250600960008481526020019081526020016000206000820151816000015560208201518160010190816106f691906124e7565b50604082015181600201908161070c91906124e7565b506060820151816003015560808201518160040160006101000a81548173ffffffffffffffffffffffffffffffffffffffff021916908373ffffffffffffffffffffffffffffffffffffffff16021790555060a08201518160050155905050600a60003373ffffffffffffffffffffffffffffffffffffffff1673ffffffffffffffffffffffffffffffffffffffff1681526020019081526020016000208290806001815401808255809150506001900390600052602060002001600090919091909150556001600b600083815260200190815260200160002060006101000a81548160ff0219169083151502179055503373ffffffffffffffffffffffffffffffffffffffff16827f94cf1004cd9f1a2c638167f4a6a3b9f81c543922d721a60380d98ece0a578ed7878685604051610848939291906125b9565b60405180910390a35050505050565b60006009600083815260200190815260200160002090503373ffffffffffffffffffffffffffffffffffffffff168160040160009054906101000a900473ffffffffffffffffffffffffffffffffffffffff1673ffffffffffffffffffffffffffffffffffffffff1614610900576040517f08c379a00000000000000000000000000000000000000000000000000000000081526004016108f790612669565b60405180910390fd5b6000600760009054906101000a900473ffffffffffffffffffffffffffffffffffffffff1673ffffffffffffffffffffffffffffffffffffffff1663423a969f843342604051602001610955939291906126d1565b6040516020818303038152906040526040516020016109739061275a565b604051602081830303815290604052805190602001206040518363ffffffff1660e01b81526004016109a69291906122d3565b602060405180830381865afa1580156109c3573d6000803e3d6000fd5b505050506040513d601f19601f820116820180604052508101906109e79190612318565b90506109f733836003015461139f565b60096000848152602001908152602001600020600080820160009055600182016000610a23919061196a565b600282016000610a33919061196a565b60038201600090556004820160006101000a81549073ffffffffffffffffffffffffffffffffffffffff0219169055600582016000905550506001600b600083815260200190815260200160002060006101000a81548160ff0219169083151502179055503373ffffffffffffffffffffffffffffffffffffffff16837fecb6138c1461ed1ee1be197bd9bfd4484c46a94e40e658f981e7e84f0b997666846003015484604051610ae592919061276f565b60405180910390a3505050565b60008060008373ffffffffffffffffffffffffffffffffffffffff1673ffffffffffffffffffffffffffffffffffffffff168152602001908152602001600020549050919050565b610b42611421565b610b4c60006114a8565b565b6000600560009054906101000a900473ffffffffffffffffffffffffffffffffffffffff16905090565b606060048054610b87906120d5565b80601f0160208091040260200160405190810160405280929190818152602001828054610bb3906120d5565b8015610c005780601f10610bd557610100808354040283529160200191610c00565b820191906000526020600020905b815481529060010190602001808311610be357829003601f168201915b5050505050905090565b600080610c156111d8565b9050610c22818585611287565b600191505092915050565b6009602052806000526040600020600091509050806000015490806001018054610c56906120d5565b80601f0160208091040260200160405190810160405280929190818152602001828054610c82906120d5565b8015610ccf5780601f10610ca457610100808354040283529160200191610ccf565b820191906000526020600020905b815481529060010190602001808311610cb257829003601f168201915b505050505090806002018054610ce4906120d5565b80601f0160208091040260200160405190810160405280929190818152602001828054610d10906120d5565b8015610d5d5780601f10610d3257610100808354040283529160200191610d5d565b820191906000526020600020905b815481529060010190602001808311610d4057829003601f168201915b5050505050908060030154908060040160009054906101000a900473ffffffffffffffffffffffffffffffffffffffff16908060050154905086565b6000600160008473ffffffffffffffffffffffffffffffffffffffff1673ffffffffffffffffffffffffffffffffffffffff16815260200190815260200160002060008373ffffffffffffffffffffffffffffffffffffffff1673ffffffffffffffffffffffffffffffffffffffff16815260200190815260200160002054905092915050565b600a6020528160005260406000208181548110610e3c57600080fd5b90600052602060002001600091509150505481565b600760009054906101000a900473ffffffffffffffffffffffffffffffffffffffff1681565b610e7f611421565b600073ffffffffffffffffffffffffffffffffffffffff168173ffffffffffffffffffffffffffffffffffffffff1603610ef15760006040517f1e4fbdf7000000000000000000000000000000000000000000000000000000008152600401610ee89190611f51565b60405180910390fd5b610efa816114a8565b50565b60006009600084815260200190815260200160002090503373ffffffffffffffffffffffffffffffffffffffff168160040160009054906101000a900473ffffffffffffffffffffffffffffffffffffffff1673ffffffffffffffffffffffffffffffffffffffff1614610fa6576040517f08c379a0000000000000000000000000000000000000000000000000000000008152600401610f9d90612669565b60405180910390fd5b6000600760009054906101000a900473ffffffffffffffffffffffffffffffffffffffff1673ffffffffffffffffffffffffffffffffffffffff1663423a969f85338642604051602001610ffd9493929190612798565b60405160208183030381529060405260405160200161101b90612832565b604051602081830303815290604052805190602001206040518363ffffffff1660e01b815260040161104e9291906122d3565b602060405180830381865afa15801561106b573d6000803e3d6000fd5b505050506040513d601f19601f8201168201806040525081019061108f9190612318565b9050828260040160006101000a81548173ffffffffffffffffffffffffffffffffffffffff021916908373ffffffffffffffffffffffffffffffffffffffff160217905550600a60008473ffffffffffffffffffffffffffffffffffffffff1673ffffffffffffffffffffffffffffffffffffffff1681526020019081526020016000208490806001815401808255809150506001900390600052602060002001600090919091909150556001600b600083815260200190815260200160002060006101000a81548160ff0219169083151502179055508273ffffffffffffffffffffffffffffffffffffffff163373ffffffffffffffffffffffffffffffffffffffff16857f3d06fc6460324f684cc7863df0e2416a8abf37fd20cf63b4c0720dcbdfc00d188560030154856040516111ca92919061276f565b60405180910390a450505050565b600033905090565b6111ed838383600161156e565b505050565b60006111fe8484610d99565b90507fffffffffffffffffffffffffffffffffffffffffffffffffffffffffffffffff8110156112815781811015611271578281836040517ffb8f41b200000000000000000000000000000000000000000000000000000000815260040161126893929190612847565b60405180910390fd5b6112808484848403600061156e565b5b50505050565b600073ffffffffffffffffffffffffffffffffffffffff168373ffffffffffffffffffffffffffffffffffffffff16036112f95760006040517f96c6fd1e0000000000000000000000000000000000000000000000000000000081526004016112f09190611f51565b60405180910390fd5b600073ffffffffffffffffffffffffffffffffffffffff168273ffffffffffffffffffffffffffffffffffffffff160361136b5760006040517fec442f050000000000000000000000000000000000000000000000000000000081526004016113629190611f51565b60405180910390fd5b611376838383611745565b505050565b6001816000016000828254019250508190555050565b600081600001549050919050565b600073ffffffffffffffffffffffffffffffffffffffff168273ffffffffffffffffffffffffffffffffffffffff16036114115760006040517fec442f050000000000000000000000000000000000000000000000000000000081526004016114089190611f51565b60405180910390fd5b61141d60008383611745565b5050565b6114296111d8565b73ffffffffffffffffffffffffffffffffffffffff16611447610b4e565b73ffffffffffffffffffffffffffffffffffffffff16146114a65761146a6111d8565b6040517f118cdaa700000000000000000000000000000000000000000000000000000000815260040161149d9190611f51565b60405180910390fd5b565b6000600560009054906101000a900473ffffffffffffffffffffffffffffffffffffffff16905081600560006101000a81548173ffffffffffffffffffffffffffffffffffffffff021916908373ffffffffffffffffffffffffffffffffffffffff1602179055508173ffffffffffffffffffffffffffffffffffffffff168173ffffffffffffffffffffffffffffffffffffffff167f8be0079c531659141344cd1fd0a4f28419497f9722a3daafe3b4186f6b6457e060405160405180910390a35050565b600073ffffffffffffffffffffffffffffffffffffffff168473ffffffffffffffffffffffffffffffffffffffff16036115e05760006040517fe602df050000000000000000000000000000000000000000000000000000000081526004016115d79190611f51565b60405180910390fd5b600073ffffffffffffffffffffffffffffffffffffffff168373ffffffffffffffffffffffffffffffffffffffff16036116525760006040517f94280d620000000000000000000000000000000000000000000000000000000081526004016116499190611f51565b60405180910390fd5b81600160008673ffffffffffffffffffffffffffffffffffffffff1673ffffffffffffffffffffffffffffffffffffffff16815260200190815260200160002060008573ffffffffffffffffffffffffffffffffffffffff1673ffffffffffffffffffffffffffffffffffffffff16815260200190815260200160002081905550801561173f578273ffffffffffffffffffffffffffffffffffffffff168473ffffffffffffffffffffffffffffffffffffffff167f8c5be1e5ebec7d5bd14f71427d1e84f3dd0314c0f7b2291e5b200ac8c7c3b925846040516117369190611c09565b60405180910390a35b50505050565b600073ffffffffffffffffffffffffffffffffffffffff168373ffffffffffffffffffffffffffffffffffffffff160361179757806002600082825461178b91906128ad565b9250508190555061186a565b60008060008573ffffffffffffffffffffffffffffffffffffffff1673ffffffffffffffffffffffffffffffffffffffff16815260200190815260200160002054905081811015611823578381836040517fe450d38c00000000000000000000000000000000000000000000000000000000815260040161181a93929190612847565b60405180910390fd5b8181036000808673ffffffffffffffffffffffffffffffffffffffff1673ffffffffffffffffffffffffffffffffffffffff16815260200190815260200160002081905550505b600073ffffffffffffffffffffffffffffffffffffffff168273ffffffffffffffffffffffffffffffffffffffff16036118b35780600260008282540392505081905550611900565b806000808473ffffffffffffffffffffffffffffffffffffffff1673ffffffffffffffffffffffffffffffffffffffff168152602001908152602001600020600082825401925050819055505b8173ffffffffffffffffffffffffffffffffffffffff168373ffffffffffffffffffffffffffffffffffffffff167fddf252ad1be2c89b69c2b068fc378daa952ba7f163c4a11628f55a4df523b3ef8360405161195d9190611c09565b60405180910390a3505050565b508054611976906120d5565b6000825580601f1061198857506119a7565b601f0160209004906000526020600020908101906119a691906119aa565b5b50565b5b808211156119c35760008160009055506001016119ab565b5090565b600081519050919050565b600082825260208201905092915050565b60005b83811015611a015780820151818401526020810190506119e6565b60008484015250505050565b6000601f19601f8301169050919050565b6000611a29826119c7565b611a3381856119d2565b9350611a438185602086016119e3565b611a4c81611a0d565b840191505092915050565b60006020820190508181036000830152611a718184611a1e565b905092915050565b6000604051905090565b600080fd5b600080fd5b600073ffffffffffffffffffffffffffffffffffffffff82169050919050565b6000611ab882611a8d565b9050919050565b611ac881611aad565b8114611ad357600080fd5b50565b600081359050611ae581611abf565b92915050565b6000819050919050565b611afe81611aeb565b8114611b0957600080fd5b50565b600081359050611b1b81611af5565b92915050565b60008060408385031215611b3857611b37611a83565b5b6000611b4685828601611ad6565b9250506020611b5785828601611b0c565b9150509250929050565b60008115159050919050565b611b7681611b61565b82525050565b6000602082019050611b916000830184611b6d565b92915050565b6000819050919050565b611baa81611b97565b8114611bb557600080fd5b50565b600081359050611bc781611ba1565b92915050565b600060208284031215611be357611be2611a83565b5b6000611bf184828501611bb8565b91505092915050565b611c0381611aeb565b82525050565b6000602082019050611c1e6000830184611bfa565b92915050565b600080600060608486031215611c3d57611c3c611a83565b5b6000611c4b86828701611ad6565b9350506020611c5c86828701611ad6565b9250506040611c6d86828701611b0c565b9150509250925092565b600060ff82169050919050565b611c8d81611c77565b82525050565b6000602082019050611ca86000830184611c84565b92915050565b6000819050919050565b6000611cd3611cce611cc984611a8d565b611cae565b611a8d565b9050919050565b6000611ce582611cb8565b9050919050565b6000611cf782611cda565b9050919050565b611d0781611cec565b82525050565b6000602082019050611d226000830184611cfe565b92915050565b600080fd5b600080fd5b7f4e487b7100000000000000000000000000000000000000000000000000000000600052604160045260246000fd5b611d6a82611a0d565b810181811067ffffffffffffffff82111715611d8957611d88611d32565b5b80604052505050565b6000611d9c611a79565b9050611da88282611d61565b919050565b600067ffffffffffffffff821115611dc857611dc7611d32565b5b611dd182611a0d565b9050602081019050919050565b82818337600083830152505050565b6000611e00611dfb84611dad565b611d92565b905082815260208101848484011115611e1c57611e1b611d2d565b5b611e27848285611dde565b509392505050565b600082601f830112611e4457611e43611d28565b5b8135611e54848260208601611ded565b91505092915050565b600080600060608486031215611e7657611e75611a83565b5b600084013567ffffffffffffffff811115611e9457611e93611a88565b5b611ea086828701611e2f565b935050602084013567ffffffffffffffff811115611ec157611ec0611a88565b5b611ecd86828701611e2f565b9250506040611ede86828701611b0c565b9150509250925092565b600060208284031215611efe57611efd611a83565b5b6000611f0c84828501611b0c565b91505092915050565b600060208284031215611f2b57611f2a611a83565b5b6000611f3984828501611ad6565b91505092915050565b611f4b81611aad565b82525050565b6000602082019050611f666000830184611f42565b92915050565b611f7581611b97565b82525050565b600060c082019050611f906000830189611bfa565b8181036020830152611fa28188611a1e565b90508181036040830152611fb68187611a1e565b9050611fc56060830186611bfa565b611fd26080830185611f42565b611fdf60a0830184611f6c565b979650505050505050565b6000806040838503121561200157612000611a83565b5b600061200f85828601611ad6565b925050602061202085828601611ad6565b9150509250929050565b600061203582611cda565b9050919050565b6120458161202a565b82525050565b6000602082019050612060600083018461203c565b92915050565b6000806040838503121561207d5761207c611a83565b5b600061208b85828601611b0c565b925050602061209c85828601611ad6565b9150509250929050565b7f4e487b7100000000000000000000000000000000000000000000000000000000600052602260045260246000fd5b600060028204905060018216806120ed57607f821691505b602082108103612100576120ff6120a6565b5b50919050565b7f41737365742076616c7565206d7573742062652067726561746572207468616e60008201527f207a65726f000000000000000000000000000000000000000000000000000000602082015250565b60006121626025836119d2565b915061216d82612106565b604082019050919050565b6000602082019050818103600083015261219181612155565b9050919050565b600081905092915050565b60006121ae826119c7565b6121b88185612198565b93506121c88185602086016119e3565b80840191505092915050565b6000819050919050565b6121ef6121ea82611aeb565b6121d4565b82525050565b600061220182856121a3565b915061220d82846121de565b6020820191508190509392505050565b7f7265676973746572417373657400000000000000000000000000000000000000600082015250565b6000612253600d83612198565b915061225e8261221d565b600d82019050919050565b600061227482612246565b9150819050919050565b600081519050919050565b600082825260208201905092915050565b60006122a58261227e565b6122af8185612289565b93506122bf8185602086016119e3565b6122c881611a0d565b840191505092915050565b600060408201905081810360008301526122ed818561229a565b90506122fc6020830184611f6c565b9392505050565b60008151905061231281611ba1565b92915050565b60006020828403121561232e5761232d611a83565b5b600061233c84828501612303565b91505092915050565b60008190508160005260206000209050919050565b60006020601f8301049050919050565b600082821b905092915050565b6000600883026123a77fffffffffffffffffffffffffffffffffffffffffffffffffffffffffffffffff8261236a565b6123b1868361236a565b95508019841693508086168417925050509392505050565b60006123e46123df6123da84611aeb565b611cae565b611aeb565b9050919050565b6000819050919050565b6123fe836123c9565b61241261240a826123eb565b848454612377565b825550505050565b600090565b61242761241a565b6124328184846123f5565b505050565b5b818110156124565761244b60008261241f565b600181019050612438565b5050565b601f82111561249b5761246c81612345565b6124758461235a565b81016020851015612484578190505b6124986124908561235a565b830182612437565b50505b505050565b600082821c905092915050565b60006124be600019846008026124a0565b1980831691505092915050565b60006124d783836124ad565b9150826002028217905092915050565b6124f0826119c7565b67ffffffffffffffff81111561250957612508611d32565b5b61251382546120d5565b61251e82828561245a565b600060209050601f831160018114612551576000841561253f578287015190505b61254985826124cb565b8655506125b1565b601f19841661255f86612345565b60005b8281101561258757848901518255600182019150602085019450602081019050612562565b868310156125a457848901516125a0601f8916826124ad565b8355505b6001600288020188555050505b505050505050565b600060608201905081810360008301526125d38186611a1e565b90506125e26020830185611bfa565b6125ef6040830184611f6c565b949350505050565b7f596f7520617265206e6f7420746865206f776e6572206f66207468697320617360008201527f7365740000000000000000000000000000000000000000000000000000000000602082015250565b60006126536023836119d2565b915061265e826125f7565b604082019050919050565b6000602082019050818103600083015261268281612646565b9050919050565b60008160601b9050919050565b60006126a182612689565b9050919050565b60006126b382612696565b9050919050565b6126cb6126c682611aad565b6126a8565b82525050565b60006126dd82866121de565b6020820191506126ed82856126ba565b6014820191506126fd82846121de565b602082019150819050949350505050565b7f746f6b656e697a65417373657400000000000000000000000000000000000000600082015250565b6000612744600d83612198565b915061274f8261270e565b600d82019050919050565b600061276582612737565b9150819050919050565b60006040820190506127846000830185611bfa565b6127916020830184611f6c565b9392505050565b60006127a482876121de565b6020820191506127b482866126ba565b6014820191506127c482856126ba565b6014820191506127d482846121de565b60208201915081905095945050505050565b7f7472616e73666572417373657400000000000000000000000000000000000000600082015250565b600061281c600d83612198565b9150612827826127e6565b600d82019050919050565b600061283d8261280f565b9150819050919050565b600060608201905061285c6000830186611f42565b6128696020830185611bfa565b6128766040830184611bfa565b949350505050565b7f4e487b7100000000000000000000000000000000000000000000000000000000600052601160045260246000fd5b60006128b882611aeb565b91506128c383611aeb565b92508282019050808211156128db576128da61287e565b5b9291505056fea2646970667358221220f0fec9e65ae71acf598692b1ba3c6642729994f567cc39318f6cad7c35a2915b64736f6c63430008140033",
  "immutableReferences": {},
  "source": "// SPDX-License-Identifier: MIT\npragma solidity ^0.8.20;\n\nimport \"@openzeppelin/contracts/token/ERC20/ERC20.sol\"; //    ERC20  OpenZeppelin\nimport \"@openzeppelin/contracts/access/Ownable.sol\"; //    Ownable  OpenZeppelin\nimport \"@openzeppelin/contracts/utils/Counters.sol\"; //    Counters  OpenZeppelin\nimport \"./AccControl.sol\"; //    AccControl   \nimport \"./CustomHash.sol\"; //    CustomHash    \n\n/**\n * @title Token\n * @dev      DAO-VC\n */\ncontract Token is ERC20, Ownable {\n    using Counters for Counters.Counter; //    Counters   \n\n    AccControl public accControl; //       AccControl\n    CustomHash public hasher; //        \n\n    //  Asset          \n    struct Asset {\n        uint256 id;\n        string assetType;\n        string metadata;\n        uint256 valueInTokens;\n        address owner;\n        bytes32 hash;\n    }\n\n    Counters.Counter private assetIdCounter; //   \n    mapping(uint256 => Asset) public assets; //    \n    mapping(address => uint256[]) public ownedAssets; //        \n    mapping(bytes32 => bool) public transactionHashes; //           \n\n    //      \n    event AssetRegistered(uint256 indexed assetId, string assetType, uint256 valueInTokens, address indexed owner, bytes32 hash);\n    event AssetTransferred(uint256 indexed assetId, address indexed from, address indexed to, uint256 valueInTokens, bytes32 hash);\n    event Tokenized(uint256 indexed assetId, address indexed owner, uint256 valueInTokens, bytes32 hash);\n\n    /**\n     * @dev  \n     * @param initialSupply   \n     * @param initialOwner   \n     * @param _accControl   AccControl\n     * @param _hasher    \n     */\n    constructor(uint256 initialSupply, address initialOwner, address _accControl, address _hasher) \n        ERC20(\"Rayan Token\", \"RYC\") Ownable(initialOwner) {\n        _mint(msg.sender, initialSupply); //   \n        accControl = AccControl(_accControl);\n        hasher = CustomHash(_hasher);\n    }\n\n    /**\n     * @dev Modifier      DAO    \n     */\n    modifier onlyDAO() {\n        require(accControl.isDAONode(msg.sender), \"Only DAO can execute this action\");\n        _;\n    }\n\n    /**\n     * @dev   \n     * @param assetType  \n     * @param metadata  \n     * @param valueInTokens   \n     */\n    function registerAsset(string memory assetType, string memory metadata, uint256 valueInTokens) external {\n        require(valueInTokens > 0, \"Asset value must be greater than zero\");\n        assetIdCounter.increment(); //    \n        uint256 newAssetId = assetIdCounter.current();\n        bytes32 assetHash = hasher.customHash(abi.encodePacked(metadata, block.timestamp), keccak256(abi.encodePacked(\"registerAsset\")));\n\n        assets[newAssetId] = Asset({\n            id: newAssetId,\n            assetType: assetType,\n            metadata: metadata,\n            valueInTokens: valueInTokens,\n            owner: msg.sender,\n            hash: assetHash\n        });\n        ownedAssets[msg.sender].push(newAssetId); //       \n        transactionHashes[assetHash] = true; //         \n\n        emit AssetRegistered(newAssetId, assetType, valueInTokens, msg.sender, assetHash);\n    }\n\n    /**\n     * @dev     \n     * @param assetId  \n     * @param to  \n     */\n    function transferAsset(uint256 assetId, address to) external {\n        Asset storage asset = assets[assetId];\n        require(asset.owner == msg.sender, \"You are not the owner of this asset\");\n        bytes32 transferHash = hasher.customHash(abi.encodePacked(assetId, msg.sender, to, block.timestamp), keccak256(abi.encodePacked(\"transferAsset\")));\n\n        asset.owner = to; //   \n        ownedAssets[to].push(assetId); //        \n        transactionHashes[transferHash] = true; //         \n\n        emit AssetTransferred(assetId, msg.sender, to, asset.valueInTokens, transferHash);\n    }\n\n    /**\n     * @dev    \n     * @param assetId  \n     */\n    function tokenizeAsset(uint256 assetId) external {\n        Asset storage asset = assets[assetId];\n        require(asset.owner == msg.sender, \"You are not the owner of this asset\");\n        bytes32 tokenizeHash = hasher.customHash(abi.encodePacked(assetId, msg.sender, block.timestamp), keccak256(abi.encodePacked(\"tokenizeAsset\")));\n\n        _mint(msg.sender, asset.valueInTokens); //      \n        delete assets[assetId]; //    \n        transactionHashes[tokenizeHash] = true; //         \n\n        emit Tokenized(assetId, msg.sender, asset.valueInTokens, tokenizeHash);\n    }\n}",
  "sourcePath": "/home/errick/master/contracts/Token.sol",
  "compiler": {
    "name": "solc",
    "version": "0.8.20+commit.a1b79de6.Emscripten.clang"
  },
  "schemaVersion": "3.4.16",
  "updatedAt": "2025-01-30T09:52:58.908Z",
  "networkType": "ethereum",
  "devdoc": {
    "details": "     DAO-VC",
    "errors": {
      "ERC20InsufficientAllowance(address,uint256,uint256)": [
        {
          "details": "Indicates a failure with the `spender`s `allowance`. Used in transfers.",
          "params": {
            "allowance": "Amount of tokens a `spender` is allowed to operate with.",
            "needed": "Minimum amount required to perform a transfer.",
            "spender": "Address that may be allowed to operate on tokens without being their owner."
          }
        }
      ],
      "ERC20InsufficientBalance(address,uint256,uint256)": [
        {
          "details": "Indicates an error related to the current `balance` of a `sender`. Used in transfers.",
          "params": {
            "balance": "Current balance for the interacting account.",
            "needed": "Minimum amount required to perform a transfer.",
            "sender": "Address whose tokens are being transferred."
          }
        }
      ],
      "ERC20InvalidApprover(address)": [
        {
          "details": "Indicates a failure with the `approver` of a token to be approved. Used in approvals.",
          "params": {
            "approver": "Address initiating an approval operation."
          }
        }
      ],
      "ERC20InvalidReceiver(address)": [
        {
          "details": "Indicates a failure with the token `receiver`. Used in transfers.",
          "params": {
            "receiver": "Address to which tokens are being transferred."
          }
        }
      ],
      "ERC20InvalidSender(address)": [
        {
          "details": "Indicates a failure with the token `sender`. Used in transfers.",
          "params": {
            "sender": "Address whose tokens are being transferred."
          }
        }
      ],
      "ERC20InvalidSpender(address)": [
        {
          "details": "Indicates a failure with the `spender` to be approved. Used in approvals.",
          "params": {
            "spender": "Address that may be allowed to operate on tokens without being their owner."
          }
        }
      ],
      "OwnableInvalidOwner(address)": [
        {
          "details": "The owner is not a valid owner account. (eg. `address(0)`)"
        }
      ],
      "OwnableUnauthorizedAccount(address)": [
        {
          "details": "The caller account is not authorized to perform an operation."
        }
      ]
    },
    "events": {
      "Approval(address,address,uint256)": {
        "details": "Emitted when the allowance of a `spender` for an `owner` is set by a call to {approve}. `value` is the new allowance."
      },
      "Transfer(address,address,uint256)": {
        "details": "Emitted when `value` tokens are moved from one account (`from`) to another (`to`). Note that `value` may be zero."
      }
    },
    "kind": "dev",
    "methods": {
      "allowance(address,address)": {
        "details": "See {IERC20-allowance}."
      },
      "approve(address,uint256)": {
        "details": "See {IERC20-approve}. NOTE: If `value` is the maximum `uint256`, the allowance is not updated on `transferFrom`. This is semantically equivalent to an infinite approval. Requirements: - `spender` cannot be the zero address."
      },
      "balanceOf(address)": {
        "details": "See {IERC20-balanceOf}."
      },
      "constructor": {
        "details": " ",
        "params": {
          "_accControl": "  AccControl",
          "_hasher": "   ",
          "initialOwner": "  ",
          "initialSupply": "  "
        }
      },
      "decimals()": {
        "details": "Returns the number of decimals used to get its user representation. For example, if `decimals` equals `2`, a balance of `505` tokens should be displayed to a user as `5.05` (`505 / 10 ** 2`). Tokens usually opt for a value of 18, imitating the relationship between Ether and Wei. This is the default value returned by this function, unless it's overridden. NOTE: This information is only used for _display_ purposes: it in no way affects any of the arithmetic of the contract, including {IERC20-balanceOf} and {IERC20-transfer}."
      },
      "name()": {
        "details": "Returns the name of the token."
      },
      "owner()": {
        "details": "Returns the address of the current owner."
      },
      "registerAsset(string,string,uint256)": {
        "details": "  ",
        "params": {
          "assetType": " ",
          "metadata": " ",
          "valueInTokens": "  "
        }
      },
      "renounceOwnership()": {
        "details": "Leaves the contract without owner. It will not be possible to call `onlyOwner` functions. Can only be called by the current owner. NOTE: Renouncing ownership will leave the contract without an owner, thereby disabling any functionality that is only available to the owner."
      },
      "symbol()": {
        "details": "Returns the symbol of the token, usually a shorter version of the name."
      },
      "tokenizeAsset(uint256)": {
        "details": "   ",
        "params": {
          "assetId": " "
        }
      },
      "totalSupply()": {
        "details": "See {IERC20-totalSupply}."
      },
      "transfer(address,uint256)": {
        "details": "See {IERC20-transfer}. Requirements: - `to` cannot be the zero address. - the caller must have a balance of at least `value`."
      },
      "transferAsset(uint256,address)": {
        "details": "    ",
        "params": {
          "assetId": " ",
          "to": " "
        }
      },
      "transferFrom(address,address,uint256)": {
        "details": "See {IERC20-transferFrom}. Skips emitting an {Approval} event indicating an allowance update. This is not required by the ERC. See {xref-ERC20-_approve-address-address-uint256-bool-}[_approve]. NOTE: Does not update the allowance if the current allowance is the maximum `uint256`. Requirements: - `from` and `to` cannot be the zero address. - `from` must have a balance of at least `value`. - the caller must have allowance for ``from``'s tokens of at least `value`."
      },
      "transferOwnership(address)": {
        "details": "Transfers ownership of the contract to a new account (`newOwner`). Can only be called by the current owner."
      }
    },
    "title": "Token",
    "version": 1
  },
  "userdoc": {
    "kind": "user",
    "methods": {},
    "version": 1
  }
}