{
  "contractName": "Voting",
  "abi": [
    {
      "inputs": [
        {
          "internalType": "address",
          "name": "initialOwner",
          "type": "address"
        },
        {
          "internalType": "address",
          "name": "_accControl",
          "type": "address"
        },
        {
          "internalType": "address",
          "name": "_hasher",
          "type": "address"
        }
      ],
      "stateMutability": "nonpayable",
      "type": "constructor"
    },
    {
      "inputs": [
        {
          "internalType": "address",
          "name": "owner",
          "type": "address"
        }
      ],
      "name": "OwnableInvalidOwner",
      "type": "error"
    },
    {
      "inputs": [
        {
          "internalType": "address",
          "name": "account",
          "type": "address"
        }
      ],
      "name": "OwnableUnauthorizedAccount",
      "type": "error"
    },
    {
      "anonymous": false,
      "inputs": [
        {
          "indexed": true,
          "internalType": "address",
          "name": "previousOwner",
          "type": "address"
        },
        {
          "indexed": true,
          "internalType": "address",
          "name": "newOwner",
          "type": "address"
        }
      ],
      "name": "OwnershipTransferred",
      "type": "event"
    },
    {
      "anonymous": false,
      "inputs": [
        {
          "indexed": true,
          "internalType": "uint256",
          "name": "proposalId",
          "type": "uint256"
        },
        {
          "indexed": false,
          "internalType": "string",
          "name": "description",
          "type": "string"
        },
        {
          "indexed": false,
          "internalType": "bytes32",
          "name": "hash",
          "type": "bytes32"
        }
      ],
      "name": "ProposalCreated",
      "type": "event"
    },
    {
      "anonymous": false,
      "inputs": [
        {
          "indexed": true,
          "internalType": "uint256",
          "name": "proposalId",
          "type": "uint256"
        },
        {
          "indexed": false,
          "internalType": "enum Voting.ProposalStatus",
          "name": "status",
          "type": "uint8"
        }
      ],
      "name": "ProposalFinalized",
      "type": "event"
    },
    {
      "anonymous": false,
      "inputs": [
        {
          "indexed": true,
          "internalType": "address",
          "name": "validator",
          "type": "address"
        },
        {
          "indexed": false,
          "internalType": "uint256",
          "name": "newReputation",
          "type": "uint256"
        }
      ],
      "name": "ReputationAdjusted",
      "type": "event"
    },
    {
      "anonymous": false,
      "inputs": [
        {
          "indexed": true,
          "internalType": "uint256",
          "name": "proposalId",
          "type": "uint256"
        },
        {
          "indexed": true,
          "internalType": "address",
          "name": "voter",
          "type": "address"
        },
        {
          "indexed": false,
          "internalType": "bool",
          "name": "support",
          "type": "bool"
        },
        {
          "indexed": false,
          "internalType": "bytes32",
          "name": "hash",
          "type": "bytes32"
        }
      ],
      "name": "Voted",
      "type": "event"
    },
    {
      "inputs": [],
      "name": "accControl",
      "outputs": [
        {
          "internalType": "contract AccControl",
          "name": "",
          "type": "address"
        }
      ],
      "stateMutability": "view",
      "type": "function",
      "constant": true
    },
    {
      "inputs": [],
      "name": "hasher",
      "outputs": [
        {
          "internalType": "contract CustomHash",
          "name": "",
          "type": "address"
        }
      ],
      "stateMutability": "view",
      "type": "function",
      "constant": true
    },
    {
      "inputs": [],
      "name": "owner",
      "outputs": [
        {
          "internalType": "address",
          "name": "",
          "type": "address"
        }
      ],
      "stateMutability": "view",
      "type": "function",
      "constant": true
    },
    {
      "inputs": [],
      "name": "proposalCount",
      "outputs": [
        {
          "internalType": "uint256",
          "name": "",
          "type": "uint256"
        }
      ],
      "stateMutability": "view",
      "type": "function",
      "constant": true
    },
    {
      "inputs": [
        {
          "internalType": "bytes32",
          "name": "",
          "type": "bytes32"
        }
      ],
      "name": "proposalHashes",
      "outputs": [
        {
          "internalType": "bool",
          "name": "",
          "type": "bool"
        }
      ],
      "stateMutability": "view",
      "type": "function",
      "constant": true
    },
    {
      "inputs": [
        {
          "internalType": "uint256",
          "name": "",
          "type": "uint256"
        }
      ],
      "name": "proposals",
      "outputs": [
        {
          "internalType": "uint256",
          "name": "id",
          "type": "uint256"
        },
        {
          "internalType": "string",
          "name": "description",
          "type": "string"
        },
        {
          "internalType": "uint256",
          "name": "voteCountYes",
          "type": "uint256"
        },
        {
          "internalType": "uint256",
          "name": "voteCountNo",
          "type": "uint256"
        },
        {
          "internalType": "uint256",
          "name": "totalVotes",
          "type": "uint256"
        },
        {
          "internalType": "enum Voting.ProposalStatus",
          "name": "status",
          "type": "uint8"
        },
        {
          "internalType": "bytes32",
          "name": "hash",
          "type": "bytes32"
        }
      ],
      "stateMutability": "view",
      "type": "function",
      "constant": true
    },
    {
      "inputs": [],
      "name": "renounceOwnership",
      "outputs": [],
      "stateMutability": "nonpayable",
      "type": "function"
    },
    {
      "inputs": [
        {
          "internalType": "address",
          "name": "",
          "type": "address"
        }
      ],
      "name": "reputationScore",
      "outputs": [
        {
          "internalType": "uint256",
          "name": "",
          "type": "uint256"
        }
      ],
      "stateMutability": "view",
      "type": "function",
      "constant": true
    },
    {
      "inputs": [],
      "name": "reputationThreshold",
      "outputs": [
        {
          "internalType": "uint256",
          "name": "",
          "type": "uint256"
        }
      ],
      "stateMutability": "view",
      "type": "function",
      "constant": true
    },
    {
      "inputs": [],
      "name": "requiredQuorumPercentage",
      "outputs": [
        {
          "internalType": "uint256",
          "name": "",
          "type": "uint256"
        }
      ],
      "stateMutability": "view",
      "type": "function",
      "constant": true
    },
    {
      "inputs": [
        {
          "internalType": "address",
          "name": "newOwner",
          "type": "address"
        }
      ],
      "name": "transferOwnership",
      "outputs": [],
      "stateMutability": "nonpayable",
      "type": "function"
    },
    {
      "inputs": [
        {
          "internalType": "string",
          "name": "description",
          "type": "string"
        }
      ],
      "name": "createProposal",
      "outputs": [],
      "stateMutability": "nonpayable",
      "type": "function"
    },
    {
      "inputs": [
        {
          "internalType": "uint256",
          "name": "proposalId",
          "type": "uint256"
        },
        {
          "internalType": "bool",
          "name": "support",
          "type": "bool"
        }
      ],
      "name": "vote",
      "outputs": [],
      "stateMutability": "nonpayable",
      "type": "function"
    },
    {
      "inputs": [
        {
          "internalType": "uint256",
          "name": "proposalId",
          "type": "uint256"
        }
      ],
      "name": "finalizeProposal",
      "outputs": [],
      "stateMutability": "nonpayable",
      "type": "function"
    }
  ],
  "bytecode": "0x60806040526032600455600a6005553480156200001b57600080fd5b506040516200283a3803806200283a833981810160405281019062000041919062000282565b82600073ffffffffffffffffffffffffffffffffffffffff168173ffffffffffffffffffffffffffffffffffffffff1603620000b75760006040517f1e4fbdf7000000000000000000000000000000000000000000000000000000008152600401620000ae9190620002ef565b60405180910390fd5b620000c8816200015460201b60201c565b5081600160006101000a81548173ffffffffffffffffffffffffffffffffffffffff021916908373ffffffffffffffffffffffffffffffffffffffff16021790555080600260006101000a81548173ffffffffffffffffffffffffffffffffffffffff021916908373ffffffffffffffffffffffffffffffffffffffff1602179055505050506200030c565b60008060009054906101000a900473ffffffffffffffffffffffffffffffffffffffff169050816000806101000a81548173ffffffffffffffffffffffffffffffffffffffff021916908373ffffffffffffffffffffffffffffffffffffffff1602179055508173ffffffffffffffffffffffffffffffffffffffff168173ffffffffffffffffffffffffffffffffffffffff167f8be0079c531659141344cd1fd0a4f28419497f9722a3daafe3b4186f6b6457e060405160405180910390a35050565b600080fd5b600073ffffffffffffffffffffffffffffffffffffffff82169050919050565b60006200024a826200021d565b9050919050565b6200025c816200023d565b81146200026857600080fd5b50565b6000815190506200027c8162000251565b92915050565b6000806000606084860312156200029e576200029d62000218565b5b6000620002ae868287016200026b565b9350506020620002c1868287016200026b565b9250506040620002d4868287016200026b565b9150509250925092565b620002e9816200023d565b82525050565b6000602082019050620003066000830184620002de565b92915050565b61251e806200031c6000396000f3fe608060405234801561001057600080fd5b50600436106100ea5760003560e01c80638da5cb5b1161008c578063d6dec73311610066578063d6dec7331461023d578063da35c6641461025b578063ed33639f14610279578063f2fde38b14610297576100ea565b80638da5cb5b146101e5578063c9d27afe14610203578063d410e8ba1461021f576100ea565b806350564e19116100c857806350564e191461015f57806350d061cb1461018f5780635652077c146101bf578063715018a6146101db576100ea565b8063013cf08b146100ef578063345c35371461012557806349c2a1a614610143575b600080fd5b61010960048036038101906101049190611321565b6102b3565b60405161011c979695949392919061147d565b60405180910390f35b61012d61038a565b60405161013a9190611572565b60405180910390f35b61015d600480360381019061015891906116c2565b6103b0565b005b61017960048036038101906101749190611737565b6106e4565b604051610186919061177f565b60405180910390f35b6101a960048036038101906101a491906117d8565b610704565b6040516101b69190611805565b60405180910390f35b6101d960048036038101906101d49190611321565b61071c565b005b6101e3610a39565b005b6101ed610a4d565b6040516101fa919061182f565b60405180910390f35b61021d60048036038101906102189190611876565b610a76565b005b610227610ef4565b6040516102349190611805565b60405180910390f35b610245610efa565b6040516102529190611805565b60405180910390f35b610263610f00565b6040516102709190611805565b60405180910390f35b610281610f06565b60405161028e91906118d7565b60405180910390f35b6102b160048036038101906102ac91906117d8565b610f2c565b005b60066020528060005260406000206000915090508060000154908060010180546102dc90611921565b80601f016020809104026020016040519081016040528092919081815260200182805461030890611921565b80156103555780601f1061032a57610100808354040283529160200191610355565b820191906000526020600020905b81548152906001019060200180831161033857829003601f168201915b5050505050908060020154908060030154908060040154908060050160009054906101000a900460ff16908060060154905087565b600160009054906101000a900473ffffffffffffffffffffffffffffffffffffffff1681565b600160009054906101000a900473ffffffffffffffffffffffffffffffffffffffff1673ffffffffffffffffffffffffffffffffffffffff1663cd599281336040518263ffffffff1660e01b815260040161040b919061182f565b602060405180830381865afa158015610428573d6000803e3d6000fd5b505050506040513d601f19601f8201168201806040525081019061044c9190611967565b61048b576040517f08c379a000000000000000000000000000000000000000000000000000000000815260040161048290611a06565b60405180910390fd5b6003600081548092919061049e90611a55565b91905055506000600260009054906101000a900473ffffffffffffffffffffffffffffffffffffffff1673ffffffffffffffffffffffffffffffffffffffff1663423a969f8333426040516020016104f893929190611b42565b60405160208183030381529060405260405160200161051690611bc7565b604051602081830303815290604052805190602001206040518363ffffffff1660e01b8152600401610549929190611c31565b602060405180830381865afa158015610566573d6000803e3d6000fd5b505050506040513d601f19601f8201168201806040525081019061058a9190611c76565b90506007600082815260200190815260200160002060009054906101000a900460ff16156105ed576040517f08c379a00000000000000000000000000000000000000000000000000000000081526004016105e490611cef565b60405180910390fd5b600060066000600354815260200190815260200160002090506003548160000181905550828160010190816106229190611eb1565b5060008160020181905550600081600301819055506000816004018190555060008160050160006101000a81548160ff02191690836002811115610669576106686113ed565b5b021790555081816006018190555060016007600084815260200190815260200160002060006101000a81548160ff0219169083151502179055506003547f2c0315a2efcbafa0c8a2b88b14b1e1f52f7f5c8220b4fc1ebad89f88e7e8954184846040516106d7929190611f83565b60405180910390a2505050565b60076020528060005260406000206000915054906101000a900460ff1681565b60086020528060005260406000206000915090505481565b600160009054906101000a900473ffffffffffffffffffffffffffffffffffffffff1673ffffffffffffffffffffffffffffffffffffffff1663cd599281336040518263ffffffff1660e01b8152600401610777919061182f565b602060405180830381865afa158015610794573d6000803e3d6000fd5b505050506040513d601f19601f820116820180604052508101906107b89190611967565b6107f7576040517f08c379a00000000000000000000000000000000000000000000000000000000081526004016107ee90611a06565b60405180910390fd5b600060066000838152602001908152602001600020905060006002811115610822576108216113ed565b5b8160050160009054906101000a900460ff166002811115610846576108456113ed565b5b14610886576040517f08c379a000000000000000000000000000000000000000000000000000000000815260040161087d90611fff565b60405180910390fd5b6000600160009054906101000a900473ffffffffffffffffffffffffffffffffffffffff1673ffffffffffffffffffffffffffffffffffffffff16630f43a6776040518163ffffffff1660e01b8152600401602060405180830381865afa1580156108f5573d6000803e3d6000fd5b505050506040513d601f19601f820116820180604052508101906109199190612034565b905060646004548261092b9190612061565b61093591906120d2565b8260040154101561097b576040517f08c379a00000000000000000000000000000000000000000000000000000000081526004016109729061214f565b60405180910390fd5b8160030154826002015411156109bd5760018260050160006101000a81548160ff021916908360028111156109b3576109b26113ed565b5b02179055506109eb565b60028260050160006101000a81548160ff021916908360028111156109e5576109e46113ed565b5b02179055505b827f34a42c4ce0a88d16ad098de6406057747139a2a3dd8dd8616ee7bbabcecb768e8360050160009054906101000a900460ff16604051610a2c919061216f565b60405180910390a2505050565b610a41610fb2565b610a4b6000611039565b565b60008060009054906101000a900473ffffffffffffffffffffffffffffffffffffffff16905090565b600160009054906101000a900473ffffffffffffffffffffffffffffffffffffffff1673ffffffffffffffffffffffffffffffffffffffff1663facd743b336040518263ffffffff1660e01b8152600401610ad1919061182f565b602060405180830381865afa158015610aee573d6000803e3d6000fd5b505050506040513d601f19601f82011682018060405250810190610b129190611967565b610b51576040517f08c379a0000000000000000000000000000000000000000000000000000000008152600401610b48906121d6565b60405180910390fd5b600554600860003373ffffffffffffffffffffffffffffffffffffffff1673ffffffffffffffffffffffffffffffffffffffff168152602001908152602001600020541015610bd5576040517f08c379a0000000000000000000000000000000000000000000000000000000008152600401610bcc90612242565b60405180910390fd5b60006006600084815260200190815260200160002090508060070160003373ffffffffffffffffffffffffffffffffffffffff1673ffffffffffffffffffffffffffffffffffffffff16815260200190815260200160002060009054906101000a900460ff1615610c7b576040517f08c379a0000000000000000000000000000000000000000000000000000000008152600401610c72906122ae565b60405180910390fd5b60006002811115610c8f57610c8e6113ed565b5b8160050160009054906101000a900460ff166002811115610cb357610cb26113ed565b5b14610cf3576040517f08c379a0000000000000000000000000000000000000000000000000000000008152600401610cea90612340565b60405180910390fd5b6000600260009054906101000a900473ffffffffffffffffffffffffffffffffffffffff1673ffffffffffffffffffffffffffffffffffffffff1663423a969f85338642604051602001610d4a94939291906123a8565b604051602081830303815290604052604051602001610d6890612442565b604051602081830303815290604052805190602001206040518363ffffffff1660e01b8152600401610d9b929190611c31565b602060405180830381865afa158015610db8573d6000803e3d6000fd5b505050506040513d601f19601f82011682018060405250810190610ddc9190611c76565b90508215610e0357816002016000815480929190610df990611a55565b9190505550610e1e565b816003016000815480929190610e1890611a55565b91905055505b816004016000815480929190610e3390611a55565b919050555060018260070160003373ffffffffffffffffffffffffffffffffffffffff1673ffffffffffffffffffffffffffffffffffffffff16815260200190815260200160002060006101000a81548160ff021916908315150217905550610e9d3360016110fd565b3373ffffffffffffffffffffffffffffffffffffffff16847ff9aef51a63552c7712bb1df0d35d3007b2bad5ca599767b7cce9d5e85e9727b48584604051610ee6929190612457565b60405180910390a350505050565b60055481565b60045481565b60035481565b600260009054906101000a900473ffffffffffffffffffffffffffffffffffffffff1681565b610f34610fb2565b600073ffffffffffffffffffffffffffffffffffffffff168173ffffffffffffffffffffffffffffffffffffffff1603610fa65760006040517f1e4fbdf7000000000000000000000000000000000000000000000000000000008152600401610f9d919061182f565b60405180910390fd5b610faf81611039565b50565b610fba6112cf565b73ffffffffffffffffffffffffffffffffffffffff16610fd8610a4d565b73ffffffffffffffffffffffffffffffffffffffff161461103757610ffb6112cf565b6040517f118cdaa700000000000000000000000000000000000000000000000000000000815260040161102e919061182f565b60405180910390fd5b565b60008060009054906101000a900473ffffffffffffffffffffffffffffffffffffffff169050816000806101000a81548173ffffffffffffffffffffffffffffffffffffffff021916908373ffffffffffffffffffffffffffffffffffffffff1602179055508173ffffffffffffffffffffffffffffffffffffffff168173ffffffffffffffffffffffffffffffffffffffff167f8be0079c531659141344cd1fd0a4f28419497f9722a3daafe3b4186f6b6457e060405160405180910390a35050565b801561115f576002600860008473ffffffffffffffffffffffffffffffffffffffff1673ffffffffffffffffffffffffffffffffffffffff16815260200190815260200160002060008282546111539190612480565b9250508190555061123e565b6000600860008473ffffffffffffffffffffffffffffffffffffffff1673ffffffffffffffffffffffffffffffffffffffff16815260200190815260200160002054116111ad5760006111fa565b6001600860008473ffffffffffffffffffffffffffffffffffffffff1673ffffffffffffffffffffffffffffffffffffffff168152602001908152602001600020546111f991906124b4565b5b600860008473ffffffffffffffffffffffffffffffffffffffff1673ffffffffffffffffffffffffffffffffffffffff168152602001908152602001600020819055505b8173ffffffffffffffffffffffffffffffffffffffff167fb20cd83b0e4ae9362dc0226565cae60ccf19c535c8506ecbbe2c5d7595f1fcdd600860008573ffffffffffffffffffffffffffffffffffffffff1673ffffffffffffffffffffffffffffffffffffffff168152602001908152602001600020546040516112c39190611805565b60405180910390a25050565b600033905090565b6000604051905090565b600080fd5b600080fd5b6000819050919050565b6112fe816112eb565b811461130957600080fd5b50565b60008135905061131b816112f5565b92915050565b600060208284031215611337576113366112e1565b5b60006113458482850161130c565b91505092915050565b611357816112eb565b82525050565b600081519050919050565b600082825260208201905092915050565b60005b8381101561139757808201518184015260208101905061137c565b60008484015250505050565b6000601f19601f8301169050919050565b60006113bf8261135d565b6113c98185611368565b93506113d9818560208601611379565b6113e2816113a3565b840191505092915050565b7f4e487b7100000000000000000000000000000000000000000000000000000000600052602160045260246000fd5b6003811061142d5761142c6113ed565b5b50565b600081905061143e8261141c565b919050565b600061144e82611430565b9050919050565b61145e81611443565b82525050565b6000819050919050565b61147781611464565b82525050565b600060e082019050611492600083018a61134e565b81810360208301526114a481896113b4565b90506114b3604083018861134e565b6114c0606083018761134e565b6114cd608083018661134e565b6114da60a0830185611455565b6114e760c083018461146e565b98975050505050505050565b600073ffffffffffffffffffffffffffffffffffffffff82169050919050565b6000819050919050565b600061153861153361152e846114f3565b611513565b6114f3565b9050919050565b600061154a8261151d565b9050919050565b600061155c8261153f565b9050919050565b61156c81611551565b82525050565b60006020820190506115876000830184611563565b92915050565b600080fd5b600080fd5b7f4e487b7100000000000000000000000000000000000000000000000000000000600052604160045260246000fd5b6115cf826113a3565b810181811067ffffffffffffffff821117156115ee576115ed611597565b5b80604052505050565b60006116016112d7565b905061160d82826115c6565b919050565b600067ffffffffffffffff82111561162d5761162c611597565b5b611636826113a3565b9050602081019050919050565b82818337600083830152505050565b600061166561166084611612565b6115f7565b90508281526020810184848401111561168157611680611592565b5b61168c848285611643565b509392505050565b600082601f8301126116a9576116a861158d565b5b81356116b9848260208601611652565b91505092915050565b6000602082840312156116d8576116d76112e1565b5b600082013567ffffffffffffffff8111156116f6576116f56112e6565b5b61170284828501611694565b91505092915050565b61171481611464565b811461171f57600080fd5b50565b6000813590506117318161170b565b92915050565b60006020828403121561174d5761174c6112e1565b5b600061175b84828501611722565b91505092915050565b60008115159050919050565b61177981611764565b82525050565b60006020820190506117946000830184611770565b92915050565b60006117a5826114f3565b9050919050565b6117b58161179a565b81146117c057600080fd5b50565b6000813590506117d2816117ac565b92915050565b6000602082840312156117ee576117ed6112e1565b5b60006117fc848285016117c3565b91505092915050565b600060208201905061181a600083018461134e565b92915050565b6118298161179a565b82525050565b60006020820190506118446000830184611820565b92915050565b61185381611764565b811461185e57600080fd5b50565b6000813590506118708161184a565b92915050565b6000806040838503121561188d5761188c6112e1565b5b600061189b8582860161130c565b92505060206118ac85828601611861565b9150509250929050565b60006118c18261153f565b9050919050565b6118d1816118b6565b82525050565b60006020820190506118ec60008301846118c8565b92915050565b7f4e487b7100000000000000000000000000000000000000000000000000000000600052602260045260246000fd5b6000600282049050600182168061193957607f821691505b60208210810361194c5761194b6118f2565b5b50919050565b6000815190506119618161184a565b92915050565b60006020828403121561197d5761197c6112e1565b5b600061198b84828501611952565b91505092915050565b7f4f6e6c792044414f206d656d626572732063616e206372656174652070726f7060008201527f6f73616c73000000000000000000000000000000000000000000000000000000602082015250565b60006119f0602583611368565b91506119fb82611994565b604082019050919050565b60006020820190508181036000830152611a1f816119e3565b9050919050565b7f4e487b7100000000000000000000000000000000000000000000000000000000600052601160045260246000fd5b6000611a60826112eb565b91507fffffffffffffffffffffffffffffffffffffffffffffffffffffffffffffffff8203611a9257611a91611a26565b5b600182019050919050565b600081905092915050565b6000611ab38261135d565b611abd8185611a9d565b9350611acd818560208601611379565b80840191505092915050565b60008160601b9050919050565b6000611af182611ad9565b9050919050565b6000611b0382611ae6565b9050919050565b611b1b611b168261179a565b611af8565b82525050565b6000819050919050565b611b3c611b37826112eb565b611b21565b82525050565b6000611b4e8286611aa8565b9150611b5a8285611b0a565b601482019150611b6a8284611b2b565b602082019150819050949350505050565b7f63726561746550726f706f73616c000000000000000000000000000000000000600082015250565b6000611bb1600e83611a9d565b9150611bbc82611b7b565b600e82019050919050565b6000611bd282611ba4565b9150819050919050565b600081519050919050565b600082825260208201905092915050565b6000611c0382611bdc565b611c0d8185611be7565b9350611c1d818560208601611379565b611c26816113a3565b840191505092915050565b60006040820190508181036000830152611c4b8185611bf8565b9050611c5a602083018461146e565b9392505050565b600081519050611c708161170b565b92915050565b600060208284031215611c8c57611c8b6112e1565b5b6000611c9a84828501611c61565b91505092915050565b7f4475706c69636174652070726f706f73616c2064657465637465640000000000600082015250565b6000611cd9601b83611368565b9150611ce482611ca3565b602082019050919050565b60006020820190508181036000830152611d0881611ccc565b9050919050565b60008190508160005260206000209050919050565b60006020601f8301049050919050565b600082821b905092915050565b600060088302611d717fffffffffffffffffffffffffffffffffffffffffffffffffffffffffffffffff82611d34565b611d7b8683611d34565b95508019841693508086168417925050509392505050565b6000611dae611da9611da4846112eb565b611513565b6112eb565b9050919050565b6000819050919050565b611dc883611d93565b611ddc611dd482611db5565b848454611d41565b825550505050565b600090565b611df1611de4565b611dfc818484611dbf565b505050565b5b81811015611e2057611e15600082611de9565b600181019050611e02565b5050565b601f821115611e6557611e3681611d0f565b611e3f84611d24565b81016020851015611e4e578190505b611e62611e5a85611d24565b830182611e01565b50505b505050565b600082821c905092915050565b6000611e8860001984600802611e6a565b1980831691505092915050565b6000611ea18383611e77565b9150826002028217905092915050565b611eba8261135d565b67ffffffffffffffff811115611ed357611ed2611597565b5b611edd8254611921565b611ee8828285611e24565b600060209050601f831160018114611f1b5760008415611f09578287015190505b611f138582611e95565b865550611f7b565b601f198416611f2986611d0f565b60005b82811015611f5157848901518255600182019150602085019450602081019050611f2c565b86831015611f6e5784890151611f6a601f891682611e77565b8355505b6001600288020188555050505b505050505050565b60006040820190508181036000830152611f9d81856113b4565b9050611fac602083018461146e565b9392505050565b7f50726f706f73616c20616c72656164792066696e616c697a6564000000000000600082015250565b6000611fe9601a83611368565b9150611ff482611fb3565b602082019050919050565b6000602082019050818103600083015261201881611fdc565b9050919050565b60008151905061202e816112f5565b92915050565b60006020828403121561204a576120496112e1565b5b60006120588482850161201f565b91505092915050565b600061206c826112eb565b9150612077836112eb565b9250828202612085816112eb565b9150828204841483151761209c5761209b611a26565b5b5092915050565b7f4e487b7100000000000000000000000000000000000000000000000000000000600052601260045260246000fd5b60006120dd826112eb565b91506120e8836112eb565b9250826120f8576120f76120a3565b5b828204905092915050565b7f4e6f7420656e6f75676820766f74657320746f2066696e616c697a6500000000600082015250565b6000612139601c83611368565b915061214482612103565b602082019050919050565b600060208201905081810360008301526121688161212c565b9050919050565b60006020820190506121846000830184611455565b92915050565b7f4f6e6c792076616c696461746f72732063616e20766f74650000000000000000600082015250565b60006121c0601883611368565b91506121cb8261218a565b602082019050919050565b600060208201905081810360008301526121ef816121b3565b9050919050565b7f56616c696461746f722072657075746174696f6e20746f6f206c6f7700000000600082015250565b600061222c601c83611368565b9150612237826121f6565b602082019050919050565b6000602082019050818103600083015261225b8161221f565b9050919050565b7f56616c696461746f722068617320616c726561647920766f7465640000000000600082015250565b6000612298601b83611368565b91506122a382612262565b602082019050919050565b600060208201905081810360008301526122c78161228b565b9050919050565b7f566f74696e6720697320636c6f73656420666f7220746869732070726f706f7360008201527f616c000000000000000000000000000000000000000000000000000000000000602082015250565b600061232a602283611368565b9150612335826122ce565b604082019050919050565b600060208201905081810360008301526123598161231d565b9050919050565b60008160f81b9050919050565b600061237882612360565b9050919050565b600061238a8261236d565b9050919050565b6123a261239d82611764565b61237f565b82525050565b60006123b48287611b2b565b6020820191506123c48286611b0a565b6014820191506123d48285612391565b6001820191506123e48284611b2b565b60208201915081905095945050505050565b7f766f746500000000000000000000000000000000000000000000000000000000600082015250565b600061242c600483611a9d565b9150612437826123f6565b600482019050919050565b600061244d8261241f565b9150819050919050565b600060408201905061246c6000830185611770565b612479602083018461146e565b9392505050565b600061248b826112eb565b9150612496836112eb565b92508282019050808211156124ae576124ad611a26565b5b92915050565b60006124bf826112eb565b91506124ca836112eb565b92508282039050818111156124e2576124e1611a26565b5b9291505056fea2646970667358221220225ef4e9b4ff3ac169ff7bc86619a43b9491dbe524ced87100c53c49e029ff4f64736f6c63430008140033",
  "immutableReferences": {},
  "source": "// SPDX-License-Identifier: MIT\npragma solidity ^0.8.20;\n\nimport \"@openzeppelin/contracts/access/Ownable.sol\"; //    Ownable  OpenZeppelin\nimport \"./AccControl.sol\"; //    AccControl   \nimport \"./CustomHash.sol\"; //    CustomHash    \n\n/**\n * @title Voting\n * @dev     DAO-VC    PoA + dPoS + PoP + AI\n */\ncontract Voting is Ownable {\n    AccControl public accControl; //       AccControl\n    CustomHash public hasher; //        \n\n    //   \n    enum ProposalStatus { Pending, Approved, Rejected }\n\n    //  Proposal               \n    struct Proposal {\n        uint256 id;\n        string description;\n        uint256 voteCountYes;\n        uint256 voteCountNo;\n        uint256 totalVotes;\n        ProposalStatus status;\n        bytes32 hash;\n        mapping(address => bool) hasVoted; //     \n    }\n\n    uint256 public proposalCount; //  \n    uint256 public requiredQuorumPercentage = 50; //      \n    uint256 public reputationThreshold = 10; //     PoA\n    mapping(uint256 => Proposal) public proposals; //    \n    mapping(bytes32 => bool) public proposalHashes; //           \n    mapping(address => uint256) public reputationScore; //   Validators\n\n    //      \n    event ProposalCreated(uint256 indexed proposalId, string description, bytes32 hash);\n    event Voted(uint256 indexed proposalId, address indexed voter, bool support, bytes32 hash);\n    event ProposalFinalized(uint256 indexed proposalId, ProposalStatus status);\n    event ReputationAdjusted(address indexed validator, uint256 newReputation);\n\n    /**\n     * @dev  \n     * @param initialOwner   \n     * @param _accControl   AccControl\n     * @param _hasher    \n     */\n    constructor(address initialOwner, address _accControl, address _hasher) Ownable(initialOwner) {\n        accControl = AccControl(_accControl);\n        hasher = CustomHash(_hasher);\n    }\n\n    /**\n     * @dev Modifier       DAO    \n     */\n    modifier onlyDAOMember() {\n        require(accControl.isDAONode(msg.sender), \"Only DAO members can create proposals\");\n        _;\n    }\n\n    /**\n     * @dev Modifier           \n     */\n    modifier onlyQualifiedValidator() {\n        require(accControl.isValidator(msg.sender), \"Only validators can vote\");\n        require(reputationScore[msg.sender] >= reputationThreshold, \"Validator reputation too low\");\n        _;\n    }\n\n    /**\n     * @dev   \n     * @param description  \n     */\n    function createProposal(string memory description) external onlyDAOMember {\n        proposalCount++;\n        bytes32 proposalHash = hasher.customHash(abi.encodePacked(description, msg.sender, block.timestamp), keccak256(abi.encodePacked(\"createProposal\")));\n        require(!proposalHashes[proposalHash], \"Duplicate proposal detected\");\n\n        Proposal storage newProposal = proposals[proposalCount];\n        newProposal.id = proposalCount;\n        newProposal.description = description;\n        newProposal.voteCountYes = 0;\n        newProposal.voteCountNo = 0;\n        newProposal.totalVotes = 0;\n        newProposal.status = ProposalStatus.Pending;\n        newProposal.hash = proposalHash;\n        proposalHashes[proposalHash] = true;\n\n        emit ProposalCreated(proposalCount, description, proposalHash);\n    }\n\n    /**\n     * @dev     \n     * @param proposalId  \n     * @param support    \n     */\n    function vote(uint256 proposalId, bool support) external onlyQualifiedValidator {\n        Proposal storage proposal = proposals[proposalId];\n        require(!proposal.hasVoted[msg.sender], \"Validator has already voted\");\n        require(proposal.status == ProposalStatus.Pending, \"Voting is closed for this proposal\");\n        bytes32 voteHash = hasher.customHash(abi.encodePacked(proposalId, msg.sender, support, block.timestamp), keccak256(abi.encodePacked(\"vote\")));\n\n        if (support) {\n            proposal.voteCountYes++;\n        } else {\n            proposal.voteCountNo++;\n        }\n        proposal.totalVotes++;\n        proposal.hasVoted[msg.sender] = true;\n\n        adjustReputation(msg.sender, true); //     \n        emit Voted(proposalId, msg.sender, support, voteHash);\n    }\n\n    /**\n     * @dev         \n     * @param proposalId  \n     */\n    function finalizeProposal(uint256 proposalId) external onlyDAOMember {\n        Proposal storage proposal = proposals[proposalId];\n        require(proposal.status == ProposalStatus.Pending, \"Proposal already finalized\");\n        uint256 totalValidators = accControl.validatorCount(); //   \n        require(proposal.totalVotes >= (totalValidators * requiredQuorumPercentage) / 100, \"Not enough votes to finalize\");\n\n        if (proposal.voteCountYes > proposal.voteCountNo) {\n            proposal.status = ProposalStatus.Approved;\n        } else {\n            proposal.status = ProposalStatus.Rejected;\n        }\n\n        emit ProposalFinalized(proposalId, proposal.status);\n    }\n\n    /**\n     * @dev   \n     * @param validator  \n     * @param participated  \n     */\n    function adjustReputation(address validator, bool participated) internal {\n        if (participated) {\n            reputationScore[validator] += 2; //    \n        } else {\n            reputationScore[validator] = reputationScore[validator] > 0 ? reputationScore[validator] - 1 : 0; //      \n        }\n        emit ReputationAdjusted(validator, reputationScore[validator]);\n    }\n}",
  "sourcePath": "/home/errick/master/contracts/Voting.sol",
  "compiler": {
    "name": "solc",
    "version": "0.8.20+commit.a1b79de6.Emscripten.clang"
  },
  "schemaVersion": "3.4.16",
  "updatedAt": "2025-01-30T09:52:58.940Z",
  "networkType": "ethereum",
  "devdoc": {
    "details": "    DAO-VC    PoA + dPoS + PoP + AI",
    "errors": {
      "OwnableInvalidOwner(address)": [
        {
          "details": "The owner is not a valid owner account. (eg. `address(0)`)"
        }
      ],
      "OwnableUnauthorizedAccount(address)": [
        {
          "details": "The caller account is not authorized to perform an operation."
        }
      ]
    },
    "kind": "dev",
    "methods": {
      "constructor": {
        "details": " ",
        "params": {
          "_accControl": "  AccControl",
          "_hasher": "   ",
          "initialOwner": "  "
        }
      },
      "createProposal(string)": {
        "details": "  ",
        "params": {
          "description": " "
        }
      },
      "finalizeProposal(uint256)": {
        "details": "        ",
        "params": {
          "proposalId": " "
        }
      },
      "owner()": {
        "details": "Returns the address of the current owner."
      },
      "renounceOwnership()": {
        "details": "Leaves the contract without owner. It will not be possible to call `onlyOwner` functions. Can only be called by the current owner. NOTE: Renouncing ownership will leave the contract without an owner, thereby disabling any functionality that is only available to the owner."
      },
      "transferOwnership(address)": {
        "details": "Transfers ownership of the contract to a new account (`newOwner`). Can only be called by the current owner."
      },
      "vote(uint256,bool)": {
        "details": "    ",
        "params": {
          "proposalId": " ",
          "support": "   "
        }
      }
    },
    "title": "Voting",
    "version": 1
  },
  "userdoc": {
    "kind": "user",
    "methods": {},
    "version": 1
  }
}